{
  "abi": [
    {
      "anonymous": false,
      "inputs": [
        {
          "indexed": true,
          "internalType": "uint256",
          "name": "offerId",
          "type": "uint256"
        },
        {
          "indexed": true,
          "internalType": "uint256",
          "name": "exchangeId",
          "type": "uint256"
        },
        {
          "indexed": true,
          "internalType": "address",
          "name": "buyer",
          "type": "address"
        },
        {
          "indexed": false,
          "internalType": "bool",
          "name": "timerExpired",
          "type": "bool"
        }
      ],
      "name": "ExchangeCanceled",
      "type": "event"
    },
    {
      "anonymous": false,
      "inputs": [
        {
          "indexed": true,
          "internalType": "uint256",
          "name": "offerId",
          "type": "uint256"
        },
        {
          "indexed": true,
          "internalType": "uint256",
          "name": "exchangeId",
          "type": "uint256"
        },
        {
          "indexed": false,
          "internalType": "uint256",
          "name": "timestamp",
          "type": "uint256"
        }
      ],
      "name": "ExchangeCompleted",
      "type": "event"
    },
    {
      "anonymous": false,
      "inputs": [
        {
          "indexed": true,
          "internalType": "uint256",
          "name": "offerId",
          "type": "uint256"
        },
        {
          "indexed": true,
          "internalType": "uint256",
          "name": "exchangeId",
          "type": "uint256"
        },
        {
          "indexed": true,
          "internalType": "address",
          "name": "buyer",
          "type": "address"
        }
      ],
      "name": "ExchangeCreated",
      "type": "event"
    },
    {
      "anonymous": false,
      "inputs": [
        {
          "indexed": true,
          "internalType": "uint256",
          "name": "offerId",
          "type": "uint256"
        },
        {
          "indexed": true,
          "internalType": "uint256",
          "name": "exchangeId",
          "type": "uint256"
        },
        {
          "indexed": true,
          "internalType": "address",
          "name": "seller",
          "type": "address"
        },
        {
          "indexed": false,
          "internalType": "uint256",
          "name": "timestamp",
          "type": "uint256"
        }
      ],
      "name": "ExchangeRedeemed",
      "type": "event"
    },
    {
      "anonymous": false,
      "inputs": [
        {
          "indexed": true,
          "internalType": "uint256",
          "name": "offerId",
          "type": "uint256"
        },
        {
          "indexed": true,
          "internalType": "uint256",
          "name": "exchangeId",
          "type": "uint256"
        },
        {
          "indexed": true,
          "internalType": "address",
          "name": "seller",
          "type": "address"
        }
      ],
      "name": "ExchangeRevoked",
      "type": "event"
    },
    {
      "anonymous": false,
      "inputs": [
        {
          "indexed": true,
          "internalType": "uint256",
          "name": "offerId",
          "type": "uint256"
        },
        {
          "indexed": true,
          "internalType": "address",
          "name": "seller",
          "type": "address"
        },
        {
          "components": [
            {
              "internalType": "uint256",
              "name": "id",
              "type": "uint256"
            },
            {
              "internalType": "address",
              "name": "seller",
              "type": "address"
            },
            {
              "internalType": "uint256",
              "name": "price",
              "type": "uint256"
            },
            {
              "internalType": "uint256",
              "name": "quantityAvailable",
              "type": "uint256"
            },
            {
              "internalType": "address",
              "name": "assetToken",
              "type": "address"
            },
            {
              "internalType": "uint256",
              "name": "assetTokenId",
              "type": "uint256"
            },
            {
              "internalType": "string",
              "name": "metadataUri",
              "type": "string"
            },
            {
              "internalType": "bool",
              "name": "voided",
              "type": "bool"
            }
          ],
          "indexed": false,
          "internalType": "struct BionetTypes.Offer",
          "name": "offer",
          "type": "tuple"
        }
      ],
      "name": "OfferCreated",
      "type": "event"
    },
    {
      "anonymous": false,
      "inputs": [
        {
          "indexed": true,
          "internalType": "uint256",
          "name": "offerId",
          "type": "uint256"
        },
        {
          "indexed": true,
          "internalType": "address",
          "name": "seller",
          "type": "address"
        }
      ],
      "name": "OfferVoided",
      "type": "event"
    },
    {
      "inputs": [
        {
          "internalType": "address",
          "name": "_buyer",
          "type": "address"
        },
        {
          "internalType": "uint256",
          "name": "_exchangeId",
          "type": "uint256"
        }
      ],
      "name": "cancel",
      "outputs": [],
      "stateMutability": "nonpayable",
      "type": "function"
    },
    {
      "inputs": [
        {
          "internalType": "address",
          "name": "_buyer",
          "type": "address"
        },
        {
          "internalType": "uint256",
          "name": "_offerId",
          "type": "uint256"
        }
      ],
      "name": "commit",
      "outputs": [
        {
          "internalType": "uint256",
          "name": "",
          "type": "uint256"
        }
      ],
      "stateMutability": "payable",
      "type": "function"
    },
    {
      "inputs": [
        {
          "components": [
            {
              "internalType": "uint256",
              "name": "id",
              "type": "uint256"
            },
            {
              "internalType": "address",
              "name": "seller",
              "type": "address"
            },
            {
              "internalType": "uint256",
              "name": "price",
              "type": "uint256"
            },
            {
              "internalType": "uint256",
              "name": "quantityAvailable",
              "type": "uint256"
            },
            {
              "internalType": "address",
              "name": "assetToken",
              "type": "address"
            },
            {
              "internalType": "uint256",
              "name": "assetTokenId",
              "type": "uint256"
            },
            {
              "internalType": "string",
              "name": "metadataUri",
              "type": "string"
            },
            {
              "internalType": "bool",
              "name": "voided",
              "type": "bool"
            }
          ],
          "internalType": "struct BionetTypes.Offer",
          "name": "_offer",
          "type": "tuple"
        }
      ],
      "name": "createOffer",
      "outputs": [
        {
          "internalType": "uint256",
          "name": "",
          "type": "uint256"
        }
      ],
      "stateMutability": "payable",
      "type": "function"
    },
    {
      "inputs": [
        {
          "internalType": "address",
          "name": "_buyer",
          "type": "address"
        },
        {
          "internalType": "uint256",
          "name": "_exchangeId",
          "type": "uint256"
        }
      ],
      "name": "finalize",
      "outputs": [],
      "stateMutability": "nonpayable",
      "type": "function"
    },
    {
      "inputs": [
        {
          "internalType": "address",
          "name": "_account",
          "type": "address"
        }
      ],
      "name": "getEscrowBalance",
      "outputs": [
        {
          "internalType": "uint256",
          "name": "bal",
          "type": "uint256"
        }
      ],
      "stateMutability": "view",
      "type": "function"
    },
    {
      "inputs": [
        {
          "internalType": "uint256",
          "name": "_exchangeId",
          "type": "uint256"
        }
      ],
      "name": "getExchange",
      "outputs": [
        {
          "components": [
            {
              "internalType": "uint256",
              "name": "id",
              "type": "uint256"
            },
            {
              "internalType": "uint256",
              "name": "offerId",
              "type": "uint256"
            },
            {
              "internalType": "address",
              "name": "buyer",
              "type": "address"
            },
            {
              "internalType": "uint256",
              "name": "redeemBy",
              "type": "uint256"
            },
            {
              "internalType": "uint256",
              "name": "disputeBy",
              "type": "uint256"
            },
            {
              "internalType": "uint256",
              "name": "finalizedDate",
              "type": "uint256"
            },
            {
              "internalType": "enum BionetTypes.ExchangeState",
              "name": "state",
              "type": "uint8"
            }
          ],
          "internalType": "struct BionetTypes.Exchange",
          "name": "exchange",
          "type": "tuple"
        }
      ],
      "stateMutability": "view",
      "type": "function"
    },
    {
      "inputs": [
        {
          "internalType": "uint256",
          "name": "_offerId",
          "type": "uint256"
        }
      ],
      "name": "getOffer",
      "outputs": [
        {
          "components": [
            {
              "internalType": "uint256",
              "name": "id",
              "type": "uint256"
            },
            {
              "internalType": "address",
              "name": "seller",
              "type": "address"
            },
            {
              "internalType": "uint256",
              "name": "price",
              "type": "uint256"
            },
            {
              "internalType": "uint256",
              "name": "quantityAvailable",
              "type": "uint256"
            },
            {
              "internalType": "address",
              "name": "assetToken",
              "type": "address"
            },
            {
              "internalType": "uint256",
              "name": "assetTokenId",
              "type": "uint256"
            },
            {
              "internalType": "string",
              "name": "metadataUri",
              "type": "string"
            },
            {
              "internalType": "bool",
              "name": "voided",
              "type": "bool"
            }
          ],
          "internalType": "struct BionetTypes.Offer",
          "name": "offer",
          "type": "tuple"
        }
      ],
      "stateMutability": "view",
      "type": "function"
    },
    {
      "inputs": [],
      "name": "getProtocolBalance",
      "outputs": [
        {
          "internalType": "uint256",
          "name": "bal",
          "type": "uint256"
        }
      ],
      "stateMutability": "view",
      "type": "function"
    },
    {
      "inputs": [
        {
          "internalType": "address",
          "name": "_router",
          "type": "address"
        },
        {
          "internalType": "address",
          "name": "_voucher",
          "type": "address"
        }
      ],
      "name": "initialize",
      "outputs": [],
      "stateMutability": "nonpayable",
      "type": "function"
    },
    {
      "inputs": [
        {
          "internalType": "address",
          "name": "_buyer",
          "type": "address"
        },
        {
          "internalType": "uint256",
          "name": "_exchangeId",
          "type": "uint256"
        }
      ],
      "name": "redeem",
      "outputs": [],
      "stateMutability": "nonpayable",
      "type": "function"
    },
    {
      "inputs": [
        {
          "internalType": "address",
          "name": "_caller",
          "type": "address"
        },
        {
          "internalType": "uint256",
          "name": "_exchangeId",
          "type": "uint256"
        }
      ],
      "name": "revoke",
      "outputs": [],
      "stateMutability": "payable",
      "type": "function"
    },
    {
      "inputs": [
        {
          "internalType": "address",
          "name": "_caller",
          "type": "address"
        },
        {
          "internalType": "uint256",
          "name": "_offerId",
          "type": "uint256"
        }
      ],
      "name": "voidOffer",
      "outputs": [],
      "stateMutability": "nonpayable",
      "type": "function"
    },
    {
      "inputs": [
        {
          "internalType": "address",
          "name": "_account",
          "type": "address"
        }
      ],
      "name": "withdraw",
      "outputs": [],
      "stateMutability": "nonpayable",
      "type": "function"
    }
  ],
  "bytecode": {
    "object": "0x608060405234801561001057600080fd5b50600160005561267b806100256000396000f3fe6080604052600436106100c25760003560e01c806351cff8d91161007f57806384bf15351161005957806384bf15351461023857806398590ef91461024b578063c01fd3f71461026b578063eac449d91461027e57600080fd5b806351cff8d9146101d85780636374b11b146101f85780637c5805701461021857600080fd5b80630553e156146100c75780630b9d5847146100e957806314e7c9221461011f5780631e9a6950146101425780634579268a14610162578063485cc9551461018f575b600080fd5b3480156100d357600080fd5b506100e76100e236600461209c565b610291565b005b3480156100f557600080fd5b506101096101043660046120c6565b610629565b60405161011691906120f5565b60405180910390f35b34801561012b57600080fd5b506101346106c2565b604051908152602001610116565b34801561014e57600080fd5b506100e761015d36600461209c565b6106d5565b34801561016e57600080fd5b5061018261017d3660046120c6565b610a4f565b60405161011691906121af565b34801561019b57600080fd5b506100e76101aa366004612236565b600180546001600160a01b039384166001600160a01b03199182161790915560028054929093169116179055565b3480156101e457600080fd5b506100e76101f3366004612269565b610bb6565b34801561020457600080fd5b50610134610213366004612269565b610c2f565b34801561022457600080fd5b506100e761023336600461209c565b610c58565b61013461024636600461209c565b610d66565b34801561025757600080fd5b506100e761026636600461209c565b611027565b610134610279366004612361565b6112c7565b6100e761028c36600461209c565b61142c565b600154604080518082019091526011815270155b985d5d1a1bdc9a5e99590818d85b1b607a1b6020820152906001600160a01b031633146102ee5760405162461bcd60e51b81526004016102e5919061242a565b60405180910390fd5b5060006102fa82611774565b90506003600682015460ff166005811115610317576103176120df565b1461035c5760405162461bcd60e51b81526020600482015260156024820152744e6f7420696e2072656465656d656420737461746560581b60448201526064016102e5565b600481015460028201544291909111906001600160a01b038581169116148061038757506001811515145b156105cb5760006103966117ec565b6001808501546000908152602092835260409081902081516101008101835281548152928101546001600160a01b03908116948401949094526002810154918301919091526003810154606083015260048101549092166080820152600582015460a082015260068201805491929160c0840191906104149061243d565b80601f01602080910402602001604051908101604052809291908181526020018280546104409061243d565b801561048d5780601f106104625761010080835404028352916020019161048d565b820191906000526020600020905b81548152906001019060200180831161047057829003601f168201915b50505091835250506007919091015460ff16151560209091015260068401805491925060049160ff1916600183021790555042600584015560808101516020820151600285015460a0808501516060860151604051637921219560e11b81526001600160a01b0395861660048201529385166024850152604484019190915260648301526084820152600060a482015291169063f242432a9060c401600060405180830381600087803b15801561054357600080fd5b505af1158015610557573d6000803e3d6000fd5b50508454602084015160028701546040860151600689015461058e965093945091926001600160a01b03909116919060ff16611810565b825481516040514281527f02ed327deaf2a2cf4fce11e9f7770dd4961b8fa2c6b9c4e894850e7b9980f1e99060200160405180910390a350610623565b60405162461bcd60e51b815260206004820152602760248201527f4e6f7420617574686f72697a656420746f2066696e616c697a65207468652065604482015266786368616e676560c81b60648201526084016102e5565b50505050565b61063161202f565b61063a82611774565b6040805160e081018252825481526001830154602082015260028301546001600160a01b031691810191909152600382015460608201526004820154608082015260058083015460a0830152600683015491929160c084019160ff909116908111156106a8576106a86120df565b60058111156106b9576106b96120df565b90525092915050565b60006106cc6117ec565b60020154905090565b600154604080518082019091526011815270155b985d5d1a1bdc9a5e99590818d85b1b607a1b6020820152906001600160a01b031633146107295760405162461bcd60e51b81526004016102e5919061242a565b50600061073582611774565b90506000600682015460ff166005811115610752576107526120df565b1461076f5760405162461bcd60e51b81526004016102e590612471565b6002810154604080518082019091526018815277213abcb2b91036bab9ba103132903a34329031b0b63632b960411b6020820152906001600160a01b038581169116146107cf5760405162461bcd60e51b81526004016102e5919061242a565b5060006107df8260010154611a5f565b60408051610100810182528254815260018301546001600160a01b0390811660208301526002840154928201929092526003830154606082015260048301549091166080820152600582015460a082015260068201805491929160c0840191906108489061243d565b80601f01602080910402602001604051908101604052809291908181526020018280546108749061243d565b80156108c15780601f10610896576101008083540402835291602001916108c1565b820191906000526020600020905b8154815290600101906020018083116108a457829003601f168201915b50505091835250506007919091015460ff1615156020909101526003830154909150421180156109765760068301805460ff1916600290811790915542600585015583546020840151828601546040860151610928946001600160a01b0390921691611810565b600283015483548351604051600181526001600160a01b03909316927f8dec8b8dd1b2fe4f598080d5307d230fb514013cea4d7527d3a81b9ad2d29e449060200160405180910390a4610a48565b60068301805460ff1916600317905561099262093a80426124b7565b60048481019190915560025484546040516315cf966160e31b8152928301526001600160a01b03169063ae7cb30890602401600060405180830381600087803b1580156109de57600080fd5b505af11580156109f2573d6000803e3d6000fd5b5050505081602001516001600160a01b0316836000015483600001517fc835f58a4a1b6afa981828160def81370e1d2b1599aa7571f8ab40931ffbe52342604051610a3f91815260200190565b60405180910390a45b5050505050565b610aab6040518061010001604052806000815260200160006001600160a01b03168152602001600081526020016000815260200160006001600160a01b0316815260200160008152602001606081526020016000151581525090565b610ab482611a5f565b60408051610100810182528254815260018301546001600160a01b0390811660208301526002840154928201929092526003830154606082015260048301549091166080820152600582015460a082015260068201805491929160c084019190610b1d9061243d565b80601f0160208091040260200160405190810160405280929190818152602001828054610b499061243d565b8015610b965780601f10610b6b57610100808354040283529160200191610b96565b820191906000526020600020905b815481529060010190602001808311610b7957829003601f168201915b50505091835250506007919091015460ff16151560209091015292915050565b600154604080518082019091526011815270155b985d5d1a1bdc9a5e99590818d85b1b607a1b6020820152906001600160a01b03163314610c0a5760405162461bcd60e51b81526004016102e5919061242a565b506000610c1682611ad1565b9050610c2b6001600160a01b03831682611bc3565b5050565b6000610c396117ec565b6001600160a01b03909216600090815260209290925250604090205490565b600154604080518082019091526011815270155b985d5d1a1bdc9a5e99590818d85b1b607a1b6020820152906001600160a01b03163314610cac5760405162461bcd60e51b81526004016102e5919061242a565b506000610cb882611ce1565b600181015460408051808201909152601981527829b2b63632b91036bab9ba103132903a34329031b0b63632b960391b60208201529192506001600160a01b03858116911614610d1b5760405162461bcd60e51b81526004016102e5919061242a565b5060078101805460ff191660011790556040516001600160a01b0384169083907fcc53b068bf198ba9f8afa109fc3d2f26e276a0b62190ccf736742dc12766251990600090a3505050565b600154604080518082019091526011815270155b985d5d1a1bdc9a5e99590818d85b1b607a1b60208201526000916001600160a01b03163314610dbc5760405162461bcd60e51b81526004016102e5919061242a565b506000610dc883611ce1565b60408051610100810182528254815260018301546001600160a01b0390811660208301526002840154928201929092526003830154606082015260048301549091166080820152600582015460a082015260068201805491929160c084019190610e319061243d565b80601f0160208091040260200160405190810160405280929190818152602001828054610e5d9061243d565b8015610eaa5780601f10610e7f57610100808354040283529160200191610eaa565b820191906000526020600020905b815481529060010190602001808311610e8d57829003601f168201915b50505091835250506007919091015460ff1615156020909101526040810151909150341015610f145760405162461bcd60e51b81526020600482015260166024820152752830b4b2103a37b7903637bb903337b91037b33332b960511b60448201526064016102e5565b6000610f1e611d34565b90506000610f2b82611d65565b838155600181018790556002810180546001600160a01b0319166001600160a01b038a161790559150610f63905062093a80426124b7565b600382015560068101805460ff19169055610f7e8634611d9c565b600254604051638da75e5760e01b81526001600160a01b0388811660048301526024820185905290911690638da75e5790604401600060405180830381600087803b158015610fcc57600080fd5b505af1158015610fe0573d6000803e3d6000fd5b50505050856001600160a01b031682867fdc5c806bd64d78299502a0f0fc0845464d3edb2591af0e47b7876ccdf187993f60405160405180910390a4509150505b92915050565b600154604080518082019091526011815270155b985d5d1a1bdc9a5e99590818d85b1b607a1b6020820152906001600160a01b0316331461107b5760405162461bcd60e51b81526004016102e5919061242a565b50600061108782611774565b6002810154604080518082019091526018815277213abcb2b91036bab9ba103132903a34329031b0b63632b960411b60208201529192506001600160a01b038581169116146110e95760405162461bcd60e51b81526004016102e5919061242a565b506000600682015460ff166005811115611105576111056120df565b146111225760405162461bcd60e51b81526004016102e590612471565b60068101805460ff19166002179055426005820155600181015460009061114890611a5f565b60408051610100810182528254815260018301546001600160a01b0390811660208301526002840154928201929092526003830154606082015260048301549091166080820152600582015460a082015260068201805491929160c0840191906111b19061243d565b80601f01602080910402602001604051908101604052809291908181526020018280546111dd9061243d565b801561122a5780601f106111ff5761010080835404028352916020019161122a565b820191906000526020600020905b81548152906001019060200180831161120d57829003601f168201915b50505091835250506007919091015460ff90811615156020928301528454918301516002860154604085015160068801549596506112789592936001600160a01b0390921692909116611810565b600282015482548251604051600081526001600160a01b03909316927f8dec8b8dd1b2fe4f598080d5307d230fb514013cea4d7527d3a81b9ad2d29e449060200160405180910390a450505050565b600154604080518082019091526011815270155b985d5d1a1bdc9a5e99590818d85b1b607a1b60208201526000916001600160a01b0316331461131d5760405162461bcd60e51b81526004016102e5919061242a565b506000611328611df8565b8084529050826113366117ec565b6000838152602091825260409081902083518155918301516001830180546001600160a01b03199081166001600160a01b0393841617909155918401516002840155606084015160038401556080840151600484018054909316911617905560a0820151600582015560c082015160068201906113b39082612518565b5060e091909101516007909101805460ff191691151591909117905560208301516113de9034611d9c565b82602001516001600160a01b0316817f4166341f02fe3a22be876be670b58295229a42b375600de72372efced0541d038560405161141c91906121af565b60405180910390a390505b919050565b600154604080518082019091526011815270155b985d5d1a1bdc9a5e99590818d85b1b607a1b6020820152906001600160a01b031633146114805760405162461bcd60e51b81526004016102e5919061242a565b50611489611e23565b600061149482611774565b90506000600682015460ff1660058111156114b1576114b16120df565b146114ce5760405162461bcd60e51b81526004016102e590612471565b60006114dd8260010154611a5f565b60408051610100810182528254815260018301546001600160a01b0390811660208301526002840154928201929092526003830154606082015260048301549091166080820152600582015460a082015260068201805491929160c0840191906115469061243d565b80601f01602080910402602001604051908101604052809291908181526020018280546115729061243d565b80156115bf5780601f10611594576101008083540402835291602001916115bf565b820191906000526020600020905b8154815290600101906020018083116115a257829003601f168201915b50505091835250506007919091015460ff1615156020918201528181015160408051808201909152601981527829b2b63632b91036bab9ba103132903a34329031b0b63632b960391b92810192909252919250906001600160a01b0386811691161461163e5760405162461bcd60e51b81526004016102e5919061242a565b506003820154421180156116f05760068301805460ff1916600290811790915542600585015583546020840151828601546040860151611689946001600160a01b0390921691611810565b34156116a2576116a26001600160a01b03861634611bc3565b600283015483548351604051600181526001600160a01b03909316927f8dec8b8dd1b2fe4f598080d5307d230fb514013cea4d7527d3a81b9ad2d29e449060200160405180910390a4611767565b60068301805460ff19166001908117909155426005850155835460208401516002860154604086015161172e946001600160a01b0390921691611810565b81516040516001600160a01b0387169186917f1d07c9bd27f4d10b94a6f6b5bf93f8e2a369f48f90ea146909eefc0fa2a4289e90600090a45b505050610c2b6001600055565b60008061177f6117ec565b600084815260019190910160205260409020915061179c83611d65565b92509050806117e65760405162461bcd60e51b8152602060048201526016602482015275115e18da185b99d948191bd95cdb89dd08195e1a5cdd60521b60448201526064016102e5565b50919050565b7fc06702e3e73f0bcfe4234b77daf9a9e45825ed672bfa96c4c8d7aaeb4e173ac990565b6002546040516315cf966160e31b8152600481018790526001600160a01b039091169063ae7cb30890602401600060405180830381600087803b15801561185657600080fd5b505af115801561186a573d6000803e3d6000fd5b5060029250611877915050565b816005811115611889576118896120df565b0361194057600061189b8360c8611e7c565b90506118a8848683611e9c565b60006118b482856125d8565b9050816118bf6117ec565b6001016000886001600160a01b03166001600160a01b0316815260200190815260200160002060008282546118f491906124b7565b909155508190506119036117ec565b6001016000876001600160a01b03166001600160a01b03168152602001908152602001600020600082825461193891906124b7565b909155505050505b6001816005811115611954576119546120df565b036119c75760006119668360c8611e7c565b9050611973858583611e9c565b600061197f82856124b7565b90508061198a6117ec565b6001016000876001600160a01b03166001600160a01b0316815260200190815260200160002060008282546119bf91906124b7565b909155505050505b60048160058111156119db576119db6120df565b03610a485760006119ee8361012c611e7c565b90506119fb848685611e9c565b611a058582611f76565b6000611a1182856125d8565b905080611a1c6117ec565b6001016000886001600160a01b03166001600160a01b031681526020019081526020016000206000828254611a5191906124b7565b909155505050505050505050565b600080611a6a6117ec565b600084815260209190915260409020805490925015801590611a8c5750815483145b9050806117e65760405162461bcd60e51b815260206004820152601360248201527213d999995c88191bd95cdb89dd08195e1a5cdd606a1b60448201526064016102e5565b6000611adb6117ec565b6001600160a01b038316600090815260019190910160205260408120549150611b026117ec565b6001600160a01b03841660009081526020919091526040902054905081811015611b645760405162461bcd60e51b8152602060048201526013602482015272496e73756666696369656e742066756e64732160681b60448201526064016102e5565b81611b6d6117ec565b6001600160a01b0385166000908152602091909152604081208054909190611b969084906125d8565b90915550829050611ba56117ec565b6003016000828254611bb791906125d8565b90915550919392505050565b80471015611c135760405162461bcd60e51b815260206004820152601d60248201527f416464726573733a20696e73756666696369656e742062616c616e636500000060448201526064016102e5565b6000826001600160a01b03168260405160006040518083038185875af1925050503d8060008114611c60576040519150601f19603f3d011682016040523d82523d6000602084013e611c65565b606091505b5050905080611cdc5760405162461bcd60e51b815260206004820152603a60248201527f416464726573733a20756e61626c6520746f2073656e642076616c75652c207260448201527f6563697069656e74206d6179206861766520726576657274656400000000000060648201526084016102e5565b505050565b6000611cec82611a5f565b600781015490915060ff16156114275760405162461bcd60e51b815260206004820152600d60248201526c13d999995c881a5cc81d9bda59609a1b60448201526064016102e5565b6000611d3e6117ec565b6001018054906000611d4f836125eb565b9190505550611d5c6117ec565b60010154905090565b600080611d706117ec565b600084815260019190910160205260409020805490915015801590611d955750805483145b9150915091565b80611da56117ec565b6001600160a01b0384166000908152602091909152604081208054909190611dce9084906124b7565b90915550819050611ddd6117ec565b6003016000828254611def91906124b7565b90915550505050565b6000611e026117ec565b8054906000611e10836125eb565b9190505550611e1d6117ec565b54919050565b600260005403611e755760405162461bcd60e51b815260206004820152601f60248201527f5265656e7472616e637947756172643a207265656e7472616e742063616c6c0060448201526064016102e5565b6002600055565b6000612710611e8b8385612604565b611e959190612623565b9392505050565b80611ea56117ec565b6001600160a01b038516600090815260209190915260409020541015611f025760405162461bcd60e51b8152602060048201526012602482015271496e73756666696369656e742066756e647360701b60448201526064016102e5565b80611f0b6117ec565b6001600160a01b0385166000908152602091909152604081208054909190611f349084906125d8565b90915550819050611f436117ec565b6001600160a01b0384166000908152602091909152604081208054909190611f6c9084906124b7565b9091555050505050565b80611f7f6117ec565b6001600160a01b038416600090815260209190915260409020541015611fdc5760405162461bcd60e51b8152602060048201526012602482015271496e73756666696369656e742066756e647360701b60448201526064016102e5565b80611fe56117ec565b6001600160a01b038416600090815260209190915260408120805490919061200e9084906125d8565b9091555081905061201d6117ec565b6002016000828254611def91906124b7565b6040518060e00160405280600081526020016000815260200160006001600160a01b0316815260200160008152602001600081526020016000815260200160006005811115612080576120806120df565b905290565b80356001600160a01b038116811461142757600080fd5b600080604083850312156120af57600080fd5b6120b883612085565b946020939093013593505050565b6000602082840312156120d857600080fd5b5035919050565b634e487b7160e01b600052602160045260246000fd5b81518152602080830151908201526040808301516001600160a01b031690820152606080830151908201526080808301519082015260a0808301519082015260c082015160e08201906006811061215c57634e487b7160e01b600052602160045260246000fd5b8060c08401525092915050565b6000815180845260005b8181101561218f57602081850181015186830182015201612173565b506000602082860101526020601f19601f83011685010191505092915050565b60208152815160208201526000602083015160018060a01b03808216604085015260408501516060850152606085015160808501528060808601511660a0850152505060a083015160c083015260c08301516101008060e0850152612218610120850183612169565b915060e085015161222c8286018215159052565b5090949350505050565b6000806040838503121561224957600080fd5b61225283612085565b915061226060208401612085565b90509250929050565b60006020828403121561227b57600080fd5b611e9582612085565b634e487b7160e01b600052604160045260246000fd5b604051610100810167ffffffffffffffff811182821017156122be576122be612284565b60405290565b600082601f8301126122d557600080fd5b813567ffffffffffffffff808211156122f0576122f0612284565b604051601f8301601f19908116603f0116810190828211818310171561231857612318612284565b8160405283815286602085880101111561233157600080fd5b836020870160208301376000602085830101528094505050505092915050565b8035801515811461142757600080fd5b60006020828403121561237357600080fd5b813567ffffffffffffffff8082111561238b57600080fd5b9083019061010082860312156123a057600080fd5b6123a861229a565b823581526123b860208401612085565b602082015260408301356040820152606083013560608201526123dd60808401612085565b608082015260a083013560a082015260c0830135828111156123fe57600080fd5b61240a878286016122c4565b60c08301525061241c60e08401612351565b60e082015295945050505050565b602081526000611e956020830184612169565b600181811c9082168061245157607f821691505b6020821081036117e657634e487b7160e01b600052602260045260246000fd5b6020808252601690820152754e6f7420696e20636f6d6d697474656420737461746560501b604082015260600190565b634e487b7160e01b600052601160045260246000fd5b80820180821115611021576110216124a1565b601f821115611cdc57600081815260208120601f850160051c810160208610156124f15750805b601f850160051c820191505b81811015612510578281556001016124fd565b505050505050565b815167ffffffffffffffff81111561253257612532612284565b61254681612540845461243d565b846124ca565b602080601f83116001811461257b57600084156125635750858301515b600019600386901b1c1916600185901b178555612510565b600085815260208120601f198616915b828110156125aa5788860151825594840194600190910190840161258b565b50858210156125c85787850151600019600388901b60f8161c191681555b5050505050600190811b01905550565b81810381811115611021576110216124a1565b6000600182016125fd576125fd6124a1565b5060010190565b600081600019048311821515161561261e5761261e6124a1565b500290565b60008261264057634e487b7160e01b600052601260045260246000fd5b50049056fea26469706673582212201485392f4aa1348b461c7586f6df9237a636cbf5aaf315bc6fd2d34431ff479164736f6c63430008100033",
    "linkReferences": {}
  },
  "methodIdentifiers": {
    "cancel(address,uint256)": "98590ef9",
    "commit(address,uint256)": "84bf1535",
    "createOffer((uint256,address,uint256,uint256,address,uint256,string,bool))": "c01fd3f7",
    "finalize(address,uint256)": "0553e156",
    "getEscrowBalance(address)": "6374b11b",
    "getExchange(uint256)": "0b9d5847",
    "getOffer(uint256)": "4579268a",
    "getProtocolBalance()": "14e7c922",
    "initialize(address,address)": "485cc955",
    "redeem(address,uint256)": "1e9a6950",
    "revoke(address,uint256)": "eac449d9",
    "voidOffer(address,uint256)": "7c580570",
    "withdraw(address)": "51cff8d9"
  },
  "id": 37
}