{
  "abi": [
    {
      "inputs": [
        {
          "internalType": "address",
          "name": "_router",
          "type": "address"
        },
        {
          "internalType": "address",
          "name": "_funds",
          "type": "address"
        },
        {
          "internalType": "address",
          "name": "_voucher",
          "type": "address"
        }
      ],
      "stateMutability": "nonpayable",
      "type": "constructor"
    },
    {
      "anonymous": false,
      "inputs": [
        {
          "indexed": true,
          "internalType": "uint256",
          "name": "offerId",
          "type": "uint256"
        },
        {
          "indexed": true,
          "internalType": "uint256",
          "name": "exchangeId",
          "type": "uint256"
        },
        {
          "indexed": true,
          "internalType": "address",
          "name": "buyer",
          "type": "address"
        },
        {
          "indexed": false,
          "internalType": "bool",
          "name": "timerExpired",
          "type": "bool"
        }
      ],
      "name": "OfferCanceled",
      "type": "event"
    },
    {
      "anonymous": false,
      "inputs": [
        {
          "indexed": true,
          "internalType": "uint256",
          "name": "offerId",
          "type": "uint256"
        },
        {
          "indexed": true,
          "internalType": "uint256",
          "name": "exchangeId",
          "type": "uint256"
        },
        {
          "indexed": true,
          "internalType": "address",
          "name": "buyer",
          "type": "address"
        }
      ],
      "name": "OfferCommitted",
      "type": "event"
    },
    {
      "anonymous": false,
      "inputs": [
        {
          "indexed": true,
          "internalType": "uint256",
          "name": "offerId",
          "type": "uint256"
        },
        {
          "indexed": true,
          "internalType": "address",
          "name": "seller",
          "type": "address"
        },
        {
          "components": [
            {
              "internalType": "uint256",
              "name": "id",
              "type": "uint256"
            },
            {
              "internalType": "address",
              "name": "seller",
              "type": "address"
            },
            {
              "internalType": "uint256",
              "name": "price",
              "type": "uint256"
            },
            {
              "internalType": "uint256",
              "name": "quantityAvailable",
              "type": "uint256"
            },
            {
              "internalType": "address",
              "name": "assetToken",
              "type": "address"
            },
            {
              "internalType": "uint256",
              "name": "assetTokenId",
              "type": "uint256"
            },
            {
              "internalType": "string",
              "name": "metadataUri",
              "type": "string"
            },
            {
              "internalType": "bool",
              "name": "voided",
              "type": "bool"
            }
          ],
          "indexed": false,
          "internalType": "struct BionetTypes.Offer",
          "name": "offer",
          "type": "tuple"
        }
      ],
      "name": "OfferCreated",
      "type": "event"
    },
    {
      "anonymous": false,
      "inputs": [
        {
          "indexed": true,
          "internalType": "uint256",
          "name": "offerId",
          "type": "uint256"
        },
        {
          "indexed": true,
          "internalType": "uint256",
          "name": "exchangeId",
          "type": "uint256"
        },
        {
          "indexed": true,
          "internalType": "address",
          "name": "seller",
          "type": "address"
        },
        {
          "indexed": false,
          "internalType": "uint256",
          "name": "timestamp",
          "type": "uint256"
        }
      ],
      "name": "OfferRedeemed",
      "type": "event"
    },
    {
      "anonymous": false,
      "inputs": [
        {
          "indexed": true,
          "internalType": "uint256",
          "name": "offerId",
          "type": "uint256"
        },
        {
          "indexed": true,
          "internalType": "uint256",
          "name": "exchangeId",
          "type": "uint256"
        },
        {
          "indexed": true,
          "internalType": "address",
          "name": "seller",
          "type": "address"
        }
      ],
      "name": "OfferRevoked",
      "type": "event"
    },
    {
      "anonymous": false,
      "inputs": [
        {
          "indexed": true,
          "internalType": "uint256",
          "name": "offerId",
          "type": "uint256"
        },
        {
          "indexed": true,
          "internalType": "address",
          "name": "seller",
          "type": "address"
        }
      ],
      "name": "OfferVoided",
      "type": "event"
    },
    {
      "inputs": [
        {
          "internalType": "address",
          "name": "_buyer",
          "type": "address"
        },
        {
          "internalType": "uint256",
          "name": "_exchangeId",
          "type": "uint256"
        }
      ],
      "name": "cancel",
      "outputs": [],
      "stateMutability": "nonpayable",
      "type": "function"
    },
    {
      "inputs": [
        {
          "internalType": "address",
          "name": "_buyer",
          "type": "address"
        },
        {
          "internalType": "uint256",
          "name": "_offerId",
          "type": "uint256"
        }
      ],
      "name": "commit",
      "outputs": [
        {
          "internalType": "uint256",
          "name": "",
          "type": "uint256"
        }
      ],
      "stateMutability": "payable",
      "type": "function"
    },
    {
      "inputs": [
        {
          "components": [
            {
              "internalType": "uint256",
              "name": "id",
              "type": "uint256"
            },
            {
              "internalType": "address",
              "name": "seller",
              "type": "address"
            },
            {
              "internalType": "uint256",
              "name": "price",
              "type": "uint256"
            },
            {
              "internalType": "uint256",
              "name": "quantityAvailable",
              "type": "uint256"
            },
            {
              "internalType": "address",
              "name": "assetToken",
              "type": "address"
            },
            {
              "internalType": "uint256",
              "name": "assetTokenId",
              "type": "uint256"
            },
            {
              "internalType": "string",
              "name": "metadataUri",
              "type": "string"
            },
            {
              "internalType": "bool",
              "name": "voided",
              "type": "bool"
            }
          ],
          "internalType": "struct BionetTypes.Offer",
          "name": "_offer",
          "type": "tuple"
        }
      ],
      "name": "createOffer",
      "outputs": [
        {
          "internalType": "uint256",
          "name": "",
          "type": "uint256"
        }
      ],
      "stateMutability": "nonpayable",
      "type": "function"
    },
    {
      "inputs": [
        {
          "internalType": "uint256",
          "name": "_exchangeId",
          "type": "uint256"
        }
      ],
      "name": "getExchange",
      "outputs": [
        {
          "internalType": "bool",
          "name": "exists",
          "type": "bool"
        },
        {
          "components": [
            {
              "internalType": "uint256",
              "name": "id",
              "type": "uint256"
            },
            {
              "internalType": "uint256",
              "name": "offerId",
              "type": "uint256"
            },
            {
              "internalType": "address",
              "name": "buyer",
              "type": "address"
            },
            {
              "internalType": "uint256",
              "name": "redeemBy",
              "type": "uint256"
            },
            {
              "internalType": "uint256",
              "name": "disputeBy",
              "type": "uint256"
            },
            {
              "internalType": "uint256",
              "name": "finalizedDate",
              "type": "uint256"
            },
            {
              "internalType": "enum BionetTypes.ExchangeState",
              "name": "state",
              "type": "uint8"
            }
          ],
          "internalType": "struct BionetTypes.Exchange",
          "name": "exchange",
          "type": "tuple"
        }
      ],
      "stateMutability": "view",
      "type": "function"
    },
    {
      "inputs": [
        {
          "internalType": "uint256",
          "name": "_offerId",
          "type": "uint256"
        }
      ],
      "name": "getOffer",
      "outputs": [
        {
          "internalType": "bool",
          "name": "exists",
          "type": "bool"
        },
        {
          "components": [
            {
              "internalType": "uint256",
              "name": "id",
              "type": "uint256"
            },
            {
              "internalType": "address",
              "name": "seller",
              "type": "address"
            },
            {
              "internalType": "uint256",
              "name": "price",
              "type": "uint256"
            },
            {
              "internalType": "uint256",
              "name": "quantityAvailable",
              "type": "uint256"
            },
            {
              "internalType": "address",
              "name": "assetToken",
              "type": "address"
            },
            {
              "internalType": "uint256",
              "name": "assetTokenId",
              "type": "uint256"
            },
            {
              "internalType": "string",
              "name": "metadataUri",
              "type": "string"
            },
            {
              "internalType": "bool",
              "name": "voided",
              "type": "bool"
            }
          ],
          "internalType": "struct BionetTypes.Offer",
          "name": "offer",
          "type": "tuple"
        }
      ],
      "stateMutability": "view",
      "type": "function"
    },
    {
      "inputs": [
        {
          "internalType": "address",
          "name": "_buyer",
          "type": "address"
        },
        {
          "internalType": "uint256",
          "name": "_exchangeId",
          "type": "uint256"
        }
      ],
      "name": "redeem",
      "outputs": [],
      "stateMutability": "nonpayable",
      "type": "function"
    },
    {
      "inputs": [
        {
          "internalType": "address",
          "name": "_caller",
          "type": "address"
        },
        {
          "internalType": "uint256",
          "name": "_exchangeId",
          "type": "uint256"
        }
      ],
      "name": "revoke",
      "outputs": [],
      "stateMutability": "payable",
      "type": "function"
    },
    {
      "inputs": [
        {
          "internalType": "address",
          "name": "_caller",
          "type": "address"
        },
        {
          "internalType": "uint256",
          "name": "_offerId",
          "type": "uint256"
        }
      ],
      "name": "voidOffer",
      "outputs": [],
      "stateMutability": "nonpayable",
      "type": "function"
    }
  ],
  "bytecode": {
    "object": "0x60806040523480156200001157600080fd5b5060405162001de038038062001de0833981016040819052620000349162000099565b6001600055600480546001600160a01b039485166001600160a01b031991821617909155600380549385169382169390931790925560058054919093169116179055620000e3565b80516001600160a01b03811681146200009457600080fd5b919050565b600080600060608486031215620000af57600080fd5b620000ba846200007c565b9250620000ca602085016200007c565b9150620000da604085016200007c565b90509250925092565b611ced80620000f36000396000f3fe60806040526004361061007b5760003560e01c806384bf15351161004e57806384bf15351461012757806398590ef914610148578063c01fd3f714610168578063eac449d91461018857600080fd5b80630b9d5847146100805780631e9a6950146100b75780634579268a146100d95780637c58057014610107575b600080fd5b34801561008c57600080fd5b506100a061009b366004611726565b61019b565b6040516100ae929190611777565b60405180910390f35b3480156100c357600080fd5b506100d76100d23660046117f7565b610239565b005b3480156100e557600080fd5b506100f96100f4366004611726565b61058a565b6040516100ae9291906118e0565b34801561011357600080fd5b506100d76101223660046117f7565b6106d8565b61013a6101353660046117f7565b6107e6565b6040519081526020016100ae565b34801561015457600080fd5b506100d76101633660046117f7565b610b0f565b34801561017457600080fd5b5061013a6101833660046119e0565b610d7b565b6100d76101963660046117f7565b610ede565b60006101a56116d0565b6101ae8361125b565b6040805160e081018252825481526001830154602082015260028301546001600160a01b031691810191909152600382015460608201526004820154608082015260058083015460a08301526006830154839160c084019160ff16908111156102195761021961173f565b600581111561022a5761022a61173f565b90525091959194509092505050565b600454604080518082019091526011815270155b985d5d1a1bdc9a5e99590818d85b1b607a1b6020820152906001600160a01b031633146102965760405162461bcd60e51b815260040161028d9190611aa9565b60405180910390fd5b5060006102a282611280565b6002810154604080518082019091526018815277213abcb2b91036bab9ba103132903a34329031b0b63632b960411b60208201529192506001600160a01b038581169116146103045760405162461bcd60e51b815260040161028d9190611aa9565b50600180820154600090815260066020818152604080842081516101008101835281548152958101546001600160a01b03908116938701939093526002810154918601919091526003810154606086015260048101549091166080850152600581015460a0850152908101805492939260c08401919061038390611abc565b80601f01602080910402602001604051908101604052809291908181526020018280546103af90611abc565b80156103fc5780601f106103d1576101008083540402835291602001916103fc565b820191906000526020600020905b8154815290600101906020018083116103df57829003601f168201915b50505091835250506007919091015460ff1615156020909101526003830154909150421180156104b15760068301805460ff1916600290811790915542600585015583546020840151828601546040860151610463946001600160a01b0390921691611365565b600283015483548351604051600181526001600160a01b03909316927f3728524070f561392104db1b0b27b538073bf2562fd62508c6c89461c8adef1f9060200160405180910390a4610583565b60068301805460ff191660031790556104cd62093a8042611b06565b60048481019190915560055484546040516315cf966160e31b8152928301526001600160a01b03169063ae7cb30890602401600060405180830381600087803b15801561051957600080fd5b505af115801561052d573d6000803e3d6000fd5b5050505081602001516001600160a01b0316836000015483600001517fa092a0156e4aff5a75b2e79af1a089a570e00b0f71fac382a6979529082ed91c4260405161057a91815260200190565b60405180910390a45b5050505050565b604080516101008101825260008082526020820181905291810182905260608082018390526080820183905260a0820183905260c082015260e081018290526105d283611434565b60408051610100810182528254815260018301546001600160a01b0390811660208301526002840154928201929092526003830154606082015260048301549091166080820152600582015460a0820152600682018054839160c084019161063990611abc565b80601f016020809104026020016040519081016040528092919081815260200182805461066590611abc565b80156106b25780601f10610687576101008083540402835291602001916106b2565b820191906000526020600020905b81548152906001019060200180831161069557829003601f168201915b50505091835250506007919091015460ff16151560209091015291959194509092505050565b600454604080518082019091526011815270155b985d5d1a1bdc9a5e99590818d85b1b607a1b6020820152906001600160a01b0316331461072c5760405162461bcd60e51b815260040161028d9190611aa9565b50600061073882611458565b600181015460408051808201909152601981527829b2b63632b91036bab9ba103132903a34329031b0b63632b960391b60208201529192506001600160a01b0385811691161461079b5760405162461bcd60e51b815260040161028d9190611aa9565b5060078101805460ff191660011790556040516001600160a01b0384169083907fcc53b068bf198ba9f8afa109fc3d2f26e276a0b62190ccf736742dc12766251990600090a3505050565b600454604080518082019091526011815270155b985d5d1a1bdc9a5e99590818d85b1b607a1b60208201526000916001600160a01b0316331461083c5760405162461bcd60e51b815260040161028d9190611aa9565b50600061084883611458565b60408051610100810182528254815260018301546001600160a01b0390811660208301526002840154928201929092526003830154606082015260048301549091166080820152600582015460a082015260068201805491929160c0840191906108b190611abc565b80601f01602080910402602001604051908101604052809291908181526020018280546108dd90611abc565b801561092a5780601f106108ff5761010080835404028352916020019161092a565b820191906000526020600020905b81548152906001019060200180831161090d57829003601f168201915b50505091835250506007919091015460ff16151560209182015260408083015181518083019092526012825271496e73756666696369656e742066756e647360701b928201929092529192503410156109965760405162461bcd60e51b815260040161028d9190611aa9565b50600280546001019081905560006109ad8261125b565b838155600181018790556002810180546001600160a01b0319166001600160a01b038a1617905591506109e5905062093a8042611b06565b60038281019190915560068201805460ff191690555460405163325b574b60e21b81526001600160a01b03888116600483015234602483018190526044830189905292169163c96d5d2c916064016000604051808303818588803b158015610a4c57600080fd5b505af1158015610a60573d6000803e3d6000fd5b5050600554604051638da75e5760e01b81526001600160a01b038b81166004830152602482018890529091169350638da75e5792506044019050600060405180830381600087803b158015610ab457600080fd5b505af1158015610ac8573d6000803e3d6000fd5b50505050856001600160a01b031682867f654634dc6bb76f43df07617a24f78d569354c7bc637b20878e2aa24d4cd10e0160405160405180910390a4509150505b92915050565b600454604080518082019091526011815270155b985d5d1a1bdc9a5e99590818d85b1b607a1b6020820152906001600160a01b03163314610b635760405162461bcd60e51b815260040161028d9190611aa9565b506000610b6f82611280565b6002810154604080518082019091526018815277213abcb2b91036bab9ba103132903a34329031b0b63632b960411b60208201529192506001600160a01b03858116911614610bd15760405162461bcd60e51b815260040161028d9190611aa9565b506006818101805460ff191660029081179091554260058085019190915560018085015460009081526020858152604080832081516101008101835281548152948101546001600160a01b039081169386019390935295860154908401526003850154606084015260048501541660808301529183015460a082015292820180549193929160c084019190610c6590611abc565b80601f0160208091040260200160405190810160405280929190818152602001828054610c9190611abc565b8015610cde5780601f10610cb357610100808354040283529160200191610cde565b820191906000526020600020905b815481529060010190602001808311610cc157829003601f168201915b50505091835250506007919091015460ff9081161515602092830152845491830151600286015460408501516006880154959650610d2c9592936001600160a01b0390921692909116611365565b600282015482548251604051600081526001600160a01b03909316927f3728524070f561392104db1b0b27b538073bf2562fd62508c6c89461c8adef1f9060200160405180910390a450505050565b600454604080518082019091526011815270155b985d5d1a1bdc9a5e99590818d85b1b607a1b60208201526000916001600160a01b03163314610dd15760405162461bcd60e51b815260040161028d9190611aa9565b506000610de5600180546001019081905590565b80845260008181526006602081815260409283902087518155908701516001820180546001600160a01b03199081166001600160a01b039384161790915593880151600283015560608801516003830155608088015160048301805490951691161790925560a0860151600583015560c0860151929350859290820190610e6c9082611b67565b5060e08201518160070160006101000a81548160ff02191690831515021790555090505082602001516001600160a01b0316817f4166341f02fe3a22be876be670b58295229a42b375600de72372efced0541d0385604051610ece9190611c27565b60405180910390a390505b919050565b600454604080518082019091526011815270155b985d5d1a1bdc9a5e99590818d85b1b607a1b6020820152906001600160a01b03163314610f325760405162461bcd60e51b815260040161028d9190611aa9565b50610f3b6114f6565b6000610f4682611280565b600180820154600090815260066020818152604080842081516101008101835281548152958101546001600160a01b03908116938701939093526002810154918601919091526003810154606086015260048101549091166080850152600581015460a085015290810180549495509193909160c0840191610fc790611abc565b80601f0160208091040260200160405190810160405280929190818152602001828054610ff390611abc565b80156110405780601f1061101557610100808354040283529160200191611040565b820191906000526020600020905b81548152906001019060200180831161102357829003601f168201915b50505091835250506007919091015460ff1615156020918201528181015160408051808201909152601981527829b2b63632b91036bab9ba103132903a34329031b0b63632b960391b92810192909252919250906001600160a01b038681169116146110bf5760405162461bcd60e51b815260040161028d9190611aa9565b506003820154421180156111715760068301805460ff191660029081179091554260058501558354602084015182860154604086015161110a946001600160a01b0390921691611365565b3415611123576111236001600160a01b0386163461154f565b600283015483548351604051600181526001600160a01b03909316927f3728524070f561392104db1b0b27b538073bf2562fd62508c6c89461c8adef1f9060200160405180910390a461124a565b60006111828360400151600161166d565b90508034101560405180604001604052806012815260200171496e73756666696369656e742066756e647360701b815250906111d15760405162461bcd60e51b815260040161028d9190611aa9565b5060068401805460ff191660019081179091554260058601558454602085015160028701546040870151611210946001600160a01b0390921691611365565b82516040516001600160a01b0388169187917f614ff9d9b08448021484bec6b48e48babe23bf5b1fecccf62b9e84a6ce65bfeb90600090a4505b5050506112576001600055565b5050565b60008181526007602052604081208054158015906112795750805483145b9150915091565b60008181526007602052604081208054909190158015906112a15750815483145b90508060405180604001604052806012815260200171115e18da185b99d9481b9bdd08199bdd5b9960721b815250906112ed5760405162461bcd60e51b815260040161028d9190611aa9565b506000600683015460ff1660058111156113095761130961173f565b146040518060400160405280601a81526020017f4d75737420626520696e20434f4d4d49545445442073746174650000000000008152509061135e5760405162461bcd60e51b815260040161028d9190611aa9565b5050919050565b6005546040516315cf966160e31b8152600481018790526001600160a01b039091169063ae7cb30890602401600060405180830381600087803b1580156113ab57600080fd5b505af11580156113bf573d6000803e3d6000fd5b5050600354604051635fbfcc5160e01b81526001600160a01b039091169250635fbfcc5191506113fb9088908890889088908890600401611c3a565b600060405180830381600087803b15801561141557600080fd5b505af1158015611429573d6000803e3d6000fd5b505050505050505050565b60008181526006602052604081208054158015906112795750805483149150915091565b60008061146483611434565b92509050806114ab5760405162461bcd60e51b815260206004820152601360248201527213d999995c88191bd95cdb89dd08195e1a5cdd606a1b604482015260640161028d565b600782015460ff16156114f05760405162461bcd60e51b815260206004820152600d60248201526c13d999995c881a5cc81d9bda59609a1b604482015260640161028d565b50919050565b6002600054036115485760405162461bcd60e51b815260206004820152601f60248201527f5265656e7472616e637947756172643a207265656e7472616e742063616c6c00604482015260640161028d565b6002600055565b8047101561159f5760405162461bcd60e51b815260206004820152601d60248201527f416464726573733a20696e73756666696369656e742062616c616e6365000000604482015260640161028d565b6000826001600160a01b03168260405160006040518083038185875af1925050503d80600081146115ec576040519150601f19603f3d011682016040523d82523d6000602084013e6115f1565b606091505b50509050806116685760405162461bcd60e51b815260206004820152603a60248201527f416464726573733a20756e61626c6520746f2073656e642076616c75652c207260448201527f6563697069656e74206d61792068617665207265766572746564000000000000606482015260840161028d565b505050565b600060028260058111156116835761168361173f565b14806116a05750600182600581111561169e5761169e61173f565b145b15610b09576116b08360c86116b7565b9392505050565b60006127106116c68385611c76565b6116b09190611c95565b6040518060e00160405280600081526020016000815260200160006001600160a01b03168152602001600081526020016000815260200160008152602001600060058111156117215761172161173f565b905290565b60006020828403121561173857600080fd5b5035919050565b634e487b7160e01b600052602160045260246000fd5b6006811061177357634e487b7160e01b600052602160045260246000fd5b9052565b6000610100820190508315158252825160208301526020830151604083015260018060a01b03604084015116606083015260608301516080830152608083015160a083015260a083015160c083015260c08301516117d860e0840182611755565b509392505050565b80356001600160a01b0381168114610ed957600080fd5b6000806040838503121561180a57600080fd5b611813836117e0565b946020939093013593505050565b6000815180845260005b818110156118475760208185018101518683018201520161182b565b506000602082860101526020601f19601f83011685010191505092915050565b600061010082518452602083015160018060a01b0380821660208701526040850151604087015260608501516060870152806080860151166080870152505060a083015160a085015260c08301518160c08601526118c782860182611821565b91505060e0830151151560e08501528091505092915050565b82151581526040602082015260006118fb6040830184611867565b949350505050565b634e487b7160e01b600052604160045260246000fd5b604051610100810167ffffffffffffffff8111828210171561193d5761193d611903565b60405290565b600082601f83011261195457600080fd5b813567ffffffffffffffff8082111561196f5761196f611903565b604051601f8301601f19908116603f0116810190828211818310171561199757611997611903565b816040528381528660208588010111156119b057600080fd5b836020870160208301376000602085830101528094505050505092915050565b80358015158114610ed957600080fd5b6000602082840312156119f257600080fd5b813567ffffffffffffffff80821115611a0a57600080fd5b908301906101008286031215611a1f57600080fd5b611a27611919565b82358152611a37602084016117e0565b60208201526040830135604082015260608301356060820152611a5c608084016117e0565b608082015260a083013560a082015260c083013582811115611a7d57600080fd5b611a8987828601611943565b60c083015250611a9b60e084016119d0565b60e082015295945050505050565b6020815260006116b06020830184611821565b600181811c90821680611ad057607f821691505b6020821081036114f057634e487b7160e01b600052602260045260246000fd5b634e487b7160e01b600052601160045260246000fd5b80820180821115610b0957610b09611af0565b601f82111561166857600081815260208120601f850160051c81016020861015611b405750805b601f850160051c820191505b81811015611b5f57828155600101611b4c565b505050505050565b815167ffffffffffffffff811115611b8157611b81611903565b611b9581611b8f8454611abc565b84611b19565b602080601f831160018114611bca5760008415611bb25750858301515b600019600386901b1c1916600185901b178555611b5f565b600085815260208120601f198616915b82811015611bf957888601518255948401946001909101908401611bda565b5085821015611c175787850151600019600388901b60f8161c191681555b5050505050600190811b01905550565b6020815260006116b06020830184611867565b8581526001600160a01b038581166020830152841660408201526060810183905260a08101611c6c6080830184611755565b9695505050505050565b6000816000190483118215151615611c9057611c90611af0565b500290565b600082611cb257634e487b7160e01b600052601260045260246000fd5b50049056fea264697066735822122017556401deaf480cd60d0f429caa0b01c372c0b5512bf0cbf4ae7aa19f7a03ff64736f6c63430008100033",
    "linkReferences": {}
  },
  "methodIdentifiers": {
    "cancel(address,uint256)": "98590ef9",
    "commit(address,uint256)": "84bf1535",
    "createOffer((uint256,address,uint256,uint256,address,uint256,string,bool))": "c01fd3f7",
    "getExchange(uint256)": "0b9d5847",
    "getOffer(uint256)": "4579268a",
    "redeem(address,uint256)": "1e9a6950",
    "revoke(address,uint256)": "eac449d9",
    "voidOffer(address,uint256)": "7c580570"
  },
  "id": 36
}