{
  "abi": [
    {
      "anonymous": false,
      "inputs": [
        {
          "indexed": true,
          "internalType": "address",
          "name": "previousOwner",
          "type": "address"
        },
        {
          "indexed": true,
          "internalType": "address",
          "name": "newOwner",
          "type": "address"
        }
      ],
      "name": "OwnershipTransferred",
      "type": "event"
    },
    {
      "inputs": [
        {
          "internalType": "uint256",
          "name": "_exchangeId",
          "type": "uint256"
        }
      ],
      "name": "cancel",
      "outputs": [],
      "stateMutability": "nonpayable",
      "type": "function"
    },
    {
      "inputs": [
        {
          "internalType": "uint256",
          "name": "_offerId",
          "type": "uint256"
        }
      ],
      "name": "commit",
      "outputs": [
        {
          "internalType": "uint256",
          "name": "exchangeId",
          "type": "uint256"
        }
      ],
      "stateMutability": "payable",
      "type": "function"
    },
    {
      "inputs": [
        {
          "components": [
            {
              "internalType": "uint256",
              "name": "id",
              "type": "uint256"
            },
            {
              "internalType": "address",
              "name": "seller",
              "type": "address"
            },
            {
              "internalType": "uint256",
              "name": "price",
              "type": "uint256"
            },
            {
              "internalType": "uint256",
              "name": "quantityAvailable",
              "type": "uint256"
            },
            {
              "internalType": "address",
              "name": "assetToken",
              "type": "address"
            },
            {
              "internalType": "uint256",
              "name": "assetTokenId",
              "type": "uint256"
            },
            {
              "internalType": "string",
              "name": "metadataUri",
              "type": "string"
            },
            {
              "internalType": "bool",
              "name": "voided",
              "type": "bool"
            }
          ],
          "internalType": "struct BionetTypes.Offer",
          "name": "_offer",
          "type": "tuple"
        }
      ],
      "name": "createOffer",
      "outputs": [
        {
          "internalType": "uint256",
          "name": "offerId",
          "type": "uint256"
        }
      ],
      "stateMutability": "payable",
      "type": "function"
    },
    {
      "inputs": [
        {
          "internalType": "address",
          "name": "_account",
          "type": "address"
        }
      ],
      "name": "escrowBalance",
      "outputs": [
        {
          "internalType": "uint256",
          "name": "bal",
          "type": "uint256"
        }
      ],
      "stateMutability": "view",
      "type": "function"
    },
    {
      "inputs": [
        {
          "internalType": "uint256",
          "name": "_price",
          "type": "uint256"
        }
      ],
      "name": "estimateSellerDeposit",
      "outputs": [
        {
          "internalType": "uint256",
          "name": "amt",
          "type": "uint256"
        }
      ],
      "stateMutability": "pure",
      "type": "function"
    },
    {
      "inputs": [
        {
          "internalType": "uint256",
          "name": "_exchangeId",
          "type": "uint256"
        }
      ],
      "name": "finalize",
      "outputs": [],
      "stateMutability": "nonpayable",
      "type": "function"
    },
    {
      "inputs": [
        {
          "internalType": "address",
          "name": "_exchange",
          "type": "address"
        }
      ],
      "name": "initialize",
      "outputs": [],
      "stateMutability": "nonpayable",
      "type": "function"
    },
    {
      "inputs": [],
      "name": "owner",
      "outputs": [
        {
          "internalType": "address",
          "name": "",
          "type": "address"
        }
      ],
      "stateMutability": "view",
      "type": "function"
    },
    {
      "inputs": [
        {
          "internalType": "uint256",
          "name": "_exchangeId",
          "type": "uint256"
        }
      ],
      "name": "redeem",
      "outputs": [],
      "stateMutability": "nonpayable",
      "type": "function"
    },
    {
      "inputs": [],
      "name": "renounceOwnership",
      "outputs": [],
      "stateMutability": "nonpayable",
      "type": "function"
    },
    {
      "inputs": [
        {
          "internalType": "uint256",
          "name": "_exchangeId",
          "type": "uint256"
        }
      ],
      "name": "revoke",
      "outputs": [],
      "stateMutability": "payable",
      "type": "function"
    },
    {
      "inputs": [
        {
          "internalType": "address",
          "name": "newOwner",
          "type": "address"
        }
      ],
      "name": "transferOwnership",
      "outputs": [],
      "stateMutability": "nonpayable",
      "type": "function"
    },
    {
      "inputs": [
        {
          "internalType": "uint256",
          "name": "_offerId",
          "type": "uint256"
        }
      ],
      "name": "voidOffer",
      "outputs": [],
      "stateMutability": "nonpayable",
      "type": "function"
    },
    {
      "inputs": [],
      "name": "withdraw",
      "outputs": [],
      "stateMutability": "nonpayable",
      "type": "function"
    }
  ],
  "bytecode": {
    "object": "0x608060405234801561001057600080fd5b5061001a3361001f565b61006f565b600080546001600160a01b038381166001600160a01b0319831681178455604051919092169283917f8be0079c531659141344cd1fd0a4f28419497f9722a3daafe3b4186f6b6457e09190a35050565b6112298061007e6000396000f3fe6080604052600436106100dd5760003560e01c8063715018a61161007f578063c4d66de811610059578063c4d66de81461020f578063db006a751461024c578063f2fde38b1461026c578063f4f98ad51461028c57600080fd5b8063715018a6146101bf5780638da5cb5b146101d4578063c01fd3f7146101fc57600080fd5b806340e58ee5116100bb57806340e58ee51461012c5780634915907b1461014c57806355af63531461016c578063593005851461019f57600080fd5b806305261aea146100e257806320c5429b146101045780633ccfd60b14610117575b600080fd5b3480156100ee57600080fd5b506101026100fd366004610e64565b61029f565b005b610102610112366004610e64565b610351565b34801561012357600080fd5b506101026103fb565b34801561013857600080fd5b50610102610147366004610e64565b61049b565b34801561015857600080fd5b50610102610167366004610e64565b610513565b34801561017857600080fd5b5061018c610187366004610e99565b61058b565b6040519081526020015b60405180910390f35b3480156101ab57600080fd5b5061018c6101ba366004610e64565b610643565b3480156101cb57600080fd5b5061010261064e565b3480156101e057600080fd5b506000546040516001600160a01b039091168152602001610196565b61018c61020a366004610f9a565b610662565b34801561021b57600080fd5b5061010261022a366004610e99565b600180546001600160a01b0319166001600160a01b0392909216919091179055565b34801561025857600080fd5b50610102610267366004610e64565b610b09565b34801561027857600080fd5b50610102610287366004610e99565b610b81565b61018c61029a366004610e64565b610bfa565b60408051808201909152600b81526a426164204164647265737360a81b6020820152336102e85760405162461bcd60e51b81526004016102df91906110a9565b60405180910390fd5b506001546040516302a9f0ab60e11b8152336004820152602481018390526001600160a01b0390911690630553e156906044015b600060405180830381600087803b15801561033657600080fd5b505af115801561034a573d6000803e3d6000fd5b5050505050565b60408051808201909152600b81526a426164204164647265737360a81b6020820152336103915760405162461bcd60e51b81526004016102df91906110a9565b5060015460405163eac449d960e01b8152336004820152602481018390526001600160a01b039091169063eac449d99034906044016000604051808303818588803b1580156103df57600080fd5b505af11580156103f3573d6000803e3d6000fd5b505050505050565b60408051808201909152600b81526a426164204164647265737360a81b60208201523361043b5760405162461bcd60e51b81526004016102df91906110a9565b506001546040516351cff8d960e01b81523360048201526001600160a01b03909116906351cff8d990602401600060405180830381600087803b15801561048157600080fd5b505af1158015610495573d6000803e3d6000fd5b50505050565b60408051808201909152600b81526a426164204164647265737360a81b6020820152336104db5760405162461bcd60e51b81526004016102df91906110a9565b506001546040516398590ef960e01b8152336004820152602481018390526001600160a01b03909116906398590ef99060440161031c565b60408051808201909152600b81526a426164204164647265737360a81b6020820152336105535760405162461bcd60e51b81526004016102df91906110a9565b506001546040516307c5805760e41b8152336004820152602481018390526001600160a01b0390911690637c5805709060440161031c565b60408051808201909152600b81526a426164204164647265737360a81b6020820152600090336105ce5760405162461bcd60e51b81526004016102df91906110a9565b50600154604051636374b11b60e01b81526001600160a01b03848116600483015290911690636374b11b90602401602060405180830381865afa158015610619573d6000803e3d6000fd5b505050506040513d601f19601f8201168201806040525081019061063d91906110bc565b92915050565b600061063d82610cb5565b610656610cc2565b6106606000610d1c565b565b60408051808201909152600b81526a426164204164647265737360a81b6020820152600090336106a55760405162461bcd60e51b81526004016102df91906110a9565b5060006106b58360400151610cb5565b9050803410156106fe5760405162461bcd60e51b8152602060048201526014602482015273125b9cdd59999a58da595b9d0819195c1bdcda5d60621b60448201526064016102df565b336001600160a01b031683602001516001600160a01b0316146040518060400160405280601981526020017f53656c6c6572206d757374206265207468652063616c6c6572000000000000008152509061076b5760405162461bcd60e51b81526004016102df91906110a9565b5060008360600151116040518060600160405280602b81526020016111c9602b9139906107ab5760405162461bcd60e51b81526004016102df91906110a9565b50608083015160408051808201909152600b81526a426164204164647265737360a81b6020820152906001600160a01b03166107fa5760405162461bcd60e51b81526004016102df91906110a9565b5060e083015160408051808201909152600f81526e13d999995c881a5cc81d9bda591959608a1b602082015290156108455760405162461bcd60e51b81526004016102df91906110a9565b50600061085d8460800151636cdb3d1360e11b610d6c565b9050806040518060400160405280601a81526020017f4e6f7420612076616c696420617373657420636f6e7472616374000000000000815250906108b45760405162461bcd60e51b81526004016102df91906110a9565b50608084015160a0850151604051627eeac760e11b815233600482015260248101919091526000916001600160a01b03169062fdd58e90604401602060405180830381865afa15801561090b573d6000803e3d6000fd5b505050506040513d601f19601f8201168201806040525081019061092f91906110bc565b905084606001518110156109915760405162461bcd60e51b815260206004820152602360248201527f446f6e2774206f776e20656e6f75676820495020746f6b656e7320746f206f666044820152623332b960e91b60648201526084016102df565b6080850151602086015160015460405163e985e9c560e01b81526001600160a01b0392831660048201529082166024820152600092919091169063e985e9c590604401602060405180830381865afa1580156109f1573d6000803e3d6000fd5b505050506040513d601f19601f82011682018060405250810190610a1591906110d5565b905080610a8a5760405162461bcd60e51b815260206004820152603860248201527f45786368616e6765206d75737420626520617070726f76656420746f2074726160448201527f6e7366657220796f7572204950204e465420746f6b656e73000000000000000060648201526084016102df565b60015460405163c01fd3f760e01b81526001600160a01b039091169063c01fd3f7903490610abc908a906004016110f2565b60206040518083038185885af1158015610ada573d6000803e3d6000fd5b50505050506040513d601f19601f82011682018060405250810190610aff91906110bc565b9695505050505050565b60408051808201909152600b81526a426164204164647265737360a81b602082015233610b495760405162461bcd60e51b81526004016102df91906110a9565b506001546040516301e9a69560e41b8152336004820152602481018390526001600160a01b0390911690631e9a69509060440161031c565b610b89610cc2565b6001600160a01b038116610bee5760405162461bcd60e51b815260206004820152602660248201527f4f776e61626c653a206e6577206f776e657220697320746865207a65726f206160448201526564647265737360d01b60648201526084016102df565b610bf781610d1c565b50565b60408051808201909152600b81526a426164204164647265737360a81b602082015260009033610c3d5760405162461bcd60e51b81526004016102df91906110a9565b506001546040516384bf153560e01b8152336004820152602481018490526001600160a01b03909116906384bf153590349060440160206040518083038185885af1158015610c90573d6000803e3d6000fd5b50505050506040513d601f19601f8201168201806040525081019061063d91906110bc565b600061063d8260c8610d8f565b6000546001600160a01b031633146106605760405162461bcd60e51b815260206004820181905260248201527f4f776e61626c653a2063616c6c6572206973206e6f7420746865206f776e657260448201526064016102df565b600080546001600160a01b038381166001600160a01b0319831681178455604051919092169283917f8be0079c531659141344cd1fd0a4f28419497f9722a3daafe3b4186f6b6457e09190a35050565b6000610d7783610da8565b8015610d885750610d888383610ddb565b9392505050565b6000612710610d9e8385611179565b610d8891906111a6565b6000610dbb826301ffc9a760e01b610ddb565b801561063d5750610dd4826001600160e01b0319610ddb565b1592915050565b604080516001600160e01b03198316602480830191909152825180830390910181526044909101909152602080820180516001600160e01b03166301ffc9a760e01b178152825160009392849283928392918391908a617530fa92503d91506000519050828015610e4d575060208210155b8015610e595750600081115b979650505050505050565b600060208284031215610e7657600080fd5b5035919050565b80356001600160a01b0381168114610e9457600080fd5b919050565b600060208284031215610eab57600080fd5b610d8882610e7d565b634e487b7160e01b600052604160045260246000fd5b604051610100810167ffffffffffffffff81118282101715610eee57610eee610eb4565b60405290565b600082601f830112610f0557600080fd5b813567ffffffffffffffff80821115610f2057610f20610eb4565b604051601f8301601f19908116603f01168101908282118183101715610f4857610f48610eb4565b81604052838152866020858801011115610f6157600080fd5b836020870160208301376000602085830101528094505050505092915050565b8015158114610bf757600080fd5b8035610e9481610f81565b600060208284031215610fac57600080fd5b813567ffffffffffffffff80821115610fc457600080fd5b908301906101008286031215610fd957600080fd5b610fe1610eca565b82358152610ff160208401610e7d565b6020820152604083013560408201526060830135606082015261101660808401610e7d565b608082015260a083013560a082015260c08301358281111561103757600080fd5b61104387828601610ef4565b60c08301525061105560e08401610f8f565b60e082015295945050505050565b6000815180845260005b818110156110895760208185018101518683018201520161106d565b506000602082860101526020601f19601f83011685010191505092915050565b602081526000610d886020830184611063565b6000602082840312156110ce57600080fd5b5051919050565b6000602082840312156110e757600080fd5b8151610d8881610f81565b60208152815160208201526000602083015160018060a01b03808216604085015260408501516060850152606085015160808501528060808601511660a0850152505060a083015160c083015260c08301516101008060e085015261115b610120850183611063565b915060e085015161116f8286018215159052565b5090949350505050565b60008160001904831182151516156111a157634e487b7160e01b600052601160045260246000fd5b500290565b6000826111c357634e487b7160e01b600052601260045260246000fd5b50049056fe5175616e69747920617661696c61626c65206d7573742062652067726561746572207468616e207a65726fa2646970667358221220c0f8694e098d77137874b49f49f21e644cc4d4bb3117e57d57248125e54c42c864736f6c63430008100033",
    "linkReferences": {}
  },
  "methodIdentifiers": {
    "cancel(uint256)": "40e58ee5",
    "commit(uint256)": "f4f98ad5",
    "createOffer((uint256,address,uint256,uint256,address,uint256,string,bool))": "c01fd3f7",
    "escrowBalance(address)": "55af6353",
    "estimateSellerDeposit(uint256)": "59300585",
    "finalize(uint256)": "05261aea",
    "initialize(address)": "c4d66de8",
    "owner()": "8da5cb5b",
    "redeem(uint256)": "db006a75",
    "renounceOwnership()": "715018a6",
    "revoke(uint256)": "20c5429b",
    "transferOwnership(address)": "f2fde38b",
    "voidOffer(uint256)": "4915907b",
    "withdraw()": "3ccfd60b"
  },
  "id": 38
}