{
  "abi": [
    {
      "anonymous": false,
      "inputs": [
        {
          "indexed": true,
          "internalType": "address",
          "name": "previousOwner",
          "type": "address"
        },
        {
          "indexed": true,
          "internalType": "address",
          "name": "newOwner",
          "type": "address"
        }
      ],
      "name": "OwnershipTransferred",
      "type": "event"
    },
    {
      "inputs": [
        {
          "internalType": "uint256",
          "name": "_exchangeId",
          "type": "uint256"
        }
      ],
      "name": "cancel",
      "outputs": [],
      "stateMutability": "nonpayable",
      "type": "function"
    },
    {
      "inputs": [
        {
          "internalType": "uint256",
          "name": "_offerId",
          "type": "uint256"
        }
      ],
      "name": "commit",
      "outputs": [
        {
          "internalType": "uint256",
          "name": "exchangeId",
          "type": "uint256"
        }
      ],
      "stateMutability": "payable",
      "type": "function"
    },
    {
      "inputs": [
        {
          "components": [
            {
              "internalType": "uint256",
              "name": "id",
              "type": "uint256"
            },
            {
              "internalType": "address",
              "name": "seller",
              "type": "address"
            },
            {
              "internalType": "uint256",
              "name": "price",
              "type": "uint256"
            },
            {
              "internalType": "uint256",
              "name": "quantityAvailable",
              "type": "uint256"
            },
            {
              "internalType": "address",
              "name": "assetToken",
              "type": "address"
            },
            {
              "internalType": "uint256",
              "name": "assetTokenId",
              "type": "uint256"
            },
            {
              "internalType": "string",
              "name": "metadataUri",
              "type": "string"
            },
            {
              "internalType": "bool",
              "name": "voided",
              "type": "bool"
            }
          ],
          "internalType": "struct BionetTypes.Offer",
          "name": "_offer",
          "type": "tuple"
        }
      ],
      "name": "createOffer",
      "outputs": [
        {
          "internalType": "uint256",
          "name": "offerId",
          "type": "uint256"
        }
      ],
      "stateMutability": "nonpayable",
      "type": "function"
    },
    {
      "inputs": [
        {
          "internalType": "address",
          "name": "_account",
          "type": "address"
        }
      ],
      "name": "escrowBalance",
      "outputs": [
        {
          "internalType": "uint256",
          "name": "bal",
          "type": "uint256"
        }
      ],
      "stateMutability": "view",
      "type": "function"
    },
    {
      "inputs": [
        {
          "internalType": "uint256",
          "name": "_exchangeId",
          "type": "uint256"
        }
      ],
      "name": "finalize",
      "outputs": [],
      "stateMutability": "nonpayable",
      "type": "function"
    },
    {
      "inputs": [
        {
          "internalType": "address",
          "name": "_funds",
          "type": "address"
        },
        {
          "internalType": "address",
          "name": "_exchange",
          "type": "address"
        }
      ],
      "name": "initialize",
      "outputs": [],
      "stateMutability": "nonpayable",
      "type": "function"
    },
    {
      "inputs": [],
      "name": "owner",
      "outputs": [
        {
          "internalType": "address",
          "name": "",
          "type": "address"
        }
      ],
      "stateMutability": "view",
      "type": "function"
    },
    {
      "inputs": [
        {
          "internalType": "uint256",
          "name": "_exchangeId",
          "type": "uint256"
        }
      ],
      "name": "redeem",
      "outputs": [],
      "stateMutability": "nonpayable",
      "type": "function"
    },
    {
      "inputs": [],
      "name": "renounceOwnership",
      "outputs": [],
      "stateMutability": "nonpayable",
      "type": "function"
    },
    {
      "inputs": [
        {
          "internalType": "uint256",
          "name": "_exchangeId",
          "type": "uint256"
        }
      ],
      "name": "revoke",
      "outputs": [],
      "stateMutability": "payable",
      "type": "function"
    },
    {
      "inputs": [
        {
          "internalType": "address",
          "name": "newOwner",
          "type": "address"
        }
      ],
      "name": "transferOwnership",
      "outputs": [],
      "stateMutability": "nonpayable",
      "type": "function"
    },
    {
      "inputs": [
        {
          "internalType": "uint256",
          "name": "_offerId",
          "type": "uint256"
        }
      ],
      "name": "voidOffer",
      "outputs": [],
      "stateMutability": "nonpayable",
      "type": "function"
    },
    {
      "inputs": [],
      "name": "withdraw",
      "outputs": [],
      "stateMutability": "nonpayable",
      "type": "function"
    }
  ],
  "bytecode": {
    "object": "0x608060405234801561001057600080fd5b5061001a3361001f565b61006f565b600080546001600160a01b038381166001600160a01b0319831681178455604051919092169283917f8be0079c531659141344cd1fd0a4f28419497f9722a3daafe3b4186f6b6457e09190a35050565b61115f8061007e6000396000f3fe6080604052600436106100c25760003560e01c806355af63531161007f578063c01fd3f711610059578063c01fd3f71461020a578063db006a751461022a578063f2fde38b1461024a578063f4f98ad51461026a57600080fd5b806355af63531461019a578063715018a6146101cd5780638da5cb5b146101e257600080fd5b806305261aea146100c757806320c5429b146100e95780633ccfd60b146100fc57806340e58ee514610111578063485cc955146101315780634915907b1461017a575b600080fd5b3480156100d357600080fd5b506100e76100e2366004610db6565b61027d565b005b6100e76100f7366004610db6565b61032f565b34801561010857600080fd5b506100e76103d9565b34801561011d57600080fd5b506100e761012c366004610db6565b610479565b34801561013d57600080fd5b506100e761014c366004610deb565b600180546001600160a01b039384166001600160a01b03199182161790915560028054929093169116179055565b34801561018657600080fd5b506100e7610195366004610db6565b6104f1565b3480156101a657600080fd5b506101ba6101b5366004610e1e565b610569565b6040519081526020015b60405180910390f35b3480156101d957600080fd5b506100e7610621565b3480156101ee57600080fd5b506000546040516001600160a01b0390911681526020016101c4565b34801561021657600080fd5b506101ba610225366004610f1f565b610635565b34801561023657600080fd5b506100e7610245366004610db6565b610a81565b34801561025657600080fd5b506100e7610265366004610e1e565b610af9565b6101ba610278366004610db6565b610b72565b60408051808201909152600b81526a426164204164647265737360a81b6020820152336102c65760405162461bcd60e51b81526004016102bd919061102e565b60405180910390fd5b506002546040516302a9f0ab60e11b8152336004820152602481018390526001600160a01b0390911690630553e156906044015b600060405180830381600087803b15801561031457600080fd5b505af1158015610328573d6000803e3d6000fd5b5050505050565b60408051808201909152600b81526a426164204164647265737360a81b60208201523361036f5760405162461bcd60e51b81526004016102bd919061102e565b5060025460405163eac449d960e01b8152336004820152602481018390526001600160a01b039091169063eac449d99034906044016000604051808303818588803b1580156103bd57600080fd5b505af11580156103d1573d6000803e3d6000fd5b505050505050565b60408051808201909152600b81526a426164204164647265737360a81b6020820152336104195760405162461bcd60e51b81526004016102bd919061102e565b506001546040516351cff8d960e01b81523360048201526001600160a01b03909116906351cff8d990602401600060405180830381600087803b15801561045f57600080fd5b505af1158015610473573d6000803e3d6000fd5b50505050565b60408051808201909152600b81526a426164204164647265737360a81b6020820152336104b95760405162461bcd60e51b81526004016102bd919061102e565b506002546040516398590ef960e01b8152336004820152602481018390526001600160a01b03909116906398590ef9906044016102fa565b60408051808201909152600b81526a426164204164647265737360a81b6020820152336105315760405162461bcd60e51b81526004016102bd919061102e565b506002546040516307c5805760e41b8152336004820152602481018390526001600160a01b0390911690637c580570906044016102fa565b60408051808201909152600b81526a426164204164647265737360a81b6020820152600090336105ac5760405162461bcd60e51b81526004016102bd919061102e565b50600154604051636374b11b60e01b81526001600160a01b03848116600483015290911690636374b11b90602401602060405180830381865afa1580156105f7573d6000803e3d6000fd5b505050506040513d601f19601f8201168201806040525081019061061b9190611041565b92915050565b610629610c2d565b6106336000610c87565b565b60408051808201909152600b81526a426164204164647265737360a81b6020820152600090336106785760405162461bcd60e51b81526004016102bd919061102e565b50336001600160a01b031682602001516001600160a01b0316146040518060400160405280601981526020017f53656c6c6572206d757374206265207468652063616c6c657200000000000000815250906106e65760405162461bcd60e51b81526004016102bd919061102e565b5060008260600151116040518060600160405280602b81526020016110ff602b9139906107265760405162461bcd60e51b81526004016102bd919061102e565b50608082015160408051808201909152600b81526a426164204164647265737360a81b6020820152906001600160a01b03166107755760405162461bcd60e51b81526004016102bd919061102e565b5060e082015160408051808201909152600f81526e13d999995c881a5cc81d9bda591959608a1b602082015290156107c05760405162461bcd60e51b81526004016102bd919061102e565b5060006107d88360800151636cdb3d1360e11b610cd7565b9050806040518060400160405280601a81526020017f4e6f7420612076616c696420617373657420636f6e74726163740000000000008152509061082f5760405162461bcd60e51b81526004016102bd919061102e565b50608083015160a0840151604051627eeac760e11b815233600482015260248101919091526000916001600160a01b03169062fdd58e90604401602060405180830381865afa158015610886573d6000803e3d6000fd5b505050506040513d601f19601f820116820180604052508101906108aa9190611041565b9050836060015181101561090c5760405162461bcd60e51b815260206004820152602360248201527f446f6e2774206f776e20656e6f75676820495020746f6b656e7320746f206f666044820152623332b960e91b60648201526084016102bd565b6080840151602085015160025460405163e985e9c560e01b81526001600160a01b0392831660048201529082166024820152600092919091169063e985e9c590604401602060405180830381865afa15801561096c573d6000803e3d6000fd5b505050506040513d601f19601f82011682018060405250810190610990919061105a565b905080610a055760405162461bcd60e51b815260206004820152603860248201527f45786368616e6765206d75737420626520617070726f76656420746f2074726160448201527f6e7366657220796f7572204950204e465420746f6b656e73000000000000000060648201526084016102bd565b60025460405163c01fd3f760e01b81526001600160a01b039091169063c01fd3f790610a35908890600401611077565b6020604051808303816000875af1158015610a54573d6000803e3d6000fd5b505050506040513d601f19601f82011682018060405250810190610a789190611041565b95945050505050565b60408051808201909152600b81526a426164204164647265737360a81b602082015233610ac15760405162461bcd60e51b81526004016102bd919061102e565b506002546040516301e9a69560e41b8152336004820152602481018390526001600160a01b0390911690631e9a6950906044016102fa565b610b01610c2d565b6001600160a01b038116610b665760405162461bcd60e51b815260206004820152602660248201527f4f776e61626c653a206e6577206f776e657220697320746865207a65726f206160448201526564647265737360d01b60648201526084016102bd565b610b6f81610c87565b50565b60408051808201909152600b81526a426164204164647265737360a81b602082015260009033610bb55760405162461bcd60e51b81526004016102bd919061102e565b506002546040516384bf153560e01b8152336004820152602481018490526001600160a01b03909116906384bf153590349060440160206040518083038185885af1158015610c08573d6000803e3d6000fd5b50505050506040513d601f19601f8201168201806040525081019061061b9190611041565b6000546001600160a01b031633146106335760405162461bcd60e51b815260206004820181905260248201527f4f776e61626c653a2063616c6c6572206973206e6f7420746865206f776e657260448201526064016102bd565b600080546001600160a01b038381166001600160a01b0319831681178455604051919092169283917f8be0079c531659141344cd1fd0a4f28419497f9722a3daafe3b4186f6b6457e09190a35050565b6000610ce283610cfa565b8015610cf35750610cf38383610d2d565b9392505050565b6000610d0d826301ffc9a760e01b610d2d565b801561061b5750610d26826001600160e01b0319610d2d565b1592915050565b604080516001600160e01b03198316602480830191909152825180830390910181526044909101909152602080820180516001600160e01b03166301ffc9a760e01b178152825160009392849283928392918391908a617530fa92503d91506000519050828015610d9f575060208210155b8015610dab5750600081115b979650505050505050565b600060208284031215610dc857600080fd5b5035919050565b80356001600160a01b0381168114610de657600080fd5b919050565b60008060408385031215610dfe57600080fd5b610e0783610dcf565b9150610e1560208401610dcf565b90509250929050565b600060208284031215610e3057600080fd5b610cf382610dcf565b634e487b7160e01b600052604160045260246000fd5b604051610100810167ffffffffffffffff81118282101715610e7357610e73610e39565b60405290565b600082601f830112610e8a57600080fd5b813567ffffffffffffffff80821115610ea557610ea5610e39565b604051601f8301601f19908116603f01168101908282118183101715610ecd57610ecd610e39565b81604052838152866020858801011115610ee657600080fd5b836020870160208301376000602085830101528094505050505092915050565b8015158114610b6f57600080fd5b8035610de681610f06565b600060208284031215610f3157600080fd5b813567ffffffffffffffff80821115610f4957600080fd5b908301906101008286031215610f5e57600080fd5b610f66610e4f565b82358152610f7660208401610dcf565b60208201526040830135604082015260608301356060820152610f9b60808401610dcf565b608082015260a083013560a082015260c083013582811115610fbc57600080fd5b610fc887828601610e79565b60c083015250610fda60e08401610f14565b60e082015295945050505050565b6000815180845260005b8181101561100e57602081850181015186830182015201610ff2565b506000602082860101526020601f19601f83011685010191505092915050565b602081526000610cf36020830184610fe8565b60006020828403121561105357600080fd5b5051919050565b60006020828403121561106c57600080fd5b8151610cf381610f06565b60208152815160208201526000602083015160018060a01b03808216604085015260408501516060850152606085015160808501528060808601511660a0850152505060a083015160c083015260c08301516101008060e08501526110e0610120850183610fe8565b915060e08501516110f48286018215159052565b509094935050505056fe5175616e69747920617661696c61626c65206d7573742062652067726561746572207468616e207a65726fa2646970667358221220462939d5ab95d36a8b0780598998c33fc41c90ea36d44098d57f1498b22a4b9064736f6c63430008100033",
    "linkReferences": {}
  },
  "methodIdentifiers": {
    "cancel(uint256)": "40e58ee5",
    "commit(uint256)": "f4f98ad5",
    "createOffer((uint256,address,uint256,uint256,address,uint256,string,bool))": "c01fd3f7",
    "escrowBalance(address)": "55af6353",
    "finalize(uint256)": "05261aea",
    "initialize(address,address)": "485cc955",
    "owner()": "8da5cb5b",
    "redeem(uint256)": "db006a75",
    "renounceOwnership()": "715018a6",
    "revoke(uint256)": "20c5429b",
    "transferOwnership(address)": "f2fde38b",
    "voidOffer(uint256)": "4915907b",
    "withdraw()": "3ccfd60b"
  },
  "id": 39
}