{
  "abi": [
    {
      "anonymous": false,
      "inputs": [
        {
          "indexed": true,
          "internalType": "uint256",
          "name": "offerId",
          "type": "uint256"
        },
        {
          "indexed": true,
          "internalType": "uint256",
          "name": "exchangeId",
          "type": "uint256"
        },
        {
          "indexed": true,
          "internalType": "address",
          "name": "buyer",
          "type": "address"
        },
        {
          "indexed": false,
          "internalType": "bool",
          "name": "timerExpired",
          "type": "bool"
        }
      ],
      "name": "ExchangeCanceled",
      "type": "event"
    },
    {
      "anonymous": false,
      "inputs": [
        {
          "indexed": true,
          "internalType": "uint256",
          "name": "offerId",
          "type": "uint256"
        },
        {
          "indexed": true,
          "internalType": "uint256",
          "name": "exchangeId",
          "type": "uint256"
        },
        {
          "indexed": false,
          "internalType": "uint256",
          "name": "timestamp",
          "type": "uint256"
        }
      ],
      "name": "ExchangeCompleted",
      "type": "event"
    },
    {
      "anonymous": false,
      "inputs": [
        {
          "indexed": true,
          "internalType": "uint256",
          "name": "offerId",
          "type": "uint256"
        },
        {
          "indexed": true,
          "internalType": "uint256",
          "name": "exchangeId",
          "type": "uint256"
        },
        {
          "indexed": true,
          "internalType": "address",
          "name": "buyer",
          "type": "address"
        }
      ],
      "name": "ExchangeCreated",
      "type": "event"
    },
    {
      "anonymous": false,
      "inputs": [
        {
          "indexed": true,
          "internalType": "uint256",
          "name": "offerId",
          "type": "uint256"
        },
        {
          "indexed": true,
          "internalType": "uint256",
          "name": "exchangeId",
          "type": "uint256"
        },
        {
          "indexed": true,
          "internalType": "address",
          "name": "seller",
          "type": "address"
        }
      ],
      "name": "ExchangeRedeemed",
      "type": "event"
    },
    {
      "anonymous": false,
      "inputs": [
        {
          "indexed": true,
          "internalType": "uint256",
          "name": "offerId",
          "type": "uint256"
        },
        {
          "indexed": true,
          "internalType": "uint256",
          "name": "exchangeId",
          "type": "uint256"
        },
        {
          "indexed": true,
          "internalType": "address",
          "name": "seller",
          "type": "address"
        }
      ],
      "name": "ExchangeRevoked",
      "type": "event"
    },
    {
      "anonymous": false,
      "inputs": [
        {
          "indexed": false,
          "internalType": "uint256",
          "name": "exchangeId",
          "type": "uint256"
        },
        {
          "indexed": false,
          "internalType": "uint256",
          "name": "amount",
          "type": "uint256"
        }
      ],
      "name": "FeeCollected",
      "type": "event"
    },
    {
      "anonymous": false,
      "inputs": [
        {
          "indexed": true,
          "internalType": "uint256",
          "name": "offerId",
          "type": "uint256"
        },
        {
          "indexed": true,
          "internalType": "address",
          "name": "seller",
          "type": "address"
        },
        {
          "components": [
            {
              "internalType": "uint256",
              "name": "id",
              "type": "uint256"
            },
            {
              "internalType": "address",
              "name": "seller",
              "type": "address"
            },
            {
              "internalType": "uint256",
              "name": "price",
              "type": "uint256"
            },
            {
              "internalType": "uint256",
              "name": "quantityAvailable",
              "type": "uint256"
            },
            {
              "internalType": "address",
              "name": "assetToken",
              "type": "address"
            },
            {
              "internalType": "uint256",
              "name": "assetTokenId",
              "type": "uint256"
            },
            {
              "internalType": "string",
              "name": "metadataUri",
              "type": "string"
            },
            {
              "internalType": "bool",
              "name": "voided",
              "type": "bool"
            }
          ],
          "indexed": false,
          "internalType": "struct BionetTypes.Offer",
          "name": "offer",
          "type": "tuple"
        }
      ],
      "name": "OfferCreated",
      "type": "event"
    },
    {
      "anonymous": false,
      "inputs": [
        {
          "indexed": true,
          "internalType": "uint256",
          "name": "offerId",
          "type": "uint256"
        },
        {
          "indexed": true,
          "internalType": "address",
          "name": "seller",
          "type": "address"
        }
      ],
      "name": "OfferVoided",
      "type": "event"
    },
    {
      "anonymous": false,
      "inputs": [
        {
          "indexed": false,
          "internalType": "address",
          "name": "account",
          "type": "address"
        },
        {
          "indexed": false,
          "internalType": "uint256",
          "name": "amount",
          "type": "uint256"
        }
      ],
      "name": "ReleaseEscrow",
      "type": "event"
    },
    {
      "anonymous": false,
      "inputs": [
        {
          "indexed": false,
          "internalType": "address",
          "name": "account",
          "type": "address"
        },
        {
          "indexed": false,
          "internalType": "uint256",
          "name": "amount",
          "type": "uint256"
        }
      ],
      "name": "Withdraw",
      "type": "event"
    },
    {
      "inputs": [
        {
          "internalType": "address",
          "name": "_buyer",
          "type": "address"
        },
        {
          "internalType": "uint256",
          "name": "_exchangeId",
          "type": "uint256"
        }
      ],
      "name": "cancel",
      "outputs": [],
      "stateMutability": "nonpayable",
      "type": "function"
    },
    {
      "inputs": [
        {
          "internalType": "address",
          "name": "_buyer",
          "type": "address"
        },
        {
          "internalType": "uint256",
          "name": "_offerId",
          "type": "uint256"
        }
      ],
      "name": "commit",
      "outputs": [
        {
          "internalType": "uint256",
          "name": "",
          "type": "uint256"
        }
      ],
      "stateMutability": "payable",
      "type": "function"
    },
    {
      "inputs": [
        {
          "components": [
            {
              "internalType": "uint256",
              "name": "id",
              "type": "uint256"
            },
            {
              "internalType": "address",
              "name": "seller",
              "type": "address"
            },
            {
              "internalType": "uint256",
              "name": "price",
              "type": "uint256"
            },
            {
              "internalType": "uint256",
              "name": "quantityAvailable",
              "type": "uint256"
            },
            {
              "internalType": "address",
              "name": "assetToken",
              "type": "address"
            },
            {
              "internalType": "uint256",
              "name": "assetTokenId",
              "type": "uint256"
            },
            {
              "internalType": "string",
              "name": "metadataUri",
              "type": "string"
            },
            {
              "internalType": "bool",
              "name": "voided",
              "type": "bool"
            }
          ],
          "internalType": "struct BionetTypes.Offer",
          "name": "_offer",
          "type": "tuple"
        }
      ],
      "name": "createOffer",
      "outputs": [
        {
          "internalType": "uint256",
          "name": "",
          "type": "uint256"
        }
      ],
      "stateMutability": "payable",
      "type": "function"
    },
    {
      "inputs": [
        {
          "internalType": "address",
          "name": "_buyer",
          "type": "address"
        },
        {
          "internalType": "uint256",
          "name": "_exchangeId",
          "type": "uint256"
        }
      ],
      "name": "finalize",
      "outputs": [],
      "stateMutability": "nonpayable",
      "type": "function"
    },
    {
      "inputs": [
        {
          "internalType": "address",
          "name": "_account",
          "type": "address"
        }
      ],
      "name": "getEscrowBalance",
      "outputs": [
        {
          "internalType": "uint256",
          "name": "bal",
          "type": "uint256"
        }
      ],
      "stateMutability": "view",
      "type": "function"
    },
    {
      "inputs": [
        {
          "internalType": "uint256",
          "name": "_exchangeId",
          "type": "uint256"
        }
      ],
      "name": "getExchange",
      "outputs": [
        {
          "internalType": "bool",
          "name": "exists",
          "type": "bool"
        },
        {
          "components": [
            {
              "internalType": "uint256",
              "name": "id",
              "type": "uint256"
            },
            {
              "internalType": "uint256",
              "name": "offerId",
              "type": "uint256"
            },
            {
              "internalType": "address",
              "name": "buyer",
              "type": "address"
            },
            {
              "internalType": "uint256",
              "name": "redeemBy",
              "type": "uint256"
            },
            {
              "internalType": "uint256",
              "name": "disputeBy",
              "type": "uint256"
            },
            {
              "internalType": "uint256",
              "name": "finalizedDate",
              "type": "uint256"
            },
            {
              "internalType": "enum BionetTypes.ExchangeState",
              "name": "state",
              "type": "uint8"
            }
          ],
          "internalType": "struct BionetTypes.Exchange",
          "name": "exchange",
          "type": "tuple"
        }
      ],
      "stateMutability": "view",
      "type": "function"
    },
    {
      "inputs": [
        {
          "internalType": "uint256",
          "name": "_offerId",
          "type": "uint256"
        }
      ],
      "name": "getOffer",
      "outputs": [
        {
          "internalType": "bool",
          "name": "exists",
          "type": "bool"
        },
        {
          "components": [
            {
              "internalType": "uint256",
              "name": "id",
              "type": "uint256"
            },
            {
              "internalType": "address",
              "name": "seller",
              "type": "address"
            },
            {
              "internalType": "uint256",
              "name": "price",
              "type": "uint256"
            },
            {
              "internalType": "uint256",
              "name": "quantityAvailable",
              "type": "uint256"
            },
            {
              "internalType": "address",
              "name": "assetToken",
              "type": "address"
            },
            {
              "internalType": "uint256",
              "name": "assetTokenId",
              "type": "uint256"
            },
            {
              "internalType": "string",
              "name": "metadataUri",
              "type": "string"
            },
            {
              "internalType": "bool",
              "name": "voided",
              "type": "bool"
            }
          ],
          "internalType": "struct BionetTypes.Offer",
          "name": "offer",
          "type": "tuple"
        }
      ],
      "stateMutability": "view",
      "type": "function"
    },
    {
      "inputs": [],
      "name": "getProtocolBalance",
      "outputs": [
        {
          "internalType": "uint256",
          "name": "bal",
          "type": "uint256"
        }
      ],
      "stateMutability": "view",
      "type": "function"
    },
    {
      "inputs": [
        {
          "internalType": "address",
          "name": "_router",
          "type": "address"
        },
        {
          "internalType": "address",
          "name": "_voucher",
          "type": "address"
        }
      ],
      "name": "initialize",
      "outputs": [],
      "stateMutability": "nonpayable",
      "type": "function"
    },
    {
      "inputs": [
        {
          "internalType": "address",
          "name": "_buyer",
          "type": "address"
        },
        {
          "internalType": "uint256",
          "name": "_exchangeId",
          "type": "uint256"
        }
      ],
      "name": "redeem",
      "outputs": [],
      "stateMutability": "nonpayable",
      "type": "function"
    },
    {
      "inputs": [
        {
          "internalType": "address",
          "name": "_caller",
          "type": "address"
        },
        {
          "internalType": "uint256",
          "name": "_exchangeId",
          "type": "uint256"
        }
      ],
      "name": "revoke",
      "outputs": [],
      "stateMutability": "nonpayable",
      "type": "function"
    },
    {
      "inputs": [
        {
          "internalType": "address",
          "name": "_caller",
          "type": "address"
        },
        {
          "internalType": "uint256",
          "name": "_offerId",
          "type": "uint256"
        }
      ],
      "name": "voidOffer",
      "outputs": [],
      "stateMutability": "nonpayable",
      "type": "function"
    },
    {
      "inputs": [
        {
          "internalType": "address",
          "name": "_account",
          "type": "address"
        }
      ],
      "name": "withdraw",
      "outputs": [],
      "stateMutability": "nonpayable",
      "type": "function"
    }
  ],
  "bytecode": {
    "object": "0x608060405234801561001057600080fd5b506001600055612840806100256000396000f3fe6080604052600436106100c25760003560e01c806351cff8d91161007f57806384bf15351161005957806384bf15351461023a57806398590ef91461024d578063c01fd3f71461026d578063eac449d91461028057600080fd5b806351cff8d9146101da5780636374b11b146101fa5780637c5805701461021a57600080fd5b80630553e156146100c75780630b9d5847146100e957806314e7c922146101205780631e9a6950146101435780634579268a14610163578063485cc95514610191575b600080fd5b3480156100d357600080fd5b506100e76100e236600461220d565b6102a0565b005b3480156100f557600080fd5b50610109610104366004612237565b61063a565b604051610117929190612266565b60405180910390f35b34801561012c57600080fd5b506101356106d8565b604051908152602001610117565b34801561014f57600080fd5b506100e761015e36600461220d565b6106eb565b34801561016f57600080fd5b5061018361017e366004612237565b610a52565b6040516101179291906123a5565b34801561019d57600080fd5b506100e76101ac3660046123c8565b600180546001600160a01b039384166001600160a01b03199182161790915560028054929093169116179055565b3480156101e657600080fd5b506100e76101f53660046123fb565b610ba0565b34801561020657600080fd5b506101356102153660046123fb565b610c61565b34801561022657600080fd5b506100e761023536600461220d565b610c8a565b61013561024836600461220d565b610d98565b34801561025957600080fd5b506100e761026836600461220d565b611059565b61013561027b3660046124f3565b6112f9565b34801561028c57600080fd5b506100e761029b36600461220d565b61145e565b600154604080518082019091526011815270155b985d5d1a1bdc9a5e99590818d85b1b607a1b6020820152906001600160a01b031633146102fd5760405162461bcd60e51b81526004016102f491906125bc565b60405180910390fd5b5061030661178d565b6000610311826117e6565b90506003600682015460ff16600581111561032e5761032e612250565b146103735760405162461bcd60e51b81526020600482015260156024820152744e6f7420696e2072656465656d656420737461746560581b60448201526064016102f4565b600481015460028201544291909111906001600160a01b038581169116148061039e57506001811515145b156105d25760006103b2836001015461185e565b60408051610100810182528254815260018301546001600160a01b0390811660208301526002840154928201929092526003830154606082015260048301549091166080820152600582015460a082015260068201805491929160c08401919061041b906125cf565b80601f0160208091040260200160405190810160405280929190818152602001828054610447906125cf565b80156104945780601f1061046957610100808354040283529160200191610494565b820191906000526020600020905b81548152906001019060200180831161047757829003601f168201915b50505091835250506007919091015460ff16151560209091015260068401805491925060049160ff1916600183021790555042600584015560808101516020820151600285015460a0808501516060860151604051637921219560e11b81526001600160a01b0395861660048201529385166024850152604484019190915260648301526084820152600060a482015291169063f242432a9060c401600060405180830381600087803b15801561054a57600080fd5b505af115801561055e573d6000803e3d6000fd5b505084546020840151600287015460408601516006890154610595965093945091926001600160a01b03909116919060ff166118f6565b825481516040514281527f02ed327deaf2a2cf4fce11e9f7770dd4961b8fa2c6b9c4e894850e7b9980f1e99060200160405180910390a35061062a565b60405162461bcd60e51b815260206004820152602760248201527f4e6f7420617574686f72697a656420746f2066696e616c697a65207468652065604482015266786368616e676560c81b60648201526084016102f4565b50506106366001600055565b5050565b60006106446121a0565b61064d83611c97565b6040805160e081018252825481526001830154602082015260028301546001600160a01b031691810191909152600382015460608201526004820154608082015260058083015460a08301526006830154839160c084019160ff16908111156106b8576106b8612250565b60058111156106c9576106c9612250565b90525091959194509092505050565b60006106e2611cce565b60020154905090565b600154604080518082019091526011815270155b985d5d1a1bdc9a5e99590818d85b1b607a1b6020820152906001600160a01b0316331461073f5760405162461bcd60e51b81526004016102f491906125bc565b50600061074b826117e6565b90506000600682015460ff16600581111561076857610768612250565b146107855760405162461bcd60e51b81526004016102f490612603565b6002810154604080518082019091526018815277213abcb2b91036bab9ba103132903a34329031b0b63632b960411b6020820152906001600160a01b038581169116146107e55760405162461bcd60e51b81526004016102f491906125bc565b5060006107f5826001015461185e565b60408051610100810182528254815260018301546001600160a01b0390811660208301526002840154928201929092526003830154606082015260048301549091166080820152600582015460a082015260068201805491929160c08401919061085e906125cf565b80601f016020809104026020016040519081016040528092919081815260200182805461088a906125cf565b80156108d75780601f106108ac576101008083540402835291602001916108d7565b820191906000526020600020905b8154815290600101906020018083116108ba57829003601f168201915b50505091835250506007919091015460ff16151560209091015260038301549091504211801561098c5760068301805460ff191660029081179091554260058501558354602084015182860154604086015161093e946001600160a01b03909216916118f6565b600283015483548351604051600181526001600160a01b03909316927f8dec8b8dd1b2fe4f598080d5307d230fb514013cea4d7527d3a81b9ad2d29e449060200160405180910390a4610a4b565b60068301805460ff191660031790556109a862093a8042612649565b60048481019190915560025484546040516315cf966160e31b8152928301526001600160a01b03169063ae7cb30890602401600060405180830381600087803b1580156109f457600080fd5b505af1158015610a08573d6000803e3d6000fd5b505050506020820151835483516040516001600160a01b03909316927f6d85f98056eb1b1174809a6b1b86979d2dd943f82456b96e7516f3e29272614e90600090a45b5050505050565b604080516101008101825260008082526020820181905291810182905260608082018390526080820183905260a0820183905260c082015260e08101829052610a9a83611cf2565b60408051610100810182528254815260018301546001600160a01b0390811660208301526002840154928201929092526003830154606082015260048301549091166080820152600582015460a0820152600682018054839160c0840191610b01906125cf565b80601f0160208091040260200160405190810160405280929190818152602001828054610b2d906125cf565b8015610b7a5780601f10610b4f57610100808354040283529160200191610b7a565b820191906000526020600020905b815481529060010190602001808311610b5d57829003601f168201915b50505091835250506007919091015460ff16151560209091015291959194509092505050565b600154604080518082019091526011815270155b985d5d1a1bdc9a5e99590818d85b1b607a1b6020820152906001600160a01b03163314610bf45760405162461bcd60e51b81526004016102f491906125bc565b506000610c0082611d25565b9050801561063657610c1b6001600160a01b03831682611e17565b604080516001600160a01b0384168152602081018390527f884edad9ce6fa2440d8a54cc123490eb96d2768479d49ff9c7366125a9424364910160405180910390a15050565b6000610c6b611cce565b6001600160a01b03909216600090815260209290925250604090205490565b600154604080518082019091526011815270155b985d5d1a1bdc9a5e99590818d85b1b607a1b6020820152906001600160a01b03163314610cde5760405162461bcd60e51b81526004016102f491906125bc565b506000610cea8261185e565b600181015460408051808201909152601981527829b2b63632b91036bab9ba103132903a34329031b0b63632b960391b60208201529192506001600160a01b03858116911614610d4d5760405162461bcd60e51b81526004016102f491906125bc565b5060078101805460ff191660011790556040516001600160a01b0384169083907fcc53b068bf198ba9f8afa109fc3d2f26e276a0b62190ccf736742dc12766251990600090a3505050565b600154604080518082019091526011815270155b985d5d1a1bdc9a5e99590818d85b1b607a1b60208201526000916001600160a01b03163314610dee5760405162461bcd60e51b81526004016102f491906125bc565b506000610dfa8361185e565b60408051610100810182528254815260018301546001600160a01b0390811660208301526002840154928201929092526003830154606082015260048301549091166080820152600582015460a082015260068201805491929160c084019190610e63906125cf565b80601f0160208091040260200160405190810160405280929190818152602001828054610e8f906125cf565b8015610edc5780601f10610eb157610100808354040283529160200191610edc565b820191906000526020600020905b815481529060010190602001808311610ebf57829003601f168201915b50505091835250506007919091015460ff1615156020909101526040810151909150341015610f465760405162461bcd60e51b81526020600482015260166024820152752830b4b2103a37b7903637bb903337b91037b33332b960511b60448201526064016102f4565b6000610f50611f35565b90506000610f5d82611c97565b838155600181018790556002810180546001600160a01b0319166001600160a01b038a161790559150610f95905062093a8042612649565b600382015560068101805460ff19169055610fb08634611f66565b600254604051638da75e5760e01b81526001600160a01b0388811660048301526024820185905290911690638da75e5790604401600060405180830381600087803b158015610ffe57600080fd5b505af1158015611012573d6000803e3d6000fd5b50505050856001600160a01b031682867fdc5c806bd64d78299502a0f0fc0845464d3edb2591af0e47b7876ccdf187993f60405160405180910390a4509150505b92915050565b600154604080518082019091526011815270155b985d5d1a1bdc9a5e99590818d85b1b607a1b6020820152906001600160a01b031633146110ad5760405162461bcd60e51b81526004016102f491906125bc565b5060006110b9826117e6565b6002810154604080518082019091526018815277213abcb2b91036bab9ba103132903a34329031b0b63632b960411b60208201529192506001600160a01b0385811691161461111b5760405162461bcd60e51b81526004016102f491906125bc565b506000600682015460ff16600581111561113757611137612250565b146111545760405162461bcd60e51b81526004016102f490612603565b60068101805460ff19166002179055426005820155600181015460009061117a9061185e565b60408051610100810182528254815260018301546001600160a01b0390811660208301526002840154928201929092526003830154606082015260048301549091166080820152600582015460a082015260068201805491929160c0840191906111e3906125cf565b80601f016020809104026020016040519081016040528092919081815260200182805461120f906125cf565b801561125c5780601f106112315761010080835404028352916020019161125c565b820191906000526020600020905b81548152906001019060200180831161123f57829003601f168201915b50505091835250506007919091015460ff90811615156020928301528454918301516002860154604085015160068801549596506112aa9592936001600160a01b03909216929091166118f6565b600282015482548251604051600081526001600160a01b03909316927f8dec8b8dd1b2fe4f598080d5307d230fb514013cea4d7527d3a81b9ad2d29e449060200160405180910390a450505050565b600154604080518082019091526011815270155b985d5d1a1bdc9a5e99590818d85b1b607a1b60208201526000916001600160a01b0316331461134f5760405162461bcd60e51b81526004016102f491906125bc565b50600061135a611fc2565b808452905082611368611cce565b6000838152602091825260409081902083518155918301516001830180546001600160a01b03199081166001600160a01b0393841617909155918401516002840155606084015160038401556080840151600484018054909316911617905560a0820151600582015560c082015160068201906113e590826126aa565b5060e091909101516007909101805460ff191691151591909117905560208301516114109034611f66565b82602001516001600160a01b0316817f4166341f02fe3a22be876be670b58295229a42b375600de72372efced0541d038560405161144e919061276a565b60405180910390a390505b919050565b600154604080518082019091526011815270155b985d5d1a1bdc9a5e99590818d85b1b607a1b6020820152906001600160a01b031633146114b25760405162461bcd60e51b81526004016102f491906125bc565b506114bb61178d565b60006114c6826117e6565b90506000600682015460ff1660058111156114e3576114e3612250565b146115005760405162461bcd60e51b81526004016102f490612603565b600061150f826001015461185e565b60408051610100810182528254815260018301546001600160a01b0390811660208301526002840154928201929092526003830154606082015260048301549091166080820152600582015460a082015260068201805491929160c084019190611578906125cf565b80601f01602080910402602001604051908101604052809291908181526020018280546115a4906125cf565b80156115f15780601f106115c6576101008083540402835291602001916115f1565b820191906000526020600020905b8154815290600101906020018083116115d457829003601f168201915b50505091835250506007919091015460ff1615156020918201528181015160408051808201909152601981527829b2b63632b91036bab9ba103132903a34329031b0b63632b960391b92810192909252919250906001600160a01b038681169116146116705760405162461bcd60e51b81526004016102f491906125bc565b506003820154421180156117095760068301805460ff19166002908117909155426005850155835460208401518286015460408601516116bb946001600160a01b03909216916118f6565b600283015483548351604051600181526001600160a01b03909316927f8dec8b8dd1b2fe4f598080d5307d230fb514013cea4d7527d3a81b9ad2d29e449060200160405180910390a4611780565b60068301805460ff191660019081179091554260058501558354602084015160028601546040860151611747946001600160a01b03909216916118f6565b81516040516001600160a01b0387169186917f1d07c9bd27f4d10b94a6f6b5bf93f8e2a369f48f90ea146909eefc0fa2a4289e90600090a45b5050506106366001600055565b6002600054036117df5760405162461bcd60e51b815260206004820152601f60248201527f5265656e7472616e637947756172643a207265656e7472616e742063616c6c0060448201526064016102f4565b6002600055565b6000806117f1611cce565b600084815260019190910160205260409020915061180e83611c97565b92509050806118585760405162461bcd60e51b8152602060048201526016602482015275115e18da185b99d948191bd95cdb89dd08195e1a5cdd60521b60448201526064016102f4565b50919050565b60008061186a83611cf2565b92509050806118b15760405162461bcd60e51b815260206004820152601360248201527213d999995c88191bd95cdb89dd08195e1a5cdd606a1b60448201526064016102f4565b600782015460ff16156118585760405162461bcd60e51b815260206004820152600d60248201526c13d999995c881a5cc81d9bda59609a1b60448201526064016102f4565b600281600581111561190a5761190a612250565b03611a8057600061191c8360c8611fed565b905061192984868361200d565b6000611935828561277d565b905081611940611cce565b6001016000886001600160a01b03166001600160a01b0316815260200190815260200160002060008282546119759190612649565b90915550819050611984611cce565b6001016000876001600160a01b03166001600160a01b0316815260200190815260200160002060008282546119b99190612649565b90915550506002546040516315cf966160e31b8152600481018990526001600160a01b039091169063ae7cb30890602401600060405180830381600087803b158015611a0457600080fd5b505af1158015611a18573d6000803e3d6000fd5b5050604080516001600160a01b038a168152602081018690526000805160206127eb833981519152935001905060405180910390a1604080516001600160a01b0387168152602081018390526000805160206127eb833981519152910160405180910390a150505b6001816005811115611a9457611a94612250565b03611b96576000611aa68360c8611fed565b9050611ab385858361200d565b6000611abf8285612649565b905080611aca611cce565b6001016000876001600160a01b03166001600160a01b031681526020019081526020016000206000828254611aff9190612649565b90915550506002546040516315cf966160e31b8152600481018990526001600160a01b039091169063ae7cb30890602401600060405180830381600087803b158015611b4a57600080fd5b505af1158015611b5e573d6000803e3d6000fd5b5050604080516001600160a01b0389168152602081018590526000805160206127eb833981519152935001905060405180910390a150505b6004816005811115611baa57611baa612250565b03610a4b576000611bbd8361012c611fed565b9050611bca84868561200d565b611bd485826120e7565b6000611be0828561277d565b905080611beb611cce565b6001016000886001600160a01b03166001600160a01b031681526020019081526020016000206000828254611c209190612649565b9091555050604080516001600160a01b0388168152602081018390526000805160206127eb833981519152910160405180910390a160408051888152602081018490527faf7c505ee772ec188af7067e1f73db08ab028e3d564273442b907742b9c41fa0910160405180910390a150505050505050565b600080611ca2611cce565b600084815260019190910160205260409020805490915015801590611cc75750805483145b9150915091565b7fc06702e3e73f0bcfe4234b77daf9a9e45825ed672bfa96c4c8d7aaeb4e173ac990565b600080611cfd611cce565b600084815260209190915260409020805490915015801590611cc75750805483149150915091565b6000611d2f611cce565b6001600160a01b038316600090815260019190910160205260408120549150611d56611cce565b6001600160a01b03841660009081526020919091526040902054905081811015611db85760405162461bcd60e51b8152602060048201526013602482015272496e73756666696369656e742066756e64732160681b60448201526064016102f4565b81611dc1611cce565b6001600160a01b0385166000908152602091909152604081208054909190611dea90849061277d565b90915550829050611df9611cce565b6003016000828254611e0b919061277d565b90915550919392505050565b80471015611e675760405162461bcd60e51b815260206004820152601d60248201527f416464726573733a20696e73756666696369656e742062616c616e636500000060448201526064016102f4565b6000826001600160a01b03168260405160006040518083038185875af1925050503d8060008114611eb4576040519150601f19603f3d011682016040523d82523d6000602084013e611eb9565b606091505b5050905080611f305760405162461bcd60e51b815260206004820152603a60248201527f416464726573733a20756e61626c6520746f2073656e642076616c75652c207260448201527f6563697069656e74206d6179206861766520726576657274656400000000000060648201526084016102f4565b505050565b6000611f3f611cce565b6001018054906000611f5083612790565b9190505550611f5d611cce565b60010154905090565b80611f6f611cce565b6001600160a01b0384166000908152602091909152604081208054909190611f98908490612649565b90915550819050611fa7611cce565b6003016000828254611fb99190612649565b90915550505050565b6000611fcc611cce565b8054906000611fda83612790565b9190505550611fe7611cce565b54919050565b6000612710611ffc83856127a9565b61200691906127c8565b9392505050565b80612016611cce565b6001600160a01b0385166000908152602091909152604090205410156120735760405162461bcd60e51b8152602060048201526012602482015271496e73756666696369656e742066756e647360701b60448201526064016102f4565b8061207c611cce565b6001600160a01b03851660009081526020919091526040812080549091906120a590849061277d565b909155508190506120b4611cce565b6001600160a01b03841660009081526020919091526040812080549091906120dd908490612649565b9091555050505050565b806120f0611cce565b6001600160a01b03841660009081526020919091526040902054101561214d5760405162461bcd60e51b8152602060048201526012602482015271496e73756666696369656e742066756e647360701b60448201526064016102f4565b80612156611cce565b6001600160a01b038416600090815260209190915260408120805490919061217f90849061277d565b9091555081905061218e611cce565b6002016000828254611fb99190612649565b6040518060e00160405280600081526020016000815260200160006001600160a01b03168152602001600081526020016000815260200160008152602001600060058111156121f1576121f1612250565b905290565b80356001600160a01b038116811461145957600080fd5b6000806040838503121561222057600080fd5b612229836121f6565b946020939093013593505050565b60006020828403121561224957600080fd5b5035919050565b634e487b7160e01b600052602160045260246000fd5b6000610100820190508315158252825160208301526020830151604083015260018060a01b03604084015116606083015260608301516080830152608083015160a083015260a083015160c083015260c0830151600681106122d857634e487b7160e01b600052602160045260246000fd5b8060e0840152509392505050565b6000815180845260005b8181101561230c576020818501810151868301820152016122f0565b506000602082860101526020601f19601f83011685010191505092915050565b600061010082518452602083015160018060a01b0380821660208701526040850151604087015260608501516060870152806080860151166080870152505060a083015160a085015260c08301518160c086015261238c828601826122e6565b91505060e0830151151560e08501528091505092915050565b82151581526040602082015260006123c0604083018461232c565b949350505050565b600080604083850312156123db57600080fd5b6123e4836121f6565b91506123f2602084016121f6565b90509250929050565b60006020828403121561240d57600080fd5b612006826121f6565b634e487b7160e01b600052604160045260246000fd5b604051610100810167ffffffffffffffff8111828210171561245057612450612416565b60405290565b600082601f83011261246757600080fd5b813567ffffffffffffffff8082111561248257612482612416565b604051601f8301601f19908116603f011681019082821181831017156124aa576124aa612416565b816040528381528660208588010111156124c357600080fd5b836020870160208301376000602085830101528094505050505092915050565b8035801515811461145957600080fd5b60006020828403121561250557600080fd5b813567ffffffffffffffff8082111561251d57600080fd5b90830190610100828603121561253257600080fd5b61253a61242c565b8235815261254a602084016121f6565b6020820152604083013560408201526060830135606082015261256f608084016121f6565b608082015260a083013560a082015260c08301358281111561259057600080fd5b61259c87828601612456565b60c0830152506125ae60e084016124e3565b60e082015295945050505050565b60208152600061200660208301846122e6565b600181811c908216806125e357607f821691505b60208210810361185857634e487b7160e01b600052602260045260246000fd5b6020808252601690820152754e6f7420696e20636f6d6d697474656420737461746560501b604082015260600190565b634e487b7160e01b600052601160045260246000fd5b8082018082111561105357611053612633565b601f821115611f3057600081815260208120601f850160051c810160208610156126835750805b601f850160051c820191505b818110156126a25782815560010161268f565b505050505050565b815167ffffffffffffffff8111156126c4576126c4612416565b6126d8816126d284546125cf565b8461265c565b602080601f83116001811461270d57600084156126f55750858301515b600019600386901b1c1916600185901b1785556126a2565b600085815260208120601f198616915b8281101561273c5788860151825594840194600190910190840161271d565b508582101561275a5787850151600019600388901b60f8161c191681555b5050505050600190811b01905550565b602081526000612006602083018461232c565b8181038181111561105357611053612633565b6000600182016127a2576127a2612633565b5060010190565b60008160001904831182151516156127c3576127c3612633565b500290565b6000826127e557634e487b7160e01b600052601260045260246000fd5b50049056fe13469439acc025e28120c6571a43c956b725cf74227cecb3644c3d1a8cef5f3ea26469706673582212208e2a13a0671d72e930019a3edfb04fb93ed074ba2bf832752af98b2eceb71cab64736f6c63430008100033",
    "linkReferences": {}
  },
  "methodIdentifiers": {
    "cancel(address,uint256)": "98590ef9",
    "commit(address,uint256)": "84bf1535",
    "createOffer((uint256,address,uint256,uint256,address,uint256,string,bool))": "c01fd3f7",
    "finalize(address,uint256)": "0553e156",
    "getEscrowBalance(address)": "6374b11b",
    "getExchange(uint256)": "0b9d5847",
    "getOffer(uint256)": "4579268a",
    "getProtocolBalance()": "14e7c922",
    "initialize(address,address)": "485cc955",
    "redeem(address,uint256)": "1e9a6950",
    "revoke(address,uint256)": "eac449d9",
    "voidOffer(address,uint256)": "7c580570",
    "withdraw(address)": "51cff8d9"
  },
  "id": 36
}