{
  "abi": [
    {
      "anonymous": false,
      "inputs": [
        {
          "indexed": true,
          "internalType": "address",
          "name": "previousOwner",
          "type": "address"
        },
        {
          "indexed": true,
          "internalType": "address",
          "name": "newOwner",
          "type": "address"
        }
      ],
      "name": "OwnershipTransferred",
      "type": "event"
    },
    {
      "inputs": [
        {
          "internalType": "uint256",
          "name": "_exchangeId",
          "type": "uint256"
        }
      ],
      "name": "cancel",
      "outputs": [],
      "stateMutability": "nonpayable",
      "type": "function"
    },
    {
      "inputs": [
        {
          "internalType": "uint256",
          "name": "_offerId",
          "type": "uint256"
        }
      ],
      "name": "commit",
      "outputs": [
        {
          "internalType": "uint256",
          "name": "exchangeId",
          "type": "uint256"
        }
      ],
      "stateMutability": "payable",
      "type": "function"
    },
    {
      "inputs": [
        {
          "components": [
            {
              "internalType": "uint256",
              "name": "id",
              "type": "uint256"
            },
            {
              "internalType": "address",
              "name": "seller",
              "type": "address"
            },
            {
              "internalType": "uint256",
              "name": "price",
              "type": "uint256"
            },
            {
              "internalType": "uint256",
              "name": "quantityAvailable",
              "type": "uint256"
            },
            {
              "internalType": "address",
              "name": "assetToken",
              "type": "address"
            },
            {
              "internalType": "uint256",
              "name": "assetTokenId",
              "type": "uint256"
            },
            {
              "internalType": "string",
              "name": "metadataUri",
              "type": "string"
            },
            {
              "internalType": "bool",
              "name": "voided",
              "type": "bool"
            }
          ],
          "internalType": "struct BionetTypes.Offer",
          "name": "_offer",
          "type": "tuple"
        }
      ],
      "name": "createOffer",
      "outputs": [
        {
          "internalType": "uint256",
          "name": "offerId",
          "type": "uint256"
        }
      ],
      "stateMutability": "payable",
      "type": "function"
    },
    {
      "inputs": [
        {
          "internalType": "uint256",
          "name": "_exchangeId",
          "type": "uint256"
        }
      ],
      "name": "finalize",
      "outputs": [],
      "stateMutability": "nonpayable",
      "type": "function"
    },
    {
      "inputs": [
        {
          "internalType": "address",
          "name": "_account",
          "type": "address"
        }
      ],
      "name": "getAvailableToWithdrawEscrowBalance",
      "outputs": [
        {
          "internalType": "uint256",
          "name": "bal",
          "type": "uint256"
        }
      ],
      "stateMutability": "view",
      "type": "function"
    },
    {
      "inputs": [
        {
          "internalType": "address",
          "name": "_account",
          "type": "address"
        }
      ],
      "name": "getEscrowBalance",
      "outputs": [
        {
          "internalType": "uint256",
          "name": "bal",
          "type": "uint256"
        }
      ],
      "stateMutability": "view",
      "type": "function"
    },
    {
      "inputs": [
        {
          "internalType": "uint256",
          "name": "_exchangeId",
          "type": "uint256"
        }
      ],
      "name": "getExchange",
      "outputs": [
        {
          "internalType": "bool",
          "name": "exists",
          "type": "bool"
        },
        {
          "components": [
            {
              "internalType": "uint256",
              "name": "id",
              "type": "uint256"
            },
            {
              "internalType": "uint256",
              "name": "offerId",
              "type": "uint256"
            },
            {
              "internalType": "address",
              "name": "buyer",
              "type": "address"
            },
            {
              "internalType": "uint256",
              "name": "redeemBy",
              "type": "uint256"
            },
            {
              "internalType": "uint256",
              "name": "disputeBy",
              "type": "uint256"
            },
            {
              "internalType": "uint256",
              "name": "finalizedDate",
              "type": "uint256"
            },
            {
              "internalType": "enum BionetTypes.ExchangeState",
              "name": "state",
              "type": "uint8"
            }
          ],
          "internalType": "struct BionetTypes.Exchange",
          "name": "exchange",
          "type": "tuple"
        }
      ],
      "stateMutability": "view",
      "type": "function"
    },
    {
      "inputs": [
        {
          "internalType": "uint256",
          "name": "_offerId",
          "type": "uint256"
        }
      ],
      "name": "getOffer",
      "outputs": [
        {
          "internalType": "bool",
          "name": "exists",
          "type": "bool"
        },
        {
          "components": [
            {
              "internalType": "uint256",
              "name": "id",
              "type": "uint256"
            },
            {
              "internalType": "address",
              "name": "seller",
              "type": "address"
            },
            {
              "internalType": "uint256",
              "name": "price",
              "type": "uint256"
            },
            {
              "internalType": "uint256",
              "name": "quantityAvailable",
              "type": "uint256"
            },
            {
              "internalType": "address",
              "name": "assetToken",
              "type": "address"
            },
            {
              "internalType": "uint256",
              "name": "assetTokenId",
              "type": "uint256"
            },
            {
              "internalType": "string",
              "name": "metadataUri",
              "type": "string"
            },
            {
              "internalType": "bool",
              "name": "voided",
              "type": "bool"
            }
          ],
          "internalType": "struct BionetTypes.Offer",
          "name": "offer",
          "type": "tuple"
        }
      ],
      "stateMutability": "view",
      "type": "function"
    },
    {
      "inputs": [],
      "name": "getProtocolBalance",
      "outputs": [
        {
          "internalType": "uint256",
          "name": "bal",
          "type": "uint256"
        }
      ],
      "stateMutability": "view",
      "type": "function"
    },
    {
      "inputs": [
        {
          "internalType": "uint256",
          "name": "_price",
          "type": "uint256"
        }
      ],
      "name": "getSellerDeposit",
      "outputs": [
        {
          "internalType": "uint256",
          "name": "amt",
          "type": "uint256"
        }
      ],
      "stateMutability": "pure",
      "type": "function"
    },
    {
      "inputs": [
        {
          "internalType": "address",
          "name": "_exchange",
          "type": "address"
        }
      ],
      "name": "initialize",
      "outputs": [],
      "stateMutability": "nonpayable",
      "type": "function"
    },
    {
      "inputs": [],
      "name": "owner",
      "outputs": [
        {
          "internalType": "address",
          "name": "",
          "type": "address"
        }
      ],
      "stateMutability": "view",
      "type": "function"
    },
    {
      "inputs": [
        {
          "internalType": "uint256",
          "name": "_exchangeId",
          "type": "uint256"
        }
      ],
      "name": "redeem",
      "outputs": [],
      "stateMutability": "nonpayable",
      "type": "function"
    },
    {
      "inputs": [],
      "name": "renounceOwnership",
      "outputs": [],
      "stateMutability": "nonpayable",
      "type": "function"
    },
    {
      "inputs": [
        {
          "internalType": "uint256",
          "name": "_exchangeId",
          "type": "uint256"
        }
      ],
      "name": "revoke",
      "outputs": [],
      "stateMutability": "nonpayable",
      "type": "function"
    },
    {
      "inputs": [
        {
          "internalType": "address",
          "name": "newOwner",
          "type": "address"
        }
      ],
      "name": "transferOwnership",
      "outputs": [],
      "stateMutability": "nonpayable",
      "type": "function"
    },
    {
      "inputs": [
        {
          "internalType": "uint256",
          "name": "_offerId",
          "type": "uint256"
        }
      ],
      "name": "voidOffer",
      "outputs": [],
      "stateMutability": "nonpayable",
      "type": "function"
    },
    {
      "inputs": [],
      "name": "withdraw",
      "outputs": [],
      "stateMutability": "nonpayable",
      "type": "function"
    }
  ],
  "bytecode": {
    "object": "0x608060405234801561001057600080fd5b5061001a3361001f565b61006f565b600080546001600160a01b038381166001600160a01b0319831681178455604051919092169283917f8be0079c531659141344cd1fd0a4f28419497f9722a3daafe3b4186f6b6457e09190a35050565b6117508061007e6000396000f3fe6080604052600436106101095760003560e01c80636374b11b11610095578063c01fd3f711610064578063c01fd3f7146102ca578063c4d66de8146102dd578063db006a751461031a578063f2fde38b1461033a578063f4f98ad51461035a57600080fd5b80636374b11b1461024d578063715018a61461026d57806388106323146102825780638da5cb5b146102a257600080fd5b806333f5737c116100dc57806333f5737c146101aa5780633ccfd60b146101ca57806340e58ee5146101df5780634579268a146101ff5780634915907b1461022d57600080fd5b806305261aea1461010e5780630b9d58471461013057806314e7c9221461016757806320c5429b1461018a575b600080fd5b34801561011a57600080fd5b5061012e6101293660046110ac565b61036d565b005b34801561013c57600080fd5b5061015061014b3660046110ac565b6103fb565b60405161015e9291906110db565b60405180910390f35b34801561017357600080fd5b5061017c61047d565b60405190815260200161015e565b34801561019657600080fd5b5061012e6101a53660046110ac565b6104f0565b3480156101b657600080fd5b5061017c6101c5366004611180565b610544565b3480156101d657600080fd5b5061012e6105d8565b3480156101eb57600080fd5b5061012e6101fa3660046110ac565b610654565b34801561020b57600080fd5b5061021f61021a3660046110ac565b6106a8565b60405161015e929190611259565b34801561023957600080fd5b5061012e6102483660046110ac565b610758565b34801561025957600080fd5b5061017c610268366004611180565b6107ac565b34801561027957600080fd5b5061012e6107fd565b34801561028e57600080fd5b5061017c61029d3660046110ac565b610811565b3480156102ae57600080fd5b506000546040516001600160a01b03909116815260200161015e565b61017c6102d83660046113a7565b61081c565b3480156102e957600080fd5b5061012e6102f8366004611180565b600180546001600160a01b0319166001600160a01b0392909216919091179055565b34801561032657600080fd5b5061012e6103353660046110ac565b610d44565b34801561034657600080fd5b5061012e610355366004611180565b610d98565b61017c6103683660046110ac565b610e11565b336103935760405162461bcd60e51b815260040161038a90611470565b60405180910390fd5b6001546040516302a9f0ab60e11b8152336004820152602481018390526001600160a01b0390911690630553e156906044015b600060405180830381600087803b1580156103e057600080fd5b505af11580156103f4573d6000803e3d6000fd5b5050505050565b6000610405611056565b600154604051630b9d584760e01b8152600481018590526001600160a01b0390911690630b9d58479060240161010060405180830381865afa15801561044f573d6000803e3d6000fd5b505050506040513d601f19601f8201168201806040525081019061047391906114bb565b9094909350915050565b60015460408051630a73e49160e11b815290516000926001600160a01b0316916314e7c9229160048083019260209291908290030181865afa1580156104c7573d6000803e3d6000fd5b505050506040513d601f19601f820116820180604052508101906104eb919061155e565b905090565b3361050d5760405162461bcd60e51b815260040161038a90611470565b60015460405163eac449d960e01b8152336004820152602481018390526001600160a01b039091169063eac449d9906044016103c6565b6000336105635760405162461bcd60e51b815260040161038a90611470565b600154604051630cfd5cdf60e21b81526001600160a01b038481166004830152909116906333f5737c906024015b602060405180830381865afa1580156105ae573d6000803e3d6000fd5b505050506040513d601f19601f820116820180604052508101906105d2919061155e565b92915050565b336105f55760405162461bcd60e51b815260040161038a90611470565b6001546040516351cff8d960e01b81523360048201526001600160a01b03909116906351cff8d990602401600060405180830381600087803b15801561063a57600080fd5b505af115801561064e573d6000803e3d6000fd5b50505050565b336106715760405162461bcd60e51b815260040161038a90611470565b6001546040516398590ef960e01b8152336004820152602481018390526001600160a01b03909116906398590ef9906044016103c6565b604080516101008101825260008082526020820181905291810182905260608082018390526080820183905260a0820183905260c082015260e081018290526001546040516322bc934560e11b8152600481018590526001600160a01b0390911690634579268a90602401600060405180830381865afa158015610730573d6000803e3d6000fd5b505050506040513d6000823e601f3d908101601f1916820160405261047391908101906115bc565b336107755760405162461bcd60e51b815260040161038a90611470565b6001546040516307c5805760e41b8152336004820152602481018390526001600160a01b0390911690637c580570906044016103c6565b6000336107cb5760405162461bcd60e51b815260040161038a90611470565b600154604051636374b11b60e01b81526001600160a01b03848116600483015290911690636374b11b90602401610591565b610805610ea7565b61080f6000610f01565b565b60006105d282610f51565b60003361083b5760405162461bcd60e51b815260040161038a90611470565b600061084a8360400151610f51565b9050803410156108a85760405162461bcd60e51b815260206004820152602360248201527f526f757465723a20496e73756666696369656e742073656c6c6572206465706f6044820152621cda5d60ea1b606482015260840161038a565b60208301516001600160a01b031633146109145760405162461bcd60e51b815260206004820152602760248201527f526f757465723a206f666665722e73656c6c6572206d757374206265207468656044820152661031b0b63632b960c91b606482015260840161038a565b60008360600151116109605760405162461bcd60e51b81526020600482015260156024820152740526f757465723a206f6666657220717479203e203605c1b604482015260640161038a565b60808301516001600160a01b03166109e05760405162461bcd60e51b815260206004820152603760248201527f526f757465723a20417373657420746f6b656e206d757374206861766520612060448201527f76616c6964206164647265737320286e6f742030783029000000000000000000606482015260840161038a565b60e083015115610a3d5760405162461bcd60e51b815260206004820152602260248201527f526f757465723a20746865206f666665722063616e6e6f7420626520766f6964604482015261195960f21b606482015260840161038a565b6000610a548460800151636cdb3d1360e11b610f5e565b905080610ab85760405162461bcd60e51b815260206004820152602c60248201527f526f757465723a20546865206173736574206973206e6f7420616e204552433160448201526b0c4d4d4818dbdb9d1c9858dd60a21b606482015260840161038a565b608084015160a0850151604051627eeac760e11b815233600482015260248101919091526000916001600160a01b03169062fdd58e90604401602060405180830381865afa158015610b0e573d6000803e3d6000fd5b505050506040513d601f19601f82011682018060405250810190610b32919061155e565b90508460600151811015610bbe5760405162461bcd60e51b815260206004820152604760248201527f526f757465723a205468652073656c6c657220646f6573206e6f74206f776e2060448201527f656e6f756768204552433131353520746f6b656e7320666f7220746865206f666064820152666665722071747960c81b608482015260a40161038a565b6080850151602086015160015460405163e985e9c560e01b81526001600160a01b0392831660048201529082166024820152600092919091169063e985e9c590604401602060405180830381865afa158015610c1e573d6000803e3d6000fd5b505050506040513d601f19601f82011682018060405250810190610c42919061169b565b905080610cc55760405162461bcd60e51b815260206004820152604560248201527f526f757465723a205468652065786368616e6765206d7573742062652061707060448201527f726f76656420746f207472616e7366657220796f7572204552433131353520746064820152646f6b656e7360d81b608482015260a40161038a565b60015460405163c01fd3f760e01b81526001600160a01b039091169063c01fd3f7903490610cf7908a906004016116b8565b60206040518083038185885af1158015610d15573d6000803e3d6000fd5b50505050506040513d601f19601f82011682018060405250810190610d3a919061155e565b9695505050505050565b33610d615760405162461bcd60e51b815260040161038a90611470565b6001546040516301e9a69560e41b8152336004820152602481018390526001600160a01b0390911690631e9a6950906044016103c6565b610da0610ea7565b6001600160a01b038116610e055760405162461bcd60e51b815260206004820152602660248201527f4f776e61626c653a206e6577206f776e657220697320746865207a65726f206160448201526564647265737360d01b606482015260840161038a565b610e0e81610f01565b50565b600033610e305760405162461bcd60e51b815260040161038a90611470565b6001546040516384bf153560e01b8152336004820152602481018490526001600160a01b03909116906384bf153590349060440160206040518083038185885af1158015610e82573d6000803e3d6000fd5b50505050506040513d601f19601f820116820180604052508101906105d2919061155e565b6000546001600160a01b0316331461080f5760405162461bcd60e51b815260206004820181905260248201527f4f776e61626c653a2063616c6c6572206973206e6f7420746865206f776e6572604482015260640161038a565b600080546001600160a01b038381166001600160a01b0319831681178455604051919092169283917f8be0079c531659141344cd1fd0a4f28419497f9722a3daafe3b4186f6b6457e09190a35050565b60006105d28260c8610f81565b6000610f6983610f9a565b8015610f7a5750610f7a8383610fcd565b9392505050565b6000612710610f9083856116cb565b610f7a91906116f8565b6000610fad826301ffc9a760e01b610fcd565b80156105d25750610fc6826001600160e01b0319610fcd565b1592915050565b604080516001600160e01b03198316602480830191909152825180830390910181526044909101909152602080820180516001600160e01b03166301ffc9a760e01b178152825160009392849283928392918391908a617530fa92503d9150600051905082801561103f575060208210155b801561104b5750600081115b979650505050505050565b6040518060e00160405280600081526020016000815260200160006001600160a01b03168152602001600081526020016000815260200160008152602001600060058111156110a7576110a76110c5565b905290565b6000602082840312156110be57600080fd5b5035919050565b634e487b7160e01b600052602160045260246000fd5b6000610100820190508315158252825160208301526020830151604083015260018060a01b03604084015116606083015260608301516080830152608083015160a083015260a083015160c083015260c08301516006811061114d57634e487b7160e01b600052602160045260246000fd5b8060e0840152509392505050565b6001600160a01b0381168114610e0e57600080fd5b803561117b8161115b565b919050565b60006020828403121561119257600080fd5b8135610f7a8161115b565b60005b838110156111b85781810151838201526020016111a0565b50506000910152565b600061010082518452602083015160018060a01b0380821660208701526040850151604087015260608501516060870152806080860151166080870152505060a083015160a085015260c08301518160c0860152805180838701526101209250611231818488016020850161119d565b60e0850151915061124660e087018315159052565b601f01601f191694909401019392505050565b821515815260406020820152600061127460408301846111c1565b949350505050565b634e487b7160e01b600052604160045260246000fd5b604051610100810167ffffffffffffffff811182821017156112b6576112b661127c565b60405290565b60405160e0810167ffffffffffffffff811182821017156112b6576112b661127c565b604051601f8201601f1916810167ffffffffffffffff811182821017156113085761130861127c565b604052919050565b600067ffffffffffffffff82111561132a5761132a61127c565b50601f01601f191660200190565b600082601f83011261134957600080fd5b813561135c61135782611310565b6112df565b81815284602083860101111561137157600080fd5b816020850160208301376000918101602001919091529392505050565b8015158114610e0e57600080fd5b803561117b8161138e565b6000602082840312156113b957600080fd5b813567ffffffffffffffff808211156113d157600080fd5b9083019061010082860312156113e657600080fd5b6113ee611292565b823581526113fe60208401611170565b6020820152604083013560408201526060830135606082015261142360808401611170565b608082015260a083013560a082015260c08301358281111561144457600080fd5b61145087828601611338565b60c08301525061146260e0840161139c565b60e082015295945050505050565b6020808252818101527f526f757465723a205a65726f2061646472657373206e6f7420616c6c6f776564604082015260600190565b805161117b8161138e565b805161117b8161115b565b6000808284036101008112156114d057600080fd5b83516114db8161138e565b925060e0601f19820112156114ef57600080fd5b506114f86112bc565b602084015181526040840151602082015260608401516115178161115b565b806040830152506080840151606082015260a0840151608082015260c084015160a082015260e08401516006811061154e57600080fd5b60c0820152919491935090915050565b60006020828403121561157057600080fd5b5051919050565b600082601f83011261158857600080fd5b815161159661135782611310565b8181528460208386010111156115ab57600080fd5b61127482602083016020870161119d565b600080604083850312156115cf57600080fd5b82516115da8161138e565b602084015190925067ffffffffffffffff808211156115f857600080fd5b90840190610100828703121561160d57600080fd5b611615611292565b82518152611625602084016114b0565b6020820152604083015160408201526060830151606082015261164a608084016114b0565b608082015260a083015160a082015260c08301518281111561166b57600080fd5b61167788828601611577565b60c08301525061168960e084016114a5565b60e08201528093505050509250929050565b6000602082840312156116ad57600080fd5b8151610f7a8161138e565b602081526000610f7a60208301846111c1565b60008160001904831182151516156116f357634e487b7160e01b600052601160045260246000fd5b500290565b60008261171557634e487b7160e01b600052601260045260246000fd5b50049056fea26469706673582212208bdfa2c7dc9ee5a3759dbb06323d0d8dc1b36293e56f2bfcdcc3427535017f9b64736f6c63430008100033",
    "linkReferences": {}
  },
  "methodIdentifiers": {
    "cancel(uint256)": "40e58ee5",
    "commit(uint256)": "f4f98ad5",
    "createOffer((uint256,address,uint256,uint256,address,uint256,string,bool))": "c01fd3f7",
    "finalize(uint256)": "05261aea",
    "getAvailableToWithdrawEscrowBalance(address)": "33f5737c",
    "getEscrowBalance(address)": "6374b11b",
    "getExchange(uint256)": "0b9d5847",
    "getOffer(uint256)": "4579268a",
    "getProtocolBalance()": "14e7c922",
    "getSellerDeposit(uint256)": "88106323",
    "initialize(address)": "c4d66de8",
    "owner()": "8da5cb5b",
    "redeem(uint256)": "db006a75",
    "renounceOwnership()": "715018a6",
    "revoke(uint256)": "20c5429b",
    "transferOwnership(address)": "f2fde38b",
    "voidOffer(uint256)": "4915907b",
    "withdraw()": "3ccfd60b"
  },
  "id": 37
}