{
  "abi": [
    {
      "anonymous": false,
      "inputs": [
        {
          "indexed": true,
          "internalType": "address",
          "name": "previousOwner",
          "type": "address"
        },
        {
          "indexed": true,
          "internalType": "address",
          "name": "newOwner",
          "type": "address"
        }
      ],
      "name": "OwnershipTransferred",
      "type": "event"
    },
    {
      "inputs": [
        {
          "internalType": "uint256",
          "name": "_exchangeId",
          "type": "uint256"
        }
      ],
      "name": "cancel",
      "outputs": [],
      "stateMutability": "nonpayable",
      "type": "function"
    },
    {
      "inputs": [
        {
          "internalType": "uint256",
          "name": "_offerId",
          "type": "uint256"
        }
      ],
      "name": "commit",
      "outputs": [
        {
          "internalType": "uint256",
          "name": "exchangeId",
          "type": "uint256"
        }
      ],
      "stateMutability": "payable",
      "type": "function"
    },
    {
      "inputs": [
        {
          "components": [
            {
              "internalType": "uint256",
              "name": "id",
              "type": "uint256"
            },
            {
              "internalType": "address",
              "name": "seller",
              "type": "address"
            },
            {
              "internalType": "uint256",
              "name": "price",
              "type": "uint256"
            },
            {
              "internalType": "uint256",
              "name": "quantityAvailable",
              "type": "uint256"
            },
            {
              "internalType": "address",
              "name": "assetToken",
              "type": "address"
            },
            {
              "internalType": "uint256",
              "name": "assetTokenId",
              "type": "uint256"
            },
            {
              "internalType": "string",
              "name": "metadataUri",
              "type": "string"
            },
            {
              "internalType": "bool",
              "name": "voided",
              "type": "bool"
            }
          ],
          "internalType": "struct BionetTypes.Offer",
          "name": "_offer",
          "type": "tuple"
        }
      ],
      "name": "createOffer",
      "outputs": [
        {
          "internalType": "uint256",
          "name": "offerId",
          "type": "uint256"
        }
      ],
      "stateMutability": "payable",
      "type": "function"
    },
    {
      "inputs": [
        {
          "internalType": "uint256",
          "name": "_exchangeId",
          "type": "uint256"
        }
      ],
      "name": "finalize",
      "outputs": [],
      "stateMutability": "nonpayable",
      "type": "function"
    },
    {
      "inputs": [
        {
          "internalType": "address",
          "name": "_account",
          "type": "address"
        }
      ],
      "name": "getEscrowBalance",
      "outputs": [
        {
          "internalType": "uint256",
          "name": "bal",
          "type": "uint256"
        }
      ],
      "stateMutability": "view",
      "type": "function"
    },
    {
      "inputs": [
        {
          "internalType": "uint256",
          "name": "_exchangeId",
          "type": "uint256"
        }
      ],
      "name": "getExchange",
      "outputs": [
        {
          "internalType": "bool",
          "name": "exists",
          "type": "bool"
        },
        {
          "components": [
            {
              "internalType": "uint256",
              "name": "id",
              "type": "uint256"
            },
            {
              "internalType": "uint256",
              "name": "offerId",
              "type": "uint256"
            },
            {
              "internalType": "address",
              "name": "buyer",
              "type": "address"
            },
            {
              "internalType": "uint256",
              "name": "redeemBy",
              "type": "uint256"
            },
            {
              "internalType": "uint256",
              "name": "disputeBy",
              "type": "uint256"
            },
            {
              "internalType": "uint256",
              "name": "finalizedDate",
              "type": "uint256"
            },
            {
              "internalType": "enum BionetTypes.ExchangeState",
              "name": "state",
              "type": "uint8"
            }
          ],
          "internalType": "struct BionetTypes.Exchange",
          "name": "exchange",
          "type": "tuple"
        }
      ],
      "stateMutability": "view",
      "type": "function"
    },
    {
      "inputs": [
        {
          "internalType": "uint256",
          "name": "_offerId",
          "type": "uint256"
        }
      ],
      "name": "getOffer",
      "outputs": [
        {
          "internalType": "bool",
          "name": "exists",
          "type": "bool"
        },
        {
          "components": [
            {
              "internalType": "uint256",
              "name": "id",
              "type": "uint256"
            },
            {
              "internalType": "address",
              "name": "seller",
              "type": "address"
            },
            {
              "internalType": "uint256",
              "name": "price",
              "type": "uint256"
            },
            {
              "internalType": "uint256",
              "name": "quantityAvailable",
              "type": "uint256"
            },
            {
              "internalType": "address",
              "name": "assetToken",
              "type": "address"
            },
            {
              "internalType": "uint256",
              "name": "assetTokenId",
              "type": "uint256"
            },
            {
              "internalType": "string",
              "name": "metadataUri",
              "type": "string"
            },
            {
              "internalType": "bool",
              "name": "voided",
              "type": "bool"
            }
          ],
          "internalType": "struct BionetTypes.Offer",
          "name": "offer",
          "type": "tuple"
        }
      ],
      "stateMutability": "view",
      "type": "function"
    },
    {
      "inputs": [],
      "name": "getProtocolBalance",
      "outputs": [
        {
          "internalType": "uint256",
          "name": "bal",
          "type": "uint256"
        }
      ],
      "stateMutability": "view",
      "type": "function"
    },
    {
      "inputs": [
        {
          "internalType": "uint256",
          "name": "_price",
          "type": "uint256"
        }
      ],
      "name": "getSellerDeposit",
      "outputs": [
        {
          "internalType": "uint256",
          "name": "amt",
          "type": "uint256"
        }
      ],
      "stateMutability": "pure",
      "type": "function"
    },
    {
      "inputs": [
        {
          "internalType": "address",
          "name": "_exchange",
          "type": "address"
        }
      ],
      "name": "initialize",
      "outputs": [],
      "stateMutability": "nonpayable",
      "type": "function"
    },
    {
      "inputs": [],
      "name": "owner",
      "outputs": [
        {
          "internalType": "address",
          "name": "",
          "type": "address"
        }
      ],
      "stateMutability": "view",
      "type": "function"
    },
    {
      "inputs": [
        {
          "internalType": "uint256",
          "name": "_exchangeId",
          "type": "uint256"
        }
      ],
      "name": "redeem",
      "outputs": [],
      "stateMutability": "nonpayable",
      "type": "function"
    },
    {
      "inputs": [],
      "name": "renounceOwnership",
      "outputs": [],
      "stateMutability": "nonpayable",
      "type": "function"
    },
    {
      "inputs": [
        {
          "internalType": "uint256",
          "name": "_exchangeId",
          "type": "uint256"
        }
      ],
      "name": "revoke",
      "outputs": [],
      "stateMutability": "nonpayable",
      "type": "function"
    },
    {
      "inputs": [
        {
          "internalType": "address",
          "name": "newOwner",
          "type": "address"
        }
      ],
      "name": "transferOwnership",
      "outputs": [],
      "stateMutability": "nonpayable",
      "type": "function"
    },
    {
      "inputs": [
        {
          "internalType": "uint256",
          "name": "_offerId",
          "type": "uint256"
        }
      ],
      "name": "voidOffer",
      "outputs": [],
      "stateMutability": "nonpayable",
      "type": "function"
    },
    {
      "inputs": [],
      "name": "withdraw",
      "outputs": [],
      "stateMutability": "nonpayable",
      "type": "function"
    }
  ],
  "bytecode": {
    "object": "0x608060405234801561001057600080fd5b5061001a3361001f565b61006f565b600080546001600160a01b038381166001600160a01b0319831681178455604051919092169283917f8be0079c531659141344cd1fd0a4f28419497f9722a3daafe3b4186f6b6457e09190a35050565b6116d38061007e6000396000f3fe6080604052600436106100fe5760003560e01c80636374b11b11610095578063c01fd3f711610064578063c01fd3f71461029f578063c4d66de8146102b2578063db006a75146102ef578063f2fde38b1461030f578063f4f98ad51461032f57600080fd5b80636374b11b14610222578063715018a61461024257806388106323146102575780638da5cb5b1461027757600080fd5b80633ccfd60b116100d15780633ccfd60b1461019f57806340e58ee5146101b45780634579268a146101d45780634915907b1461020257600080fd5b806305261aea146101035780630b9d58471461012557806314e7c9221461015c57806320c5429b1461017f575b600080fd5b34801561010f57600080fd5b5061012361011e36600461102f565b610342565b005b34801561013157600080fd5b5061014561014036600461102f565b6103d0565b60405161015392919061105e565b60405180910390f35b34801561016857600080fd5b50610171610452565b604051908152602001610153565b34801561018b57600080fd5b5061012361019a36600461102f565b6104c5565b3480156101ab57600080fd5b50610123610519565b3480156101c057600080fd5b506101236101cf36600461102f565b610595565b3480156101e057600080fd5b506101f46101ef36600461102f565b6105e9565b60405161015392919061119a565b34801561020e57600080fd5b5061012361021d36600461102f565b610699565b34801561022e57600080fd5b5061017161023d3660046111e2565b6106ed565b34801561024e57600080fd5b50610123610780565b34801561026357600080fd5b5061017161027236600461102f565b610794565b34801561028357600080fd5b506000546040516001600160a01b039091168152602001610153565b6101716102ad36600461132a565b61079f565b3480156102be57600080fd5b506101236102cd3660046111e2565b600180546001600160a01b0319166001600160a01b0392909216919091179055565b3480156102fb57600080fd5b5061012361030a36600461102f565b610cc7565b34801561031b57600080fd5b5061012361032a3660046111e2565b610d1b565b61017161033d36600461102f565b610d94565b336103685760405162461bcd60e51b815260040161035f906113f3565b60405180910390fd5b6001546040516302a9f0ab60e11b8152336004820152602481018390526001600160a01b0390911690630553e156906044015b600060405180830381600087803b1580156103b557600080fd5b505af11580156103c9573d6000803e3d6000fd5b5050505050565b60006103da610fd9565b600154604051630b9d584760e01b8152600481018590526001600160a01b0390911690630b9d58479060240161010060405180830381865afa158015610424573d6000803e3d6000fd5b505050506040513d601f19601f82011682018060405250810190610448919061143e565b9094909350915050565b60015460408051630a73e49160e11b815290516000926001600160a01b0316916314e7c9229160048083019260209291908290030181865afa15801561049c573d6000803e3d6000fd5b505050506040513d601f19601f820116820180604052508101906104c091906114e1565b905090565b336104e25760405162461bcd60e51b815260040161035f906113f3565b60015460405163eac449d960e01b8152336004820152602481018390526001600160a01b039091169063eac449d99060440161039b565b336105365760405162461bcd60e51b815260040161035f906113f3565b6001546040516351cff8d960e01b81523360048201526001600160a01b03909116906351cff8d990602401600060405180830381600087803b15801561057b57600080fd5b505af115801561058f573d6000803e3d6000fd5b50505050565b336105b25760405162461bcd60e51b815260040161035f906113f3565b6001546040516398590ef960e01b8152336004820152602481018390526001600160a01b03909116906398590ef99060440161039b565b604080516101008101825260008082526020820181905291810182905260608082018390526080820183905260a0820183905260c082015260e081018290526001546040516322bc934560e11b8152600481018590526001600160a01b0390911690634579268a90602401600060405180830381865afa158015610671573d6000803e3d6000fd5b505050506040513d6000823e601f3d908101601f19168201604052610448919081019061153f565b336106b65760405162461bcd60e51b815260040161035f906113f3565b6001546040516307c5805760e41b8152336004820152602481018390526001600160a01b0390911690637c5805709060440161039b565b60003361070c5760405162461bcd60e51b815260040161035f906113f3565b600154604051636374b11b60e01b81526001600160a01b03848116600483015290911690636374b11b90602401602060405180830381865afa158015610756573d6000803e3d6000fd5b505050506040513d601f19601f8201168201806040525081019061077a91906114e1565b92915050565b610788610e2a565b6107926000610e84565b565b600061077a82610ed4565b6000336107be5760405162461bcd60e51b815260040161035f906113f3565b60006107cd8360400151610ed4565b90508034101561082b5760405162461bcd60e51b815260206004820152602360248201527f526f757465723a20496e73756666696369656e742073656c6c6572206465706f6044820152621cda5d60ea1b606482015260840161035f565b60208301516001600160a01b031633146108975760405162461bcd60e51b815260206004820152602760248201527f526f757465723a206f666665722e73656c6c6572206d757374206265207468656044820152661031b0b63632b960c91b606482015260840161035f565b60008360600151116108e35760405162461bcd60e51b81526020600482015260156024820152740526f757465723a206f6666657220717479203e203605c1b604482015260640161035f565b60808301516001600160a01b03166109635760405162461bcd60e51b815260206004820152603760248201527f526f757465723a20417373657420746f6b656e206d757374206861766520612060448201527f76616c6964206164647265737320286e6f742030783029000000000000000000606482015260840161035f565b60e0830151156109c05760405162461bcd60e51b815260206004820152602260248201527f526f757465723a20746865206f666665722063616e6e6f7420626520766f6964604482015261195960f21b606482015260840161035f565b60006109d78460800151636cdb3d1360e11b610ee1565b905080610a3b5760405162461bcd60e51b815260206004820152602c60248201527f526f757465723a20546865206173736574206973206e6f7420616e204552433160448201526b0c4d4d4818dbdb9d1c9858dd60a21b606482015260840161035f565b608084015160a0850151604051627eeac760e11b815233600482015260248101919091526000916001600160a01b03169062fdd58e90604401602060405180830381865afa158015610a91573d6000803e3d6000fd5b505050506040513d601f19601f82011682018060405250810190610ab591906114e1565b90508460600151811015610b415760405162461bcd60e51b815260206004820152604760248201527f526f757465723a205468652073656c6c657220646f6573206e6f74206f776e2060448201527f656e6f756768204552433131353520746f6b656e7320666f7220746865206f666064820152666665722071747960c81b608482015260a40161035f565b6080850151602086015160015460405163e985e9c560e01b81526001600160a01b0392831660048201529082166024820152600092919091169063e985e9c590604401602060405180830381865afa158015610ba1573d6000803e3d6000fd5b505050506040513d601f19601f82011682018060405250810190610bc5919061161e565b905080610c485760405162461bcd60e51b815260206004820152604560248201527f526f757465723a205468652065786368616e6765206d7573742062652061707060448201527f726f76656420746f207472616e7366657220796f7572204552433131353520746064820152646f6b656e7360d81b608482015260a40161035f565b60015460405163c01fd3f760e01b81526001600160a01b039091169063c01fd3f7903490610c7a908a9060040161163b565b60206040518083038185885af1158015610c98573d6000803e3d6000fd5b50505050506040513d601f19601f82011682018060405250810190610cbd91906114e1565b9695505050505050565b33610ce45760405162461bcd60e51b815260040161035f906113f3565b6001546040516301e9a69560e41b8152336004820152602481018390526001600160a01b0390911690631e9a69509060440161039b565b610d23610e2a565b6001600160a01b038116610d885760405162461bcd60e51b815260206004820152602660248201527f4f776e61626c653a206e6577206f776e657220697320746865207a65726f206160448201526564647265737360d01b606482015260840161035f565b610d9181610e84565b50565b600033610db35760405162461bcd60e51b815260040161035f906113f3565b6001546040516384bf153560e01b8152336004820152602481018490526001600160a01b03909116906384bf153590349060440160206040518083038185885af1158015610e05573d6000803e3d6000fd5b50505050506040513d601f19601f8201168201806040525081019061077a91906114e1565b6000546001600160a01b031633146107925760405162461bcd60e51b815260206004820181905260248201527f4f776e61626c653a2063616c6c6572206973206e6f7420746865206f776e6572604482015260640161035f565b600080546001600160a01b038381166001600160a01b0319831681178455604051919092169283917f8be0079c531659141344cd1fd0a4f28419497f9722a3daafe3b4186f6b6457e09190a35050565b600061077a8260c8610f04565b6000610eec83610f1d565b8015610efd5750610efd8383610f50565b9392505050565b6000612710610f13838561164e565b610efd919061167b565b6000610f30826301ffc9a760e01b610f50565b801561077a5750610f49826001600160e01b0319610f50565b1592915050565b604080516001600160e01b03198316602480830191909152825180830390910181526044909101909152602080820180516001600160e01b03166301ffc9a760e01b178152825160009392849283928392918391908a617530fa92503d91506000519050828015610fc2575060208210155b8015610fce5750600081115b979650505050505050565b6040518060e00160405280600081526020016000815260200160006001600160a01b031681526020016000815260200160008152602001600081526020016000600581111561102a5761102a611048565b905290565b60006020828403121561104157600080fd5b5035919050565b634e487b7160e01b600052602160045260246000fd5b6000610100820190508315158252825160208301526020830151604083015260018060a01b03604084015116606083015260608301516080830152608083015160a083015260a083015160c083015260c0830151600681106110d057634e487b7160e01b600052602160045260246000fd5b8060e0840152509392505050565b60005b838110156110f95781810151838201526020016110e1565b50506000910152565b600061010082518452602083015160018060a01b0380821660208701526040850151604087015260608501516060870152806080860151166080870152505060a083015160a085015260c08301518160c086015280518083870152610120925061117281848801602085016110de565b60e0850151915061118760e087018315159052565b601f01601f191694909401019392505050565b82151581526040602082015260006111b56040830184611102565b949350505050565b6001600160a01b0381168114610d9157600080fd5b80356111dd816111bd565b919050565b6000602082840312156111f457600080fd5b8135610efd816111bd565b634e487b7160e01b600052604160045260246000fd5b604051610100810167ffffffffffffffff81118282101715611239576112396111ff565b60405290565b60405160e0810167ffffffffffffffff81118282101715611239576112396111ff565b604051601f8201601f1916810167ffffffffffffffff8111828210171561128b5761128b6111ff565b604052919050565b600067ffffffffffffffff8211156112ad576112ad6111ff565b50601f01601f191660200190565b600082601f8301126112cc57600080fd5b81356112df6112da82611293565b611262565b8181528460208386010111156112f457600080fd5b816020850160208301376000918101602001919091529392505050565b8015158114610d9157600080fd5b80356111dd81611311565b60006020828403121561133c57600080fd5b813567ffffffffffffffff8082111561135457600080fd5b90830190610100828603121561136957600080fd5b611371611215565b82358152611381602084016111d2565b602082015260408301356040820152606083013560608201526113a6608084016111d2565b608082015260a083013560a082015260c0830135828111156113c757600080fd5b6113d3878286016112bb565b60c0830152506113e560e0840161131f565b60e082015295945050505050565b6020808252818101527f526f757465723a205a65726f2061646472657373206e6f7420616c6c6f776564604082015260600190565b80516111dd81611311565b80516111dd816111bd565b60008082840361010081121561145357600080fd5b835161145e81611311565b925060e0601f198201121561147257600080fd5b5061147b61123f565b6020840151815260408401516020820152606084015161149a816111bd565b806040830152506080840151606082015260a0840151608082015260c084015160a082015260e0840151600681106114d157600080fd5b60c0820152919491935090915050565b6000602082840312156114f357600080fd5b5051919050565b600082601f83011261150b57600080fd5b81516115196112da82611293565b81815284602083860101111561152e57600080fd5b6111b58260208301602087016110de565b6000806040838503121561155257600080fd5b825161155d81611311565b602084015190925067ffffffffffffffff8082111561157b57600080fd5b90840190610100828703121561159057600080fd5b611598611215565b825181526115a860208401611433565b602082015260408301516040820152606083015160608201526115cd60808401611433565b608082015260a083015160a082015260c0830151828111156115ee57600080fd5b6115fa888286016114fa565b60c08301525061160c60e08401611428565b60e08201528093505050509250929050565b60006020828403121561163057600080fd5b8151610efd81611311565b602081526000610efd6020830184611102565b600081600019048311821515161561167657634e487b7160e01b600052601160045260246000fd5b500290565b60008261169857634e487b7160e01b600052601260045260246000fd5b50049056fea26469706673582212203a45f355a33ebd1f83d4b4edef76f6ea8046e26262bdc94f92490c4cb3e8f68664736f6c63430008100033",
    "linkReferences": {}
  },
  "methodIdentifiers": {
    "cancel(uint256)": "40e58ee5",
    "commit(uint256)": "f4f98ad5",
    "createOffer((uint256,address,uint256,uint256,address,uint256,string,bool))": "c01fd3f7",
    "finalize(uint256)": "05261aea",
    "getEscrowBalance(address)": "6374b11b",
    "getExchange(uint256)": "0b9d5847",
    "getOffer(uint256)": "4579268a",
    "getProtocolBalance()": "14e7c922",
    "getSellerDeposit(uint256)": "88106323",
    "initialize(address)": "c4d66de8",
    "owner()": "8da5cb5b",
    "redeem(uint256)": "db006a75",
    "renounceOwnership()": "715018a6",
    "revoke(uint256)": "20c5429b",
    "transferOwnership(address)": "f2fde38b",
    "voidOffer(uint256)": "4915907b",
    "withdraw()": "3ccfd60b"
  },
  "id": 38
}