{
  "abi": [
    {
      "anonymous": false,
      "inputs": [
        {
          "indexed": true,
          "internalType": "address",
          "name": "account",
          "type": "address"
        },
        {
          "indexed": false,
          "internalType": "uint256",
          "name": "amount",
          "type": "uint256"
        }
      ],
      "name": "DepositFunds",
      "type": "event"
    },
    {
      "anonymous": false,
      "inputs": [
        {
          "indexed": false,
          "internalType": "uint256",
          "name": "amount",
          "type": "uint256"
        }
      ],
      "name": "FeeCollected",
      "type": "event"
    },
    {
      "anonymous": false,
      "inputs": [
        {
          "indexed": true,
          "internalType": "address",
          "name": "account",
          "type": "address"
        },
        {
          "indexed": false,
          "internalType": "uint256",
          "name": "amount",
          "type": "uint256"
        }
      ],
      "name": "ReleaseFunds",
      "type": "event"
    },
    {
      "anonymous": false,
      "inputs": [
        {
          "indexed": true,
          "internalType": "address",
          "name": "account",
          "type": "address"
        },
        {
          "indexed": false,
          "internalType": "uint256",
          "name": "amount",
          "type": "uint256"
        }
      ],
      "name": "WithdrawFunds",
      "type": "event"
    },
    {
      "stateMutability": "payable",
      "type": "fallback"
    },
    {
      "inputs": [
        {
          "internalType": "address",
          "name": "_account",
          "type": "address"
        }
      ],
      "name": "deposit",
      "outputs": [],
      "stateMutability": "payable",
      "type": "function"
    },
    {
      "inputs": [
        {
          "internalType": "address",
          "name": "_account",
          "type": "address"
        }
      ],
      "name": "getEscrowBalance",
      "outputs": [
        {
          "internalType": "uint256",
          "name": "bal",
          "type": "uint256"
        }
      ],
      "stateMutability": "view",
      "type": "function"
    },
    {
      "inputs": [],
      "name": "getProtocolBalance",
      "outputs": [
        {
          "internalType": "uint256",
          "name": "bal",
          "type": "uint256"
        }
      ],
      "stateMutability": "view",
      "type": "function"
    },
    {
      "inputs": [
        {
          "internalType": "address",
          "name": "_router",
          "type": "address"
        },
        {
          "internalType": "address",
          "name": "_exchange",
          "type": "address"
        }
      ],
      "name": "initialize",
      "outputs": [],
      "stateMutability": "nonpayable",
      "type": "function"
    },
    {
      "inputs": [
        {
          "internalType": "address",
          "name": "_seller",
          "type": "address"
        },
        {
          "internalType": "address",
          "name": "_buyer",
          "type": "address"
        },
        {
          "internalType": "uint256",
          "name": "_price",
          "type": "uint256"
        },
        {
          "internalType": "enum BionetTypes.ExchangeState",
          "name": "_state",
          "type": "uint8"
        }
      ],
      "name": "releaseFunds",
      "outputs": [],
      "stateMutability": "nonpayable",
      "type": "function"
    },
    {
      "inputs": [
        {
          "internalType": "address",
          "name": "_account",
          "type": "address"
        }
      ],
      "name": "withdraw",
      "outputs": [],
      "stateMutability": "nonpayable",
      "type": "function"
    },
    {
      "stateMutability": "payable",
      "type": "receive"
    }
  ],
  "bytecode": {
    "object": "0x608060405234801561001057600080fd5b50610a03806100206000396000f3fe6080604052600436106100595760003560e01c806314e7c9221461008a57806325fe08b2146100ad578063485cc955146100cf57806351cff8d9146101185780636374b11b14610138578063f340fa011461016e57610078565b366100785734600260008282546100709190610825565b925050819055005b34600260008282546100709190610825565b34801561009657600080fd5b506002545b60405190815260200160405180910390f35b3480156100b957600080fd5b506100cd6100c8366004610854565b610181565b005b3480156100db57600080fd5b506100cd6100ea3660046108a7565b600080546001600160a01b039384166001600160a01b03199182161790915560018054929093169116179055565b34801561012457600080fd5b506100cd6101333660046108da565b610485565b34801561014457600080fd5b5061009b6101533660046108da565b6001600160a01b031660009081526003602052604090205490565b6100cd61017c3660046108da565b61055e565b600154604080518082019091526011815270155b985d5d1a1bdc9a5e99590818d85b1b607a1b6020820152906001600160a01b031633146101de5760405162461bcd60e51b81526004016101d591906108f5565b60405180910390fd5b5060028160058111156101f3576101f3610943565b036102e25760006102058360c8610603565b90506102118582610625565b61021b8482610656565b6001600160a01b03851660009081526004602052604081208054839290610243908490610825565b9091555061025390508184610959565b6001600160a01b0385166000908152600460205260408120805490919061027b908490610825565b90915550506040518181526001600160a01b038616906000805160206109ae8339815191529060200160405180910390a26001600160a01b0384166000805160206109ae8339815191526102cf8386610959565b60405190815260200160405180910390a2505b60018160058111156102f6576102f6610943565b036103815760006103088360c8610603565b90506103148482610625565b61031e8184610825565b6001600160a01b03851660009081526004602052604081208054909190610346908490610825565b90915550506001600160a01b0384166000805160206109ae83398151915261036e8386610825565b60405190815260200160405180910390a2505b600481600581111561039557610395610943565b0361047f5760006103a88361012c610603565b905080600260008282546103bc9190610825565b909155506103cc90508484610656565b6103df856103da8386610959565b610625565b6103e98184610959565b6001600160a01b03861660009081526004602052604081208054909190610411908490610825565b90915550506001600160a01b0385166000805160206109ae8339815191526104398386610959565b60405190815260200160405180910390a26040518181527fc472cb3a7a659a876494d66b3063145f279701771d6150b9329c31611ed6405c9060200160405180910390a1505b50505050565b600054604080518082019091526011815270155b985d5d1a1bdc9a5e99590818d85b1b607a1b6020820152906001600160a01b031633146104d95760405162461bcd60e51b81526004016101d591906108f5565b506001600160a01b038116600090815260046020526040902054801561055a576105038282610656565b6105166001600160a01b038316826106f1565b816001600160a01b03167f21901fa892c430ea8bd38b9390225ac8e67eac75ee10ffba16feefc539a288f98260405161055191815260200190565b60405180910390a25b5050565b600154604080518082019091526011815270155b985d5d1a1bdc9a5e99590818d85b1b607a1b6020820152906001600160a01b031633146105b25760405162461bcd60e51b81526004016101d591906108f5565b506105bd8134610625565b806001600160a01b03167fd241e73300212f6df233a8e6d3146b88a9d4964e06621d54b5ff6afeba7b1b88346040516105f891815260200190565b60405180910390a250565b6000612710610612838561096c565b61061c919061098b565b90505b92915050565b6001600160a01b0382166000908152600360205260408120805483929061064d908490610825565b90915550505050565b8060036000846001600160a01b03166001600160a01b0316815260200190815260200160002054101560405180604001604052806012815260200171496e73756666696369656e742066756e647360701b815250906106c85760405162461bcd60e51b81526004016101d591906108f5565b506001600160a01b0382166000908152600360205260408120805483929061064d908490610959565b804710156107415760405162461bcd60e51b815260206004820152601d60248201527f416464726573733a20696e73756666696369656e742062616c616e636500000060448201526064016101d5565b6000826001600160a01b03168260405160006040518083038185875af1925050503d806000811461078e576040519150601f19603f3d011682016040523d82523d6000602084013e610793565b606091505b505090508061080a5760405162461bcd60e51b815260206004820152603a60248201527f416464726573733a20756e61626c6520746f2073656e642076616c75652c207260448201527f6563697069656e74206d6179206861766520726576657274656400000000000060648201526084016101d5565b505050565b634e487b7160e01b600052601160045260246000fd5b8082018082111561061f5761061f61080f565b80356001600160a01b038116811461084f57600080fd5b919050565b6000806000806080858703121561086a57600080fd5b61087385610838565b935061088160208601610838565b92506040850135915060608501356006811061089c57600080fd5b939692955090935050565b600080604083850312156108ba57600080fd5b6108c383610838565b91506108d160208401610838565b90509250929050565b6000602082840312156108ec57600080fd5b61061c82610838565b600060208083528351808285015260005b8181101561092257858101830151858201604001528201610906565b506000604082860101526040601f19601f8301168501019250505092915050565b634e487b7160e01b600052602160045260246000fd5b8181038181111561061f5761061f61080f565b60008160001904831182151516156109865761098661080f565b500290565b6000826109a857634e487b7160e01b600052601260045260246000fd5b50049056fe56a1572a4a0b9c7b0d647a77d80643a49879137d0d23879c4854d48d8d7d1cd8a26469706673582212207d6ebbc022d2645d4f6e14bd2908ffae38ddc824e760a662137137745d66aaa664736f6c63430008100033",
    "linkReferences": {}
  },
  "methodIdentifiers": {
    "deposit(address)": "f340fa01",
    "getEscrowBalance(address)": "6374b11b",
    "getProtocolBalance()": "14e7c922",
    "initialize(address,address)": "485cc955",
    "releaseFunds(address,address,uint256,uint8)": "25fe08b2",
    "withdraw(address)": "51cff8d9"
  },
  "id": 38
}