{
  "abi": [
    {
      "inputs": [
        {
          "internalType": "address",
          "name": "_funds",
          "type": "address"
        },
        {
          "internalType": "address",
          "name": "_exchange",
          "type": "address"
        }
      ],
      "stateMutability": "nonpayable",
      "type": "constructor"
    },
    {
      "anonymous": false,
      "inputs": [
        {
          "indexed": true,
          "internalType": "address",
          "name": "previousOwner",
          "type": "address"
        },
        {
          "indexed": true,
          "internalType": "address",
          "name": "newOwner",
          "type": "address"
        }
      ],
      "name": "OwnershipTransferred",
      "type": "event"
    },
    {
      "inputs": [
        {
          "internalType": "uint256",
          "name": "_exchangeId",
          "type": "uint256"
        }
      ],
      "name": "cancel",
      "outputs": [],
      "stateMutability": "nonpayable",
      "type": "function"
    },
    {
      "inputs": [
        {
          "internalType": "uint256",
          "name": "_offerId",
          "type": "uint256"
        }
      ],
      "name": "commit",
      "outputs": [
        {
          "internalType": "uint256",
          "name": "exchangeId",
          "type": "uint256"
        }
      ],
      "stateMutability": "payable",
      "type": "function"
    },
    {
      "inputs": [
        {
          "components": [
            {
              "internalType": "uint256",
              "name": "id",
              "type": "uint256"
            },
            {
              "internalType": "address",
              "name": "seller",
              "type": "address"
            },
            {
              "internalType": "uint256",
              "name": "price",
              "type": "uint256"
            },
            {
              "internalType": "uint256",
              "name": "quantityAvailable",
              "type": "uint256"
            },
            {
              "internalType": "address",
              "name": "assetToken",
              "type": "address"
            },
            {
              "internalType": "uint256",
              "name": "assetTokenId",
              "type": "uint256"
            },
            {
              "internalType": "string",
              "name": "metadataUri",
              "type": "string"
            },
            {
              "internalType": "bool",
              "name": "voided",
              "type": "bool"
            }
          ],
          "internalType": "struct BionetTypes.Offer",
          "name": "_offer",
          "type": "tuple"
        }
      ],
      "name": "createOffer",
      "outputs": [
        {
          "internalType": "uint256",
          "name": "offerId",
          "type": "uint256"
        }
      ],
      "stateMutability": "nonpayable",
      "type": "function"
    },
    {
      "inputs": [
        {
          "internalType": "address",
          "name": "_account",
          "type": "address"
        }
      ],
      "name": "escrowBalance",
      "outputs": [
        {
          "internalType": "uint256",
          "name": "bal",
          "type": "uint256"
        }
      ],
      "stateMutability": "view",
      "type": "function"
    },
    {
      "inputs": [],
      "name": "owner",
      "outputs": [
        {
          "internalType": "address",
          "name": "",
          "type": "address"
        }
      ],
      "stateMutability": "view",
      "type": "function"
    },
    {
      "inputs": [
        {
          "internalType": "uint256",
          "name": "_exchangeId",
          "type": "uint256"
        }
      ],
      "name": "redeem",
      "outputs": [],
      "stateMutability": "nonpayable",
      "type": "function"
    },
    {
      "inputs": [],
      "name": "renounceOwnership",
      "outputs": [],
      "stateMutability": "nonpayable",
      "type": "function"
    },
    {
      "inputs": [
        {
          "internalType": "uint256",
          "name": "_exchangeId",
          "type": "uint256"
        }
      ],
      "name": "revoke",
      "outputs": [],
      "stateMutability": "payable",
      "type": "function"
    },
    {
      "inputs": [
        {
          "internalType": "address",
          "name": "newOwner",
          "type": "address"
        }
      ],
      "name": "transferOwnership",
      "outputs": [],
      "stateMutability": "nonpayable",
      "type": "function"
    },
    {
      "inputs": [
        {
          "internalType": "uint256",
          "name": "_offerId",
          "type": "uint256"
        }
      ],
      "name": "voidOffer",
      "outputs": [],
      "stateMutability": "nonpayable",
      "type": "function"
    },
    {
      "inputs": [
        {
          "internalType": "uint256",
          "name": "_amount",
          "type": "uint256"
        }
      ],
      "name": "withdraw",
      "outputs": [],
      "stateMutability": "nonpayable",
      "type": "function"
    }
  ],
  "bytecode": {
    "object": "0x608060405234801561001057600080fd5b50604051610ffc380380610ffc83398101604081905261002f916100d5565b61003833610069565b600180546001600160a01b039384166001600160a01b03199182161790915560028054929093169116179055610108565b600080546001600160a01b038381166001600160a01b0319831681178455604051919092169283917f8be0079c531659141344cd1fd0a4f28419497f9722a3daafe3b4186f6b6457e09190a35050565b80516001600160a01b03811681146100d057600080fd5b919050565b600080604083850312156100e857600080fd5b6100f1836100b9565b91506100ff602084016100b9565b90509250929050565b610ee5806101176000396000f3fe60806040526004361061009c5760003560e01c8063715018a611610064578063715018a6146101495780638da5cb5b1461015e578063c01fd3f714610186578063db006a75146101a6578063f2fde38b146101c6578063f4f98ad5146101e657600080fd5b806320c5429b146100a15780632e1a7d4d146100b657806340e58ee5146100d65780634915907b146100f657806355af635314610116575b600080fd5b6100b46100af366004610b95565b6101f9565b005b3480156100c257600080fd5b506100b46100d1366004610b95565b6102ac565b3480156100e257600080fd5b506100b46100f1366004610b95565b610355565b34801561010257600080fd5b506100b4610111366004610b95565b6103cd565b34801561012257600080fd5b50610136610131366004610bca565b610445565b6040519081526020015b60405180910390f35b34801561015557600080fd5b506100b46104fd565b34801561016a57600080fd5b506000546040516001600160a01b039091168152602001610140565b34801561019257600080fd5b506101366101a1366004610cc2565b610511565b3480156101b257600080fd5b506100b46101c1366004610b95565b610860565b3480156101d257600080fd5b506100b46101e1366004610bca565b6108d8565b6101366101f4366004610b95565b610951565b60408051808201909152600b81526a426164204164647265737360a81b6020820152336102425760405162461bcd60e51b81526004016102399190610dd1565b60405180910390fd5b5060025460405163eac449d960e01b8152336004820152602481018390526001600160a01b039091169063eac449d99034906044016000604051808303818588803b15801561029057600080fd5b505af11580156102a4573d6000803e3d6000fd5b505050505050565b60408051808201909152600b81526a426164204164647265737360a81b6020820152336102ec5760405162461bcd60e51b81526004016102399190610dd1565b5060015460405163f3fef3a360e01b8152336004820152602481018390526001600160a01b039091169063f3fef3a3906044015b600060405180830381600087803b15801561033a57600080fd5b505af115801561034e573d6000803e3d6000fd5b5050505050565b60408051808201909152600b81526a426164204164647265737360a81b6020820152336103955760405162461bcd60e51b81526004016102399190610dd1565b506002546040516398590ef960e01b8152336004820152602481018390526001600160a01b03909116906398590ef990604401610320565b60408051808201909152600b81526a426164204164647265737360a81b60208201523361040d5760405162461bcd60e51b81526004016102399190610dd1565b506002546040516307c5805760e41b8152336004820152602481018390526001600160a01b0390911690637c58057090604401610320565b60408051808201909152600b81526a426164204164647265737360a81b6020820152600090336104885760405162461bcd60e51b81526004016102399190610dd1565b50600154604051636374b11b60e01b81526001600160a01b03848116600483015290911690636374b11b90602401602060405180830381865afa1580156104d3573d6000803e3d6000fd5b505050506040513d601f19601f820116820180604052508101906104f79190610de4565b92915050565b610505610a0c565b61050f6000610a66565b565b60408051808201909152600b81526a426164204164647265737360a81b6020820152600090336105545760405162461bcd60e51b81526004016102399190610dd1565b50336001600160a01b031682602001516001600160a01b0316146040518060400160405280601981526020017f53656c6c6572206d757374206265207468652063616c6c657200000000000000815250906105c25760405162461bcd60e51b81526004016102399190610dd1565b5060008260600151116040518060600160405280602b8152602001610e85602b9139906106025760405162461bcd60e51b81526004016102399190610dd1565b50608082015160408051808201909152600b81526a426164204164647265737360a81b6020820152906001600160a01b03166106515760405162461bcd60e51b81526004016102399190610dd1565b5060e082015160408051808201909152600f81526e13d999995c881a5cc81d9bda591959608a1b6020820152901561069c5760405162461bcd60e51b81526004016102399190610dd1565b5060006106b48360800151636cdb3d1360e11b610ab6565b9050806040518060400160405280601a81526020017f4e6f7420612076616c696420617373657420636f6e74726163740000000000008152509061070b5760405162461bcd60e51b81526004016102399190610dd1565b50608083015160a0840151604051627eeac760e11b815233600482015260248101919091526000916001600160a01b03169062fdd58e90604401602060405180830381865afa158015610762573d6000803e3d6000fd5b505050506040513d601f19601f820116820180604052508101906107869190610de4565b905083606001518110156040518060400160405280601d81526020017f43616e6e6f742073656c6c206d6f7265207468616e20796f75206f776e000000815250906107e45760405162461bcd60e51b81526004016102399190610dd1565b5060025460405163c01fd3f760e01b81526001600160a01b039091169063c01fd3f790610815908790600401610dfd565b6020604051808303816000875af1158015610834573d6000803e3d6000fd5b505050506040513d601f19601f820116820180604052508101906108589190610de4565b949350505050565b60408051808201909152600b81526a426164204164647265737360a81b6020820152336108a05760405162461bcd60e51b81526004016102399190610dd1565b506002546040516301e9a69560e41b8152336004820152602481018390526001600160a01b0390911690631e9a695090604401610320565b6108e0610a0c565b6001600160a01b0381166109455760405162461bcd60e51b815260206004820152602660248201527f4f776e61626c653a206e6577206f776e657220697320746865207a65726f206160448201526564647265737360d01b6064820152608401610239565b61094e81610a66565b50565b60408051808201909152600b81526a426164204164647265737360a81b6020820152600090336109945760405162461bcd60e51b81526004016102399190610dd1565b506002546040516384bf153560e01b8152336004820152602481018490526001600160a01b03909116906384bf153590349060440160206040518083038185885af11580156109e7573d6000803e3d6000fd5b50505050506040513d601f19601f820116820180604052508101906104f79190610de4565b6000546001600160a01b0316331461050f5760405162461bcd60e51b815260206004820181905260248201527f4f776e61626c653a2063616c6c6572206973206e6f7420746865206f776e65726044820152606401610239565b600080546001600160a01b038381166001600160a01b0319831681178455604051919092169283917f8be0079c531659141344cd1fd0a4f28419497f9722a3daafe3b4186f6b6457e09190a35050565b6000610ac183610ad9565b8015610ad25750610ad28383610b0c565b9392505050565b6000610aec826301ffc9a760e01b610b0c565b80156104f75750610b05826001600160e01b0319610b0c565b1592915050565b604080516001600160e01b03198316602480830191909152825180830390910181526044909101909152602080820180516001600160e01b03166301ffc9a760e01b178152825160009392849283928392918391908a617530fa92503d91506000519050828015610b7e575060208210155b8015610b8a5750600081115b979650505050505050565b600060208284031215610ba757600080fd5b5035919050565b80356001600160a01b0381168114610bc557600080fd5b919050565b600060208284031215610bdc57600080fd5b610ad282610bae565b634e487b7160e01b600052604160045260246000fd5b604051610100810167ffffffffffffffff81118282101715610c1f57610c1f610be5565b60405290565b600082601f830112610c3657600080fd5b813567ffffffffffffffff80821115610c5157610c51610be5565b604051601f8301601f19908116603f01168101908282118183101715610c7957610c79610be5565b81604052838152866020858801011115610c9257600080fd5b836020870160208301376000602085830101528094505050505092915050565b80358015158114610bc557600080fd5b600060208284031215610cd457600080fd5b813567ffffffffffffffff80821115610cec57600080fd5b908301906101008286031215610d0157600080fd5b610d09610bfb565b82358152610d1960208401610bae565b60208201526040830135604082015260608301356060820152610d3e60808401610bae565b608082015260a083013560a082015260c083013582811115610d5f57600080fd5b610d6b87828601610c25565b60c083015250610d7d60e08401610cb2565b60e082015295945050505050565b6000815180845260005b81811015610db157602081850181015186830182015201610d95565b506000602082860101526020601f19601f83011685010191505092915050565b602081526000610ad26020830184610d8b565b600060208284031215610df657600080fd5b5051919050565b60208152815160208201526000602083015160018060a01b03808216604085015260408501516060850152606085015160808501528060808601511660a0850152505060a083015160c083015260c08301516101008060e0850152610e66610120850183610d8b565b915060e0850151610e7a8286018215159052565b509094935050505056fe5175616e69747920617661696c61626c65206d7573742062652067726561746572207468616e207a65726fa26469706673582212202d0b71a0c4b2d50a8b5257e2aad0520c6d992769ce50419b5799bf5f7045600a64736f6c63430008100033",
    "linkReferences": {}
  },
  "methodIdentifiers": {
    "cancel(uint256)": "40e58ee5",
    "commit(uint256)": "f4f98ad5",
    "createOffer((uint256,address,uint256,uint256,address,uint256,string,bool))": "c01fd3f7",
    "escrowBalance(address)": "55af6353",
    "owner()": "8da5cb5b",
    "redeem(uint256)": "db006a75",
    "renounceOwnership()": "715018a6",
    "revoke(uint256)": "20c5429b",
    "transferOwnership(address)": "f2fde38b",
    "voidOffer(uint256)": "4915907b",
    "withdraw(uint256)": "2e1a7d4d"
  },
  "id": 38
}