{
  "abi": [
    {
      "anonymous": false,
      "inputs": [
        {
          "indexed": true,
          "internalType": "address",
          "name": "previousOwner",
          "type": "address"
        },
        {
          "indexed": true,
          "internalType": "address",
          "name": "newOwner",
          "type": "address"
        }
      ],
      "name": "OwnershipTransferred",
      "type": "event"
    },
    {
      "inputs": [
        {
          "internalType": "uint256",
          "name": "_exchangeId",
          "type": "uint256"
        }
      ],
      "name": "cancel",
      "outputs": [],
      "stateMutability": "nonpayable",
      "type": "function"
    },
    {
      "inputs": [
        {
          "internalType": "uint256",
          "name": "_offerId",
          "type": "uint256"
        }
      ],
      "name": "commit",
      "outputs": [
        {
          "internalType": "uint256",
          "name": "exchangeId",
          "type": "uint256"
        }
      ],
      "stateMutability": "payable",
      "type": "function"
    },
    {
      "inputs": [
        {
          "components": [
            {
              "internalType": "uint256",
              "name": "id",
              "type": "uint256"
            },
            {
              "internalType": "address",
              "name": "seller",
              "type": "address"
            },
            {
              "internalType": "uint256",
              "name": "price",
              "type": "uint256"
            },
            {
              "internalType": "uint256",
              "name": "quantityAvailable",
              "type": "uint256"
            },
            {
              "internalType": "address",
              "name": "assetToken",
              "type": "address"
            },
            {
              "internalType": "uint256",
              "name": "assetTokenId",
              "type": "uint256"
            },
            {
              "internalType": "string",
              "name": "metadataUri",
              "type": "string"
            },
            {
              "internalType": "bool",
              "name": "voided",
              "type": "bool"
            }
          ],
          "internalType": "struct BionetTypes.Offer",
          "name": "_offer",
          "type": "tuple"
        }
      ],
      "name": "createOffer",
      "outputs": [
        {
          "internalType": "uint256",
          "name": "offerId",
          "type": "uint256"
        }
      ],
      "stateMutability": "payable",
      "type": "function"
    },
    {
      "inputs": [
        {
          "internalType": "uint256",
          "name": "_exchangeId",
          "type": "uint256"
        }
      ],
      "name": "finalize",
      "outputs": [],
      "stateMutability": "nonpayable",
      "type": "function"
    },
    {
      "inputs": [
        {
          "internalType": "address",
          "name": "_account",
          "type": "address"
        }
      ],
      "name": "getEscrowBalance",
      "outputs": [
        {
          "internalType": "uint256",
          "name": "bal",
          "type": "uint256"
        }
      ],
      "stateMutability": "view",
      "type": "function"
    },
    {
      "inputs": [
        {
          "internalType": "uint256",
          "name": "_exchangeId",
          "type": "uint256"
        }
      ],
      "name": "getExchange",
      "outputs": [
        {
          "internalType": "bool",
          "name": "exists",
          "type": "bool"
        },
        {
          "components": [
            {
              "internalType": "uint256",
              "name": "id",
              "type": "uint256"
            },
            {
              "internalType": "uint256",
              "name": "offerId",
              "type": "uint256"
            },
            {
              "internalType": "address",
              "name": "buyer",
              "type": "address"
            },
            {
              "internalType": "uint256",
              "name": "redeemBy",
              "type": "uint256"
            },
            {
              "internalType": "uint256",
              "name": "disputeBy",
              "type": "uint256"
            },
            {
              "internalType": "uint256",
              "name": "finalizedDate",
              "type": "uint256"
            },
            {
              "internalType": "enum BionetTypes.ExchangeState",
              "name": "state",
              "type": "uint8"
            }
          ],
          "internalType": "struct BionetTypes.Exchange",
          "name": "exchange",
          "type": "tuple"
        }
      ],
      "stateMutability": "view",
      "type": "function"
    },
    {
      "inputs": [
        {
          "internalType": "uint256",
          "name": "_offerId",
          "type": "uint256"
        }
      ],
      "name": "getOffer",
      "outputs": [
        {
          "internalType": "bool",
          "name": "exists",
          "type": "bool"
        },
        {
          "components": [
            {
              "internalType": "uint256",
              "name": "id",
              "type": "uint256"
            },
            {
              "internalType": "address",
              "name": "seller",
              "type": "address"
            },
            {
              "internalType": "uint256",
              "name": "price",
              "type": "uint256"
            },
            {
              "internalType": "uint256",
              "name": "quantityAvailable",
              "type": "uint256"
            },
            {
              "internalType": "address",
              "name": "assetToken",
              "type": "address"
            },
            {
              "internalType": "uint256",
              "name": "assetTokenId",
              "type": "uint256"
            },
            {
              "internalType": "string",
              "name": "metadataUri",
              "type": "string"
            },
            {
              "internalType": "bool",
              "name": "voided",
              "type": "bool"
            }
          ],
          "internalType": "struct BionetTypes.Offer",
          "name": "offer",
          "type": "tuple"
        }
      ],
      "stateMutability": "view",
      "type": "function"
    },
    {
      "inputs": [],
      "name": "getProtocolBalance",
      "outputs": [
        {
          "internalType": "uint256",
          "name": "bal",
          "type": "uint256"
        }
      ],
      "stateMutability": "view",
      "type": "function"
    },
    {
      "inputs": [
        {
          "internalType": "uint256",
          "name": "_price",
          "type": "uint256"
        }
      ],
      "name": "getSellerDeposit",
      "outputs": [
        {
          "internalType": "uint256",
          "name": "amt",
          "type": "uint256"
        }
      ],
      "stateMutability": "pure",
      "type": "function"
    },
    {
      "inputs": [
        {
          "internalType": "address",
          "name": "_exchange",
          "type": "address"
        }
      ],
      "name": "initialize",
      "outputs": [],
      "stateMutability": "nonpayable",
      "type": "function"
    },
    {
      "inputs": [],
      "name": "owner",
      "outputs": [
        {
          "internalType": "address",
          "name": "",
          "type": "address"
        }
      ],
      "stateMutability": "view",
      "type": "function"
    },
    {
      "inputs": [
        {
          "internalType": "uint256",
          "name": "_exchangeId",
          "type": "uint256"
        }
      ],
      "name": "redeem",
      "outputs": [],
      "stateMutability": "nonpayable",
      "type": "function"
    },
    {
      "inputs": [],
      "name": "renounceOwnership",
      "outputs": [],
      "stateMutability": "nonpayable",
      "type": "function"
    },
    {
      "inputs": [
        {
          "internalType": "uint256",
          "name": "_exchangeId",
          "type": "uint256"
        }
      ],
      "name": "revoke",
      "outputs": [],
      "stateMutability": "nonpayable",
      "type": "function"
    },
    {
      "inputs": [
        {
          "internalType": "address",
          "name": "newOwner",
          "type": "address"
        }
      ],
      "name": "transferOwnership",
      "outputs": [],
      "stateMutability": "nonpayable",
      "type": "function"
    },
    {
      "inputs": [
        {
          "internalType": "uint256",
          "name": "_offerId",
          "type": "uint256"
        }
      ],
      "name": "voidOffer",
      "outputs": [],
      "stateMutability": "nonpayable",
      "type": "function"
    },
    {
      "inputs": [],
      "name": "withdraw",
      "outputs": [],
      "stateMutability": "nonpayable",
      "type": "function"
    }
  ],
  "bytecode": {
    "object": "0x608060405234801561001057600080fd5b5061001a3361001f565b61006f565b600080546001600160a01b038381166001600160a01b0319831681178455604051919092169283917f8be0079c531659141344cd1fd0a4f28419497f9722a3daafe3b4186f6b6457e09190a35050565b61178a8061007e6000396000f3fe6080604052600436106100fe5760003560e01c80636374b11b11610095578063c01fd3f711610064578063c01fd3f71461029f578063c4d66de8146102b2578063db006a75146102ef578063f2fde38b1461030f578063f4f98ad51461032f57600080fd5b80636374b11b14610222578063715018a61461024257806388106323146102575780638da5cb5b1461027757600080fd5b80633ccfd60b116100d15780633ccfd60b1461019f57806340e58ee5146101b45780634579268a146101d45780634915907b1461020257600080fd5b806305261aea146101035780630b9d58471461012557806314e7c9221461015c57806320c5429b1461017f575b600080fd5b34801561010f57600080fd5b5061012361011e3660046110d0565b610342565b005b34801561013157600080fd5b506101456101403660046110d0565b6103f4565b6040516101539291906110ff565b60405180910390f35b34801561016857600080fd5b50610171610476565b604051908152602001610153565b34801561018b57600080fd5b5061012361019a3660046110d0565b6104e9565b3480156101ab57600080fd5b50610123610561565b3480156101c057600080fd5b506101236101cf3660046110d0565b610601565b3480156101e057600080fd5b506101f46101ef3660046110d0565b610679565b604051610153929190611248565b34801561020e57600080fd5b5061012361021d3660046110d0565b610729565b34801561022e57600080fd5b5061017161023d366004611290565b6107a1565b34801561024e57600080fd5b50610123610859565b34801561026357600080fd5b506101716102723660046110d0565b61086d565b34801561028357600080fd5b506000546040516001600160a01b039091168152602001610153565b6101716102ad3660046113d8565b610878565b3480156102be57600080fd5b506101236102cd366004611290565b600180546001600160a01b0319166001600160a01b0392909216919091179055565b3480156102fb57600080fd5b5061012361030a3660046110d0565b610d1f565b34801561031b57600080fd5b5061012361032a366004611290565b610d97565b61017161033d3660046110d0565b610e10565b60408051808201909152600b81526a426164204164647265737360a81b60208201523361038b5760405162461bcd60e51b815260040161038291906114a1565b60405180910390fd5b506001546040516302a9f0ab60e11b8152336004820152602481018390526001600160a01b0390911690630553e156906044015b600060405180830381600087803b1580156103d957600080fd5b505af11580156103ed573d6000803e3d6000fd5b5050505050565b60006103fe61107a565b600154604051630b9d584760e01b8152600481018590526001600160a01b0390911690630b9d58479060240161010060405180830381865afa158015610448573d6000803e3d6000fd5b505050506040513d601f19601f8201168201806040525081019061046c91906114ca565b9094909350915050565b60015460408051630a73e49160e11b815290516000926001600160a01b0316916314e7c9229160048083019260209291908290030181865afa1580156104c0573d6000803e3d6000fd5b505050506040513d601f19601f820116820180604052508101906104e4919061156d565b905090565b60408051808201909152600b81526a426164204164647265737360a81b6020820152336105295760405162461bcd60e51b815260040161038291906114a1565b5060015460405163eac449d960e01b8152336004820152602481018390526001600160a01b039091169063eac449d9906044016103bf565b60408051808201909152600b81526a426164204164647265737360a81b6020820152336105a15760405162461bcd60e51b815260040161038291906114a1565b506001546040516351cff8d960e01b81523360048201526001600160a01b03909116906351cff8d990602401600060405180830381600087803b1580156105e757600080fd5b505af11580156105fb573d6000803e3d6000fd5b50505050565b60408051808201909152600b81526a426164204164647265737360a81b6020820152336106415760405162461bcd60e51b815260040161038291906114a1565b506001546040516398590ef960e01b8152336004820152602481018390526001600160a01b03909116906398590ef9906044016103bf565b604080516101008101825260008082526020820181905291810182905260608082018390526080820183905260a0820183905260c082015260e081018290526001546040516322bc934560e11b8152600481018590526001600160a01b0390911690634579268a90602401600060405180830381865afa158015610701573d6000803e3d6000fd5b505050506040513d6000823e601f3d908101601f1916820160405261046c91908101906115cb565b60408051808201909152600b81526a426164204164647265737360a81b6020820152336107695760405162461bcd60e51b815260040161038291906114a1565b506001546040516307c5805760e41b8152336004820152602481018390526001600160a01b0390911690637c580570906044016103bf565b60408051808201909152600b81526a426164204164647265737360a81b6020820152600090336107e45760405162461bcd60e51b815260040161038291906114a1565b50600154604051636374b11b60e01b81526001600160a01b03848116600483015290911690636374b11b90602401602060405180830381865afa15801561082f573d6000803e3d6000fd5b505050506040513d601f19601f82011682018060405250810190610853919061156d565b92915050565b610861610ecb565b61086b6000610f25565b565b600061085382610f75565b60408051808201909152600b81526a426164204164647265737360a81b6020820152600090336108bb5760405162461bcd60e51b815260040161038291906114a1565b5060006108cb8360400151610f75565b9050803410156109145760405162461bcd60e51b8152602060048201526014602482015273125b9cdd59999a58da595b9d0819195c1bdcda5d60621b6044820152606401610382565b336001600160a01b031683602001516001600160a01b0316146040518060400160405280601981526020017f53656c6c6572206d757374206265207468652063616c6c657200000000000000815250906109815760405162461bcd60e51b815260040161038291906114a1565b5060008360600151116040518060600160405280602b815260200161172a602b9139906109c15760405162461bcd60e51b815260040161038291906114a1565b50608083015160408051808201909152600b81526a426164204164647265737360a81b6020820152906001600160a01b0316610a105760405162461bcd60e51b815260040161038291906114a1565b5060e083015160408051808201909152600f81526e13d999995c881a5cc81d9bda591959608a1b60208201529015610a5b5760405162461bcd60e51b815260040161038291906114a1565b506000610a738460800151636cdb3d1360e11b610f82565b9050806040518060400160405280601a81526020017f4e6f7420612076616c696420617373657420636f6e747261637400000000000081525090610aca5760405162461bcd60e51b815260040161038291906114a1565b50608084015160a0850151604051627eeac760e11b815233600482015260248101919091526000916001600160a01b03169062fdd58e90604401602060405180830381865afa158015610b21573d6000803e3d6000fd5b505050506040513d601f19601f82011682018060405250810190610b45919061156d565b90508460600151811015610ba75760405162461bcd60e51b815260206004820152602360248201527f446f6e2774206f776e20656e6f75676820495020746f6b656e7320746f206f666044820152623332b960e91b6064820152608401610382565b6080850151602086015160015460405163e985e9c560e01b81526001600160a01b0392831660048201529082166024820152600092919091169063e985e9c590604401602060405180830381865afa158015610c07573d6000803e3d6000fd5b505050506040513d601f19601f82011682018060405250810190610c2b91906116aa565b905080610ca05760405162461bcd60e51b815260206004820152603860248201527f45786368616e6765206d75737420626520617070726f76656420746f2074726160448201527f6e7366657220796f7572204950204e465420746f6b656e7300000000000000006064820152608401610382565b60015460405163c01fd3f760e01b81526001600160a01b039091169063c01fd3f7903490610cd2908a906004016116c7565b60206040518083038185885af1158015610cf0573d6000803e3d6000fd5b50505050506040513d601f19601f82011682018060405250810190610d15919061156d565b9695505050505050565b60408051808201909152600b81526a426164204164647265737360a81b602082015233610d5f5760405162461bcd60e51b815260040161038291906114a1565b506001546040516301e9a69560e41b8152336004820152602481018390526001600160a01b0390911690631e9a6950906044016103bf565b610d9f610ecb565b6001600160a01b038116610e045760405162461bcd60e51b815260206004820152602660248201527f4f776e61626c653a206e6577206f776e657220697320746865207a65726f206160448201526564647265737360d01b6064820152608401610382565b610e0d81610f25565b50565b60408051808201909152600b81526a426164204164647265737360a81b602082015260009033610e535760405162461bcd60e51b815260040161038291906114a1565b506001546040516384bf153560e01b8152336004820152602481018490526001600160a01b03909116906384bf153590349060440160206040518083038185885af1158015610ea6573d6000803e3d6000fd5b50505050506040513d601f19601f82011682018060405250810190610853919061156d565b6000546001600160a01b0316331461086b5760405162461bcd60e51b815260206004820181905260248201527f4f776e61626c653a2063616c6c6572206973206e6f7420746865206f776e65726044820152606401610382565b600080546001600160a01b038381166001600160a01b0319831681178455604051919092169283917f8be0079c531659141344cd1fd0a4f28419497f9722a3daafe3b4186f6b6457e09190a35050565b60006108538260c8610fa5565b6000610f8d83610fbe565b8015610f9e5750610f9e8383610ff1565b9392505050565b6000612710610fb483856116da565b610f9e9190611707565b6000610fd1826301ffc9a760e01b610ff1565b80156108535750610fea826001600160e01b0319610ff1565b1592915050565b604080516001600160e01b03198316602480830191909152825180830390910181526044909101909152602080820180516001600160e01b03166301ffc9a760e01b178152825160009392849283928392918391908a617530fa92503d91506000519050828015611063575060208210155b801561106f5750600081115b979650505050505050565b6040518060e00160405280600081526020016000815260200160006001600160a01b03168152602001600081526020016000815260200160008152602001600060058111156110cb576110cb6110e9565b905290565b6000602082840312156110e257600080fd5b5035919050565b634e487b7160e01b600052602160045260246000fd5b6000610100820190508315158252825160208301526020830151604083015260018060a01b03604084015116606083015260608301516080830152608083015160a083015260a083015160c083015260c08301516006811061117157634e487b7160e01b600052602160045260246000fd5b8060e0840152509392505050565b60005b8381101561119a578181015183820152602001611182565b50506000910152565b600081518084526111bb81602086016020860161117f565b601f01601f19169290920160200192915050565b600061010082518452602083015160018060a01b0380821660208701526040850151604087015260608501516060870152806080860151166080870152505060a083015160a085015260c08301518160c086015261122f828601826111a3565b91505060e0830151151560e08501528091505092915050565b821515815260406020820152600061126360408301846111cf565b949350505050565b6001600160a01b0381168114610e0d57600080fd5b803561128b8161126b565b919050565b6000602082840312156112a257600080fd5b8135610f9e8161126b565b634e487b7160e01b600052604160045260246000fd5b604051610100810167ffffffffffffffff811182821017156112e7576112e76112ad565b60405290565b60405160e0810167ffffffffffffffff811182821017156112e7576112e76112ad565b604051601f8201601f1916810167ffffffffffffffff81118282101715611339576113396112ad565b604052919050565b600067ffffffffffffffff82111561135b5761135b6112ad565b50601f01601f191660200190565b600082601f83011261137a57600080fd5b813561138d61138882611341565b611310565b8181528460208386010111156113a257600080fd5b816020850160208301376000918101602001919091529392505050565b8015158114610e0d57600080fd5b803561128b816113bf565b6000602082840312156113ea57600080fd5b813567ffffffffffffffff8082111561140257600080fd5b90830190610100828603121561141757600080fd5b61141f6112c3565b8235815261142f60208401611280565b6020820152604083013560408201526060830135606082015261145460808401611280565b608082015260a083013560a082015260c08301358281111561147557600080fd5b61148187828601611369565b60c08301525061149360e084016113cd565b60e082015295945050505050565b602081526000610f9e60208301846111a3565b805161128b816113bf565b805161128b8161126b565b6000808284036101008112156114df57600080fd5b83516114ea816113bf565b925060e0601f19820112156114fe57600080fd5b506115076112ed565b602084015181526040840151602082015260608401516115268161126b565b806040830152506080840151606082015260a0840151608082015260c084015160a082015260e08401516006811061155d57600080fd5b60c0820152919491935090915050565b60006020828403121561157f57600080fd5b5051919050565b600082601f83011261159757600080fd5b81516115a561138882611341565b8181528460208386010111156115ba57600080fd5b61126382602083016020870161117f565b600080604083850312156115de57600080fd5b82516115e9816113bf565b602084015190925067ffffffffffffffff8082111561160757600080fd5b90840190610100828703121561161c57600080fd5b6116246112c3565b82518152611634602084016114bf565b60208201526040830151604082015260608301516060820152611659608084016114bf565b608082015260a083015160a082015260c08301518281111561167a57600080fd5b61168688828601611586565b60c08301525061169860e084016114b4565b60e08201528093505050509250929050565b6000602082840312156116bc57600080fd5b8151610f9e816113bf565b602081526000610f9e60208301846111cf565b600081600019048311821515161561170257634e487b7160e01b600052601160045260246000fd5b500290565b60008261172457634e487b7160e01b600052601260045260246000fd5b50049056fe5175616e69747920617661696c61626c65206d7573742062652067726561746572207468616e207a65726fa264697066735822122039a56519140dfcb615d29febbf471785b470a6687fe09536322ce90d7b6bf93464736f6c63430008100033",
    "linkReferences": {}
  },
  "methodIdentifiers": {
    "cancel(uint256)": "40e58ee5",
    "commit(uint256)": "f4f98ad5",
    "createOffer((uint256,address,uint256,uint256,address,uint256,string,bool))": "c01fd3f7",
    "finalize(uint256)": "05261aea",
    "getEscrowBalance(address)": "6374b11b",
    "getExchange(uint256)": "0b9d5847",
    "getOffer(uint256)": "4579268a",
    "getProtocolBalance()": "14e7c922",
    "getSellerDeposit(uint256)": "88106323",
    "initialize(address)": "c4d66de8",
    "owner()": "8da5cb5b",
    "redeem(uint256)": "db006a75",
    "renounceOwnership()": "715018a6",
    "revoke(uint256)": "20c5429b",
    "transferOwnership(address)": "f2fde38b",
    "voidOffer(uint256)": "4915907b",
    "withdraw()": "3ccfd60b"
  },
  "id": 37
}