{
  "abi": [
    {
      "inputs": [
        {
          "internalType": "address",
          "name": "_router",
          "type": "address"
        },
        {
          "internalType": "address",
          "name": "_exchange",
          "type": "address"
        }
      ],
      "stateMutability": "nonpayable",
      "type": "constructor"
    },
    {
      "anonymous": false,
      "inputs": [
        {
          "indexed": true,
          "internalType": "address",
          "name": "buyer",
          "type": "address"
        },
        {
          "indexed": true,
          "internalType": "uint256",
          "name": "offerid",
          "type": "uint256"
        },
        {
          "indexed": false,
          "internalType": "uint256",
          "name": "amount",
          "type": "uint256"
        }
      ],
      "name": "EscrowEncumbered",
      "type": "event"
    },
    {
      "anonymous": false,
      "inputs": [
        {
          "indexed": true,
          "internalType": "address",
          "name": "account",
          "type": "address"
        },
        {
          "indexed": false,
          "internalType": "uint256",
          "name": "amount",
          "type": "uint256"
        }
      ],
      "name": "EscrowWithdraw",
      "type": "event"
    },
    {
      "anonymous": false,
      "inputs": [
        {
          "indexed": true,
          "internalType": "uint256",
          "name": "_exchangeId",
          "type": "uint256"
        },
        {
          "indexed": true,
          "internalType": "address",
          "name": "receiver",
          "type": "address"
        },
        {
          "indexed": false,
          "internalType": "uint256",
          "name": "amount",
          "type": "uint256"
        }
      ],
      "name": "FundsReleased",
      "type": "event"
    },
    {
      "anonymous": false,
      "inputs": [
        {
          "indexed": true,
          "internalType": "uint256",
          "name": "_exchangeId",
          "type": "uint256"
        },
        {
          "indexed": false,
          "internalType": "uint256",
          "name": "amount",
          "type": "uint256"
        }
      ],
      "name": "ProtocolFeeCollected",
      "type": "event"
    },
    {
      "inputs": [
        {
          "internalType": "address",
          "name": "_buyer",
          "type": "address"
        },
        {
          "internalType": "uint256",
          "name": "_price",
          "type": "uint256"
        },
        {
          "internalType": "uint256",
          "name": "_offerId",
          "type": "uint256"
        }
      ],
      "name": "encumberFunds",
      "outputs": [],
      "stateMutability": "payable",
      "type": "function"
    },
    {
      "inputs": [
        {
          "internalType": "address",
          "name": "_account",
          "type": "address"
        }
      ],
      "name": "getEscrowBalance",
      "outputs": [
        {
          "internalType": "uint256",
          "name": "bal",
          "type": "uint256"
        }
      ],
      "stateMutability": "view",
      "type": "function"
    },
    {
      "inputs": [],
      "name": "getProtocolBalance",
      "outputs": [
        {
          "internalType": "uint256",
          "name": "bal",
          "type": "uint256"
        }
      ],
      "stateMutability": "view",
      "type": "function"
    },
    {
      "inputs": [
        {
          "internalType": "uint256",
          "name": "_exchangeId",
          "type": "uint256"
        },
        {
          "internalType": "address",
          "name": "_seller",
          "type": "address"
        },
        {
          "internalType": "address",
          "name": "_buyer",
          "type": "address"
        },
        {
          "internalType": "uint256",
          "name": "_price",
          "type": "uint256"
        },
        {
          "internalType": "enum BionetTypes.ExchangeState",
          "name": "_state",
          "type": "uint8"
        }
      ],
      "name": "releaseFunds",
      "outputs": [],
      "stateMutability": "nonpayable",
      "type": "function"
    },
    {
      "inputs": [
        {
          "internalType": "address",
          "name": "_account",
          "type": "address"
        },
        {
          "internalType": "uint256",
          "name": "_amount",
          "type": "uint256"
        }
      ],
      "name": "withdraw",
      "outputs": [],
      "stateMutability": "nonpayable",
      "type": "function"
    }
  ],
  "bytecode": {
    "object": "0x608060405234801561001057600080fd5b506040516109e43803806109e483398101604081905261002f9161007c565b600080546001600160a01b039384166001600160a01b031991821617909155600180549290931691161790556100af565b80516001600160a01b038116811461007757600080fd5b919050565b6000806040838503121561008f57600080fd5b61009883610060565b91506100a660208401610060565b90509250929050565b610926806100be6000396000f3fe60806040526004361061004a5760003560e01c806314e7c9221461004f5780635fbfcc51146100725780636374b11b14610094578063c96d5d2c146100ca578063f3fef3a3146100dd575b600080fd5b34801561005b57600080fd5b506003545b60405190815260200160405180910390f35b34801561007e57600080fd5b5061009261008d366004610718565b6100fd565b005b3480156100a057600080fd5b506100606100af366004610777565b6001600160a01b031660009081526002602052604090205490565b6100926100d8366004610792565b610338565b3480156100e957600080fd5b506100926100f83660046107c5565b61042e565b600154604080518082019091526011815270155b985d5d1a1bdc9a5e99590818d85b1b607a1b6020820152906001600160a01b0316331461015a5760405162461bcd60e51b815260040161015191906107ef565b60405180910390fd5b50600281600581111561016f5761016f61083d565b036102005760006101818360c86104e7565b905061018d8582610509565b6101978482610551565b846001600160a01b0316866000805160206108d1833981519152836040516101c191815260200190565b60405180910390a36001600160a01b038416866000805160206108d18339815191526101ed8487610869565b60405190815260200160405180910390a3505b60018160058111156102145761021461083d565b036102695760006102268360c86104e7565b90506102328482610509565b6001600160a01b038416866000805160206108d1833981519152610256848761087c565b60405190815260200160405180910390a3505b600481600581111561027d5761027d61083d565b036103315760006102908361012c6104e7565b9050806003546102a0919061087c565b6003556102ad8484610551565b6102c0856102bb8386610869565b610509565b6001600160a01b038516866000805160206108d18339815191526102e48487610869565b60405190815260200160405180910390a3857f8b33e5d3f2111dbe0069093632772b6795dfdaa7282cb1d39582c0ca4127edbb8260405161032791815260200190565b60405180910390a2505b5050505050565b600154604080518082019091526011815270155b985d5d1a1bdc9a5e99590818d85b1b607a1b6020820152906001600160a01b0316331461038c5760405162461bcd60e51b815260040161015191906107ef565b508134101560405180604001604052806012815260200171496e73756666696369656e742066756e647360701b815250906103da5760405162461bcd60e51b815260040161015191906107ef565b506103e58334610509565b80836001600160a01b03167fd221f05e85f293bd8f37b37b01d9169c7c15f7a725d9718f2f6e2d574fb75cb28460405161042191815260200190565b60405180910390a3505050565b600054604080518082019091526011815270155b985d5d1a1bdc9a5e99590818d85b1b607a1b6020820152906001600160a01b031633146104825760405162461bcd60e51b815260040161015191906107ef565b5061048d8282610551565b6104a06001600160a01b038316826105e3565b816001600160a01b03167f5f8f8d9def8256789b7cf99031d7974645b0e479107040c86c996877685e9b56826040516104db91815260200190565b60405180910390a25050565b60006127106104f6838561088f565b61050091906108ae565b90505b92915050565b6001600160a01b038216600090815260026020526040902054811561054c57610532828261087c565b6001600160a01b0384166000908152600260205260409020555b505050565b80156105df576001600160a01b0382166000908152600260209081526040918290205482518084019093526012835271496e73756666696369656e742066756e647360701b9183019190915290828210156105bf5760405162461bcd60e51b815260040161015191906107ef565b506001600160a01b03831660009081526002602052604090209082900390555b5050565b804710156106335760405162461bcd60e51b815260206004820152601d60248201527f416464726573733a20696e73756666696369656e742062616c616e63650000006044820152606401610151565b6000826001600160a01b03168260405160006040518083038185875af1925050503d8060008114610680576040519150601f19603f3d011682016040523d82523d6000602084013e610685565b606091505b505090508061054c5760405162461bcd60e51b815260206004820152603a60248201527f416464726573733a20756e61626c6520746f2073656e642076616c75652c207260448201527f6563697069656e74206d617920686176652072657665727465640000000000006064820152608401610151565b80356001600160a01b038116811461071357600080fd5b919050565b600080600080600060a0868803121561073057600080fd5b85359450610740602087016106fc565b935061074e604087016106fc565b92506060860135915060808601356006811061076957600080fd5b809150509295509295909350565b60006020828403121561078957600080fd5b610500826106fc565b6000806000606084860312156107a757600080fd5b6107b0846106fc565b95602085013595506040909401359392505050565b600080604083850312156107d857600080fd5b6107e1836106fc565b946020939093013593505050565b600060208083528351808285015260005b8181101561081c57858101830151858201604001528201610800565b506000604082860101526040601f19601f8301168501019250505092915050565b634e487b7160e01b600052602160045260246000fd5b634e487b7160e01b600052601160045260246000fd5b8181038181111561050357610503610853565b8082018082111561050357610503610853565b60008160001904831182151516156108a9576108a9610853565b500290565b6000826108cb57634e487b7160e01b600052601260045260246000fd5b50049056fe6e3c6096795c8298a218b2cfb8bde42726ff7c9a3d27b4d3ba41ab7f74feb5fba264697066735822122010d0216a4baec413b51c62cded4a7b2d8c1302a101ea0f59af934941583632de64736f6c63430008100033",
    "linkReferences": {}
  },
  "methodIdentifiers": {
    "encumberFunds(address,uint256,uint256)": "c96d5d2c",
    "getEscrowBalance(address)": "6374b11b",
    "getProtocolBalance()": "14e7c922",
    "releaseFunds(uint256,address,address,uint256,uint8)": "5fbfcc51",
    "withdraw(address,uint256)": "f3fef3a3"
  },
  "id": 37
}