{
  "abi": [
    {
      "inputs": [
        {
          "internalType": "address",
          "name": "_router",
          "type": "address"
        },
        {
          "internalType": "address",
          "name": "_exchange",
          "type": "address"
        }
      ],
      "stateMutability": "nonpayable",
      "type": "constructor"
    },
    {
      "anonymous": false,
      "inputs": [
        {
          "indexed": true,
          "internalType": "address",
          "name": "owner",
          "type": "address"
        },
        {
          "indexed": true,
          "internalType": "address",
          "name": "approved",
          "type": "address"
        },
        {
          "indexed": true,
          "internalType": "uint256",
          "name": "tokenId",
          "type": "uint256"
        }
      ],
      "name": "Approval",
      "type": "event"
    },
    {
      "anonymous": false,
      "inputs": [
        {
          "indexed": true,
          "internalType": "address",
          "name": "owner",
          "type": "address"
        },
        {
          "indexed": true,
          "internalType": "address",
          "name": "operator",
          "type": "address"
        },
        {
          "indexed": false,
          "internalType": "bool",
          "name": "approved",
          "type": "bool"
        }
      ],
      "name": "ApprovalForAll",
      "type": "event"
    },
    {
      "anonymous": false,
      "inputs": [
        {
          "indexed": true,
          "internalType": "address",
          "name": "from",
          "type": "address"
        },
        {
          "indexed": true,
          "internalType": "address",
          "name": "to",
          "type": "address"
        },
        {
          "indexed": true,
          "internalType": "uint256",
          "name": "tokenId",
          "type": "uint256"
        }
      ],
      "name": "Transfer",
      "type": "event"
    },
    {
      "inputs": [
        {
          "internalType": "address",
          "name": "to",
          "type": "address"
        },
        {
          "internalType": "uint256",
          "name": "tokenId",
          "type": "uint256"
        }
      ],
      "name": "approve",
      "outputs": [],
      "stateMutability": "nonpayable",
      "type": "function"
    },
    {
      "inputs": [
        {
          "internalType": "address",
          "name": "owner",
          "type": "address"
        }
      ],
      "name": "balanceOf",
      "outputs": [
        {
          "internalType": "uint256",
          "name": "",
          "type": "uint256"
        }
      ],
      "stateMutability": "view",
      "type": "function"
    },
    {
      "inputs": [
        {
          "internalType": "uint256",
          "name": "tokenId",
          "type": "uint256"
        }
      ],
      "name": "burn",
      "outputs": [],
      "stateMutability": "nonpayable",
      "type": "function"
    },
    {
      "inputs": [
        {
          "internalType": "uint256",
          "name": "_exchangeId",
          "type": "uint256"
        }
      ],
      "name": "burnVoucher",
      "outputs": [],
      "stateMutability": "nonpayable",
      "type": "function"
    },
    {
      "inputs": [
        {
          "internalType": "uint256",
          "name": "tokenId",
          "type": "uint256"
        }
      ],
      "name": "getApproved",
      "outputs": [
        {
          "internalType": "address",
          "name": "",
          "type": "address"
        }
      ],
      "stateMutability": "view",
      "type": "function"
    },
    {
      "inputs": [
        {
          "internalType": "address",
          "name": "owner",
          "type": "address"
        },
        {
          "internalType": "address",
          "name": "operator",
          "type": "address"
        }
      ],
      "name": "isApprovedForAll",
      "outputs": [
        {
          "internalType": "bool",
          "name": "",
          "type": "bool"
        }
      ],
      "stateMutability": "view",
      "type": "function"
    },
    {
      "inputs": [
        {
          "internalType": "address",
          "name": "_to",
          "type": "address"
        },
        {
          "internalType": "uint256",
          "name": "_exchangeId",
          "type": "uint256"
        }
      ],
      "name": "issueVoucher",
      "outputs": [],
      "stateMutability": "nonpayable",
      "type": "function"
    },
    {
      "inputs": [],
      "name": "name",
      "outputs": [
        {
          "internalType": "string",
          "name": "",
          "type": "string"
        }
      ],
      "stateMutability": "view",
      "type": "function"
    },
    {
      "inputs": [
        {
          "internalType": "uint256",
          "name": "tokenId",
          "type": "uint256"
        }
      ],
      "name": "ownerOf",
      "outputs": [
        {
          "internalType": "address",
          "name": "",
          "type": "address"
        }
      ],
      "stateMutability": "view",
      "type": "function"
    },
    {
      "inputs": [
        {
          "internalType": "address",
          "name": "from",
          "type": "address"
        },
        {
          "internalType": "address",
          "name": "to",
          "type": "address"
        },
        {
          "internalType": "uint256",
          "name": "tokenId",
          "type": "uint256"
        }
      ],
      "name": "safeTransferFrom",
      "outputs": [],
      "stateMutability": "nonpayable",
      "type": "function"
    },
    {
      "inputs": [
        {
          "internalType": "address",
          "name": "from",
          "type": "address"
        },
        {
          "internalType": "address",
          "name": "to",
          "type": "address"
        },
        {
          "internalType": "uint256",
          "name": "tokenId",
          "type": "uint256"
        },
        {
          "internalType": "bytes",
          "name": "data",
          "type": "bytes"
        }
      ],
      "name": "safeTransferFrom",
      "outputs": [],
      "stateMutability": "nonpayable",
      "type": "function"
    },
    {
      "inputs": [
        {
          "internalType": "address",
          "name": "operator",
          "type": "address"
        },
        {
          "internalType": "bool",
          "name": "approved",
          "type": "bool"
        }
      ],
      "name": "setApprovalForAll",
      "outputs": [],
      "stateMutability": "nonpayable",
      "type": "function"
    },
    {
      "inputs": [
        {
          "internalType": "bytes4",
          "name": "interfaceId",
          "type": "bytes4"
        }
      ],
      "name": "supportsInterface",
      "outputs": [
        {
          "internalType": "bool",
          "name": "",
          "type": "bool"
        }
      ],
      "stateMutability": "view",
      "type": "function"
    },
    {
      "inputs": [],
      "name": "symbol",
      "outputs": [
        {
          "internalType": "string",
          "name": "",
          "type": "string"
        }
      ],
      "stateMutability": "view",
      "type": "function"
    },
    {
      "inputs": [
        {
          "internalType": "uint256",
          "name": "tokenId",
          "type": "uint256"
        }
      ],
      "name": "tokenURI",
      "outputs": [
        {
          "internalType": "string",
          "name": "",
          "type": "string"
        }
      ],
      "stateMutability": "view",
      "type": "function"
    },
    {
      "inputs": [
        {
          "internalType": "address",
          "name": "from",
          "type": "address"
        },
        {
          "internalType": "address",
          "name": "to",
          "type": "address"
        },
        {
          "internalType": "uint256",
          "name": "tokenId",
          "type": "uint256"
        }
      ],
      "name": "transferFrom",
      "outputs": [],
      "stateMutability": "nonpayable",
      "type": "function"
    }
  ],
  "bytecode": {
    "object": "0x60806040523480156200001157600080fd5b50604051620017e1380380620017e18339810160408190526200003491620000ed565b6040518060400160405280600d81526020016c2134b7b732ba2b37bab1b432b960991b8152506040518060400160405280600481526020016321272a2b60e11b8152508160009081620000889190620001ca565b506001620000978282620001ca565b5050600680546001600160a01b039485166001600160a01b03199182161790915560078054939094169216919091179091555062000296565b80516001600160a01b0381168114620000e857600080fd5b919050565b600080604083850312156200010157600080fd5b6200010c83620000d0565b91506200011c60208401620000d0565b90509250929050565b634e487b7160e01b600052604160045260246000fd5b600181811c908216806200015057607f821691505b6020821081036200017157634e487b7160e01b600052602260045260246000fd5b50919050565b601f821115620001c557600081815260208120601f850160051c81016020861015620001a05750805b601f850160051c820191505b81811015620001c157828155600101620001ac565b5050505b505050565b81516001600160401b03811115620001e657620001e662000125565b620001fe81620001f784546200013b565b8462000177565b602080601f8311600181146200023657600084156200021d5750858301515b600019600386901b1c1916600185901b178555620001c1565b600085815260208120601f198616915b82811015620002675788860151825594840194600190910190840162000246565b5085821015620002865787850151600019600388901b60f8161c191681555b5050505050600190811b01905550565b61153b80620002a66000396000f3fe608060405234801561001057600080fd5b50600436106101005760003560e01c806370a0823111610097578063ae7cb30811610066578063ae7cb3081461021d578063b88d4fde14610230578063c87b56dd14610243578063e985e9c51461025657600080fd5b806370a08231146101ce5780638da75e57146101ef57806395d89b4114610202578063a22cb4651461020a57600080fd5b806323b872dd116100d357806323b872dd1461018257806342842e0e1461019557806342966c68146101a85780636352211e146101bb57600080fd5b806301ffc9a71461010557806306fdde031461012d578063081812fc14610142578063095ea7b31461016d575b600080fd5b61011861011336600461108b565b610269565b60405190151581526020015b60405180910390f35b6101356102bb565b60405161012491906110f8565b61015561015036600461110b565b61034d565b6040516001600160a01b039091168152602001610124565b61018061017b366004611140565b610374565b005b61018061019036600461116a565b61048e565b6101806101a336600461116a565b6104c0565b6101806101b636600461110b565b6104db565b6101556101c936600461110b565b61050c565b6101e16101dc3660046111a6565b61056c565b604051908152602001610124565b6101806101fd366004611140565b6105f2565b610135610655565b6101806102183660046111c1565b610664565b61018061022b36600461110b565b61066f565b61018061023e366004611213565b6106cd565b61013561025136600461110b565b610705565b6101186102643660046112ef565b610779565b60006001600160e01b031982166380ac58cd60e01b148061029a57506001600160e01b03198216635b5e139f60e01b145b806102b557506301ffc9a760e01b6001600160e01b03198316145b92915050565b6060600080546102ca90611322565b80601f01602080910402602001604051908101604052809291908181526020018280546102f690611322565b80156103435780601f1061031857610100808354040283529160200191610343565b820191906000526020600020905b81548152906001019060200180831161032657829003601f168201915b5050505050905090565b6000610358826107a7565b506000908152600460205260409020546001600160a01b031690565b600061037f8261050c565b9050806001600160a01b0316836001600160a01b0316036103f15760405162461bcd60e51b815260206004820152602160248201527f4552433732313a20617070726f76616c20746f2063757272656e74206f776e656044820152603960f91b60648201526084015b60405180910390fd5b336001600160a01b038216148061040d575061040d8133610779565b61047f5760405162461bcd60e51b815260206004820152603d60248201527f4552433732313a20617070726f76652063616c6c6572206973206e6f7420746f60448201527f6b656e206f776e6572206f7220617070726f76656420666f7220616c6c00000060648201526084016103e8565b6104898383610806565b505050565b610499335b82610874565b6104b55760405162461bcd60e51b81526004016103e89061135c565b6104898383836108d3565b610489838383604051806020016040528060008152506106cd565b6104e433610493565b6105005760405162461bcd60e51b81526004016103e89061135c565b61050981610a44565b50565b6000818152600260205260408120546001600160a01b0316806102b55760405162461bcd60e51b8152602060048201526018602482015277115490cdcc8c4e881a5b9d985b1a59081d1bdad95b88125160421b60448201526064016103e8565b60006001600160a01b0382166105d65760405162461bcd60e51b815260206004820152602960248201527f4552433732313a2061646472657373207a65726f206973206e6f7420612076616044820152683634b21037bbb732b960b91b60648201526084016103e8565b506001600160a01b031660009081526003602052604090205490565b600754604080518082019091526011815270155b985d5d1a1bdc9a5e99590818d85b1b607a1b6020820152906001600160a01b031633146106465760405162461bcd60e51b81526004016103e891906110f8565b506106518282610ae7565b5050565b6060600180546102ca90611322565b610651338383610c80565b600754604080518082019091526011815270155b985d5d1a1bdc9a5e99590818d85b1b607a1b6020820152906001600160a01b031633146106c35760405162461bcd60e51b81526004016103e891906110f8565b5061050981610a44565b6106d73383610874565b6106f35760405162461bcd60e51b81526004016103e89061135c565b6106ff84848484610d4e565b50505050565b6060610710826107a7565b600061072760408051602081019091526000815290565b905060008151116107475760405180602001604052806000815250610772565b8061075184610d81565b6040516020016107629291906113a9565b6040516020818303038152906040525b9392505050565b6001600160a01b03918216600090815260056020908152604080832093909416825291909152205460ff1690565b6000818152600260205260409020546001600160a01b03166105095760405162461bcd60e51b8152602060048201526018602482015277115490cdcc8c4e881a5b9d985b1a59081d1bdad95b88125160421b60448201526064016103e8565b600081815260046020526040902080546001600160a01b0319166001600160a01b038416908117909155819061083b8261050c565b6001600160a01b03167f8c5be1e5ebec7d5bd14f71427d1e84f3dd0314c0f7b2291e5b200ac8c7c3b92560405160405180910390a45050565b6000806108808361050c565b9050806001600160a01b0316846001600160a01b031614806108a757506108a78185610779565b806108cb5750836001600160a01b03166108c08461034d565b6001600160a01b0316145b949350505050565b826001600160a01b03166108e68261050c565b6001600160a01b03161461090c5760405162461bcd60e51b81526004016103e8906113d8565b6001600160a01b03821661096e5760405162461bcd60e51b8152602060048201526024808201527f4552433732313a207472616e7366657220746f20746865207a65726f206164646044820152637265737360e01b60648201526084016103e8565b61097b8383836001610e14565b826001600160a01b031661098e8261050c565b6001600160a01b0316146109b45760405162461bcd60e51b81526004016103e8906113d8565b600081815260046020908152604080832080546001600160a01b03199081169091556001600160a01b0387811680865260038552838620805460001901905590871680865283862080546001019055868652600290945282852080549092168417909155905184937fddf252ad1be2c89b69c2b068fc378daa952ba7f163c4a11628f55a4df523b3ef91a4505050565b6000610a4f8261050c565b9050610a5f816000846001610e14565b610a688261050c565b600083815260046020908152604080832080546001600160a01b03199081169091556001600160a01b0385168085526003845282852080546000190190558785526002909352818420805490911690555192935084927fddf252ad1be2c89b69c2b068fc378daa952ba7f163c4a11628f55a4df523b3ef908390a45050565b6001600160a01b038216610b3d5760405162461bcd60e51b815260206004820181905260248201527f4552433732313a206d696e7420746f20746865207a65726f206164647265737360448201526064016103e8565b6000818152600260205260409020546001600160a01b031615610ba25760405162461bcd60e51b815260206004820152601c60248201527f4552433732313a20746f6b656e20616c7265616479206d696e7465640000000060448201526064016103e8565b610bb0600083836001610e14565b6000818152600260205260409020546001600160a01b031615610c155760405162461bcd60e51b815260206004820152601c60248201527f4552433732313a20746f6b656e20616c7265616479206d696e7465640000000060448201526064016103e8565b6001600160a01b038216600081815260036020908152604080832080546001019055848352600290915280822080546001600160a01b0319168417905551839291907fddf252ad1be2c89b69c2b068fc378daa952ba7f163c4a11628f55a4df523b3ef908290a45050565b816001600160a01b0316836001600160a01b031603610ce15760405162461bcd60e51b815260206004820152601960248201527f4552433732313a20617070726f766520746f2063616c6c65720000000000000060448201526064016103e8565b6001600160a01b03838116600081815260056020908152604080832094871680845294825291829020805460ff191686151590811790915591519182527f17307eab39ab6107e8899845ad3d59bd9653f200f220920489ca2b5937696c31910160405180910390a3505050565b610d598484846108d3565b610d6584848484610e9c565b6106ff5760405162461bcd60e51b81526004016103e89061141d565b60606000610d8e83610f9d565b600101905060008167ffffffffffffffff811115610dae57610dae6111fd565b6040519080825280601f01601f191660200182016040528015610dd8576020820181803683370190505b5090508181016020015b600019016f181899199a1a9b1b9c1cb0b131b232b360811b600a86061a8153600a8504945084610de257509392505050565b60018111156106ff576001600160a01b03841615610e5a576001600160a01b03841660009081526003602052604081208054839290610e54908490611485565b90915550505b6001600160a01b038316156106ff576001600160a01b03831660009081526003602052604081208054839290610e91908490611498565b909155505050505050565b60006001600160a01b0384163b15610f9257604051630a85bd0160e11b81526001600160a01b0385169063150b7a0290610ee09033908990889088906004016114ab565b6020604051808303816000875af1925050508015610f1b575060408051601f3d908101601f19168201909252610f18918101906114e8565b60015b610f78573d808015610f49576040519150601f19603f3d011682016040523d82523d6000602084013e610f4e565b606091505b508051600003610f705760405162461bcd60e51b81526004016103e89061141d565b805181602001fd5b6001600160e01b031916630a85bd0160e11b1490506108cb565b506001949350505050565b60008072184f03e93ff9f4daa797ed6e38ed64bf6a1f0160401b8310610fdc5772184f03e93ff9f4daa797ed6e38ed64bf6a1f0160401b830492506040015b6d04ee2d6d415b85acef81000000008310611008576d04ee2d6d415b85acef8100000000830492506020015b662386f26fc10000831061102657662386f26fc10000830492506010015b6305f5e100831061103e576305f5e100830492506008015b612710831061105257612710830492506004015b60648310611064576064830492506002015b600a83106102b55760010192915050565b6001600160e01b03198116811461050957600080fd5b60006020828403121561109d57600080fd5b813561077281611075565b60005b838110156110c35781810151838201526020016110ab565b50506000910152565b600081518084526110e48160208601602086016110a8565b601f01601f19169290920160200192915050565b60208152600061077260208301846110cc565b60006020828403121561111d57600080fd5b5035919050565b80356001600160a01b038116811461113b57600080fd5b919050565b6000806040838503121561115357600080fd5b61115c83611124565b946020939093013593505050565b60008060006060848603121561117f57600080fd5b61118884611124565b925061119660208501611124565b9150604084013590509250925092565b6000602082840312156111b857600080fd5b61077282611124565b600080604083850312156111d457600080fd5b6111dd83611124565b9150602083013580151581146111f257600080fd5b809150509250929050565b634e487b7160e01b600052604160045260246000fd5b6000806000806080858703121561122957600080fd5b61123285611124565b935061124060208601611124565b925060408501359150606085013567ffffffffffffffff8082111561126457600080fd5b818701915087601f83011261127857600080fd5b81358181111561128a5761128a6111fd565b604051601f8201601f19908116603f011681019083821181831017156112b2576112b26111fd565b816040528281528a60208487010111156112cb57600080fd5b82602086016020830137600060208483010152809550505050505092959194509250565b6000806040838503121561130257600080fd5b61130b83611124565b915061131960208401611124565b90509250929050565b600181811c9082168061133657607f821691505b60208210810361135657634e487b7160e01b600052602260045260246000fd5b50919050565b6020808252602d908201527f4552433732313a2063616c6c6572206973206e6f7420746f6b656e206f776e6560408201526c1c881bdc88185c1c1c9bdd9959609a1b606082015260800190565b600083516113bb8184602088016110a8565b8351908301906113cf8183602088016110a8565b01949350505050565b60208082526025908201527f4552433732313a207472616e736665722066726f6d20696e636f72726563742060408201526437bbb732b960d91b606082015260800190565b60208082526032908201527f4552433732313a207472616e7366657220746f206e6f6e20455243373231526560408201527131b2b4bb32b91034b6b83632b6b2b73a32b960711b606082015260800190565b634e487b7160e01b600052601160045260246000fd5b818103818111156102b5576102b561146f565b808201808211156102b5576102b561146f565b6001600160a01b03858116825284166020820152604081018390526080606082018190526000906114de908301846110cc565b9695505050505050565b6000602082840312156114fa57600080fd5b81516107728161107556fea2646970667358221220eb424ac76b9ab12d57bb3563f650a7aa1a1b7c187f3e21c4758407b572590d2564736f6c63430008100033",
    "linkReferences": {}
  },
  "methodIdentifiers": {
    "approve(address,uint256)": "095ea7b3",
    "balanceOf(address)": "70a08231",
    "burn(uint256)": "42966c68",
    "burnVoucher(uint256)": "ae7cb308",
    "getApproved(uint256)": "081812fc",
    "isApprovedForAll(address,address)": "e985e9c5",
    "issueVoucher(address,uint256)": "8da75e57",
    "name()": "06fdde03",
    "ownerOf(uint256)": "6352211e",
    "safeTransferFrom(address,address,uint256)": "42842e0e",
    "safeTransferFrom(address,address,uint256,bytes)": "b88d4fde",
    "setApprovalForAll(address,bool)": "a22cb465",
    "supportsInterface(bytes4)": "01ffc9a7",
    "symbol()": "95d89b41",
    "tokenURI(uint256)": "c87b56dd",
    "transferFrom(address,address,uint256)": "23b872dd"
  },
  "id": 40
}