{
  "abi": [
    {
      "anonymous": false,
      "inputs": [
        {
          "indexed": true,
          "internalType": "uint256",
          "name": "offerId",
          "type": "uint256"
        },
        {
          "indexed": true,
          "internalType": "uint256",
          "name": "exchangeId",
          "type": "uint256"
        },
        {
          "indexed": true,
          "internalType": "address",
          "name": "buyer",
          "type": "address"
        },
        {
          "indexed": false,
          "internalType": "bool",
          "name": "timerExpired",
          "type": "bool"
        }
      ],
      "name": "ExchangeCanceled",
      "type": "event"
    },
    {
      "anonymous": false,
      "inputs": [
        {
          "indexed": true,
          "internalType": "uint256",
          "name": "offerId",
          "type": "uint256"
        },
        {
          "indexed": true,
          "internalType": "uint256",
          "name": "exchangeId",
          "type": "uint256"
        },
        {
          "indexed": false,
          "internalType": "uint256",
          "name": "timestamp",
          "type": "uint256"
        }
      ],
      "name": "ExchangeCompleted",
      "type": "event"
    },
    {
      "anonymous": false,
      "inputs": [
        {
          "indexed": true,
          "internalType": "uint256",
          "name": "offerId",
          "type": "uint256"
        },
        {
          "indexed": true,
          "internalType": "uint256",
          "name": "exchangeId",
          "type": "uint256"
        },
        {
          "indexed": true,
          "internalType": "address",
          "name": "buyer",
          "type": "address"
        }
      ],
      "name": "ExchangeCreated",
      "type": "event"
    },
    {
      "anonymous": false,
      "inputs": [
        {
          "indexed": true,
          "internalType": "uint256",
          "name": "offerId",
          "type": "uint256"
        },
        {
          "indexed": true,
          "internalType": "uint256",
          "name": "exchangeId",
          "type": "uint256"
        },
        {
          "indexed": true,
          "internalType": "address",
          "name": "seller",
          "type": "address"
        }
      ],
      "name": "ExchangeRedeemed",
      "type": "event"
    },
    {
      "anonymous": false,
      "inputs": [
        {
          "indexed": true,
          "internalType": "uint256",
          "name": "offerId",
          "type": "uint256"
        },
        {
          "indexed": true,
          "internalType": "uint256",
          "name": "exchangeId",
          "type": "uint256"
        },
        {
          "indexed": true,
          "internalType": "address",
          "name": "seller",
          "type": "address"
        }
      ],
      "name": "ExchangeRevoked",
      "type": "event"
    },
    {
      "anonymous": false,
      "inputs": [
        {
          "indexed": false,
          "internalType": "uint256",
          "name": "exchangeId",
          "type": "uint256"
        },
        {
          "indexed": false,
          "internalType": "uint256",
          "name": "amount",
          "type": "uint256"
        }
      ],
      "name": "FeeCollected",
      "type": "event"
    },
    {
      "anonymous": false,
      "inputs": [
        {
          "indexed": true,
          "internalType": "address",
          "name": "account",
          "type": "address"
        },
        {
          "indexed": false,
          "internalType": "uint256",
          "name": "amount",
          "type": "uint256"
        }
      ],
      "name": "FundsNotAvailable",
      "type": "event"
    },
    {
      "anonymous": false,
      "inputs": [
        {
          "indexed": true,
          "internalType": "uint256",
          "name": "offerId",
          "type": "uint256"
        },
        {
          "indexed": true,
          "internalType": "address",
          "name": "seller",
          "type": "address"
        },
        {
          "components": [
            {
              "internalType": "uint256",
              "name": "id",
              "type": "uint256"
            },
            {
              "internalType": "address",
              "name": "seller",
              "type": "address"
            },
            {
              "internalType": "uint256",
              "name": "price",
              "type": "uint256"
            },
            {
              "internalType": "uint256",
              "name": "quantityAvailable",
              "type": "uint256"
            },
            {
              "internalType": "address",
              "name": "assetToken",
              "type": "address"
            },
            {
              "internalType": "uint256",
              "name": "assetTokenId",
              "type": "uint256"
            },
            {
              "internalType": "string",
              "name": "metadataUri",
              "type": "string"
            },
            {
              "internalType": "bool",
              "name": "voided",
              "type": "bool"
            }
          ],
          "indexed": false,
          "internalType": "struct BionetTypes.Offer",
          "name": "offer",
          "type": "tuple"
        }
      ],
      "name": "OfferCreated",
      "type": "event"
    },
    {
      "anonymous": false,
      "inputs": [
        {
          "indexed": true,
          "internalType": "uint256",
          "name": "offerId",
          "type": "uint256"
        },
        {
          "indexed": true,
          "internalType": "address",
          "name": "seller",
          "type": "address"
        }
      ],
      "name": "OfferVoided",
      "type": "event"
    },
    {
      "anonymous": false,
      "inputs": [
        {
          "indexed": false,
          "internalType": "address",
          "name": "account",
          "type": "address"
        },
        {
          "indexed": false,
          "internalType": "uint256",
          "name": "amount",
          "type": "uint256"
        }
      ],
      "name": "ReleaseEscrow",
      "type": "event"
    },
    {
      "anonymous": false,
      "inputs": [
        {
          "indexed": true,
          "internalType": "address",
          "name": "account",
          "type": "address"
        },
        {
          "indexed": false,
          "internalType": "uint256",
          "name": "amount",
          "type": "uint256"
        }
      ],
      "name": "Withdraw",
      "type": "event"
    },
    {
      "inputs": [
        {
          "internalType": "address",
          "name": "_buyer",
          "type": "address"
        },
        {
          "internalType": "uint256",
          "name": "_exchangeId",
          "type": "uint256"
        }
      ],
      "name": "cancel",
      "outputs": [],
      "stateMutability": "nonpayable",
      "type": "function"
    },
    {
      "inputs": [
        {
          "internalType": "address",
          "name": "_buyer",
          "type": "address"
        },
        {
          "internalType": "uint256",
          "name": "_offerId",
          "type": "uint256"
        }
      ],
      "name": "commit",
      "outputs": [
        {
          "internalType": "uint256",
          "name": "",
          "type": "uint256"
        }
      ],
      "stateMutability": "payable",
      "type": "function"
    },
    {
      "inputs": [
        {
          "components": [
            {
              "internalType": "uint256",
              "name": "id",
              "type": "uint256"
            },
            {
              "internalType": "address",
              "name": "seller",
              "type": "address"
            },
            {
              "internalType": "uint256",
              "name": "price",
              "type": "uint256"
            },
            {
              "internalType": "uint256",
              "name": "quantityAvailable",
              "type": "uint256"
            },
            {
              "internalType": "address",
              "name": "assetToken",
              "type": "address"
            },
            {
              "internalType": "uint256",
              "name": "assetTokenId",
              "type": "uint256"
            },
            {
              "internalType": "string",
              "name": "metadataUri",
              "type": "string"
            },
            {
              "internalType": "bool",
              "name": "voided",
              "type": "bool"
            }
          ],
          "internalType": "struct BionetTypes.Offer",
          "name": "_offer",
          "type": "tuple"
        }
      ],
      "name": "createOffer",
      "outputs": [
        {
          "internalType": "uint256",
          "name": "",
          "type": "uint256"
        }
      ],
      "stateMutability": "payable",
      "type": "function"
    },
    {
      "inputs": [
        {
          "internalType": "address",
          "name": "_buyer",
          "type": "address"
        },
        {
          "internalType": "uint256",
          "name": "_exchangeId",
          "type": "uint256"
        }
      ],
      "name": "finalize",
      "outputs": [],
      "stateMutability": "nonpayable",
      "type": "function"
    },
    {
      "inputs": [
        {
          "internalType": "address",
          "name": "_account",
          "type": "address"
        }
      ],
      "name": "getAvailableToWithdrawEscrowBalance",
      "outputs": [
        {
          "internalType": "uint256",
          "name": "bal",
          "type": "uint256"
        }
      ],
      "stateMutability": "view",
      "type": "function"
    },
    {
      "inputs": [
        {
          "internalType": "address",
          "name": "_account",
          "type": "address"
        }
      ],
      "name": "getEscrowBalance",
      "outputs": [
        {
          "internalType": "uint256",
          "name": "bal",
          "type": "uint256"
        }
      ],
      "stateMutability": "view",
      "type": "function"
    },
    {
      "inputs": [
        {
          "internalType": "uint256",
          "name": "_exchangeId",
          "type": "uint256"
        }
      ],
      "name": "getExchange",
      "outputs": [
        {
          "internalType": "bool",
          "name": "exists",
          "type": "bool"
        },
        {
          "components": [
            {
              "internalType": "uint256",
              "name": "id",
              "type": "uint256"
            },
            {
              "internalType": "uint256",
              "name": "offerId",
              "type": "uint256"
            },
            {
              "internalType": "address",
              "name": "buyer",
              "type": "address"
            },
            {
              "internalType": "uint256",
              "name": "redeemBy",
              "type": "uint256"
            },
            {
              "internalType": "uint256",
              "name": "disputeBy",
              "type": "uint256"
            },
            {
              "internalType": "uint256",
              "name": "finalizedDate",
              "type": "uint256"
            },
            {
              "internalType": "enum BionetTypes.ExchangeState",
              "name": "state",
              "type": "uint8"
            }
          ],
          "internalType": "struct BionetTypes.Exchange",
          "name": "exchange",
          "type": "tuple"
        }
      ],
      "stateMutability": "view",
      "type": "function"
    },
    {
      "inputs": [
        {
          "internalType": "uint256",
          "name": "_offerId",
          "type": "uint256"
        }
      ],
      "name": "getOffer",
      "outputs": [
        {
          "internalType": "bool",
          "name": "exists",
          "type": "bool"
        },
        {
          "components": [
            {
              "internalType": "uint256",
              "name": "id",
              "type": "uint256"
            },
            {
              "internalType": "address",
              "name": "seller",
              "type": "address"
            },
            {
              "internalType": "uint256",
              "name": "price",
              "type": "uint256"
            },
            {
              "internalType": "uint256",
              "name": "quantityAvailable",
              "type": "uint256"
            },
            {
              "internalType": "address",
              "name": "assetToken",
              "type": "address"
            },
            {
              "internalType": "uint256",
              "name": "assetTokenId",
              "type": "uint256"
            },
            {
              "internalType": "string",
              "name": "metadataUri",
              "type": "string"
            },
            {
              "internalType": "bool",
              "name": "voided",
              "type": "bool"
            }
          ],
          "internalType": "struct BionetTypes.Offer",
          "name": "offer",
          "type": "tuple"
        }
      ],
      "stateMutability": "view",
      "type": "function"
    },
    {
      "inputs": [],
      "name": "getProtocolBalance",
      "outputs": [
        {
          "internalType": "uint256",
          "name": "bal",
          "type": "uint256"
        }
      ],
      "stateMutability": "view",
      "type": "function"
    },
    {
      "inputs": [
        {
          "internalType": "address",
          "name": "_router",
          "type": "address"
        },
        {
          "internalType": "address",
          "name": "_voucher",
          "type": "address"
        }
      ],
      "name": "initialize",
      "outputs": [],
      "stateMutability": "nonpayable",
      "type": "function"
    },
    {
      "inputs": [
        {
          "internalType": "address",
          "name": "_buyer",
          "type": "address"
        },
        {
          "internalType": "uint256",
          "name": "_exchangeId",
          "type": "uint256"
        }
      ],
      "name": "redeem",
      "outputs": [],
      "stateMutability": "nonpayable",
      "type": "function"
    },
    {
      "inputs": [
        {
          "internalType": "address",
          "name": "_caller",
          "type": "address"
        },
        {
          "internalType": "uint256",
          "name": "_exchangeId",
          "type": "uint256"
        }
      ],
      "name": "revoke",
      "outputs": [],
      "stateMutability": "nonpayable",
      "type": "function"
    },
    {
      "inputs": [
        {
          "internalType": "address",
          "name": "_caller",
          "type": "address"
        },
        {
          "internalType": "uint256",
          "name": "_offerId",
          "type": "uint256"
        }
      ],
      "name": "voidOffer",
      "outputs": [],
      "stateMutability": "nonpayable",
      "type": "function"
    },
    {
      "inputs": [
        {
          "internalType": "address",
          "name": "_account",
          "type": "address"
        }
      ],
      "name": "withdraw",
      "outputs": [],
      "stateMutability": "nonpayable",
      "type": "function"
    }
  ],
  "bytecode": {
    "object": "0x608060405234801561001057600080fd5b506001600055612b45806100256000396000f3fe6080604052600436106100dd5760003560e01c806351cff8d91161007f57806384bf15351161005957806384bf15351461027557806398590ef914610288578063c01fd3f7146102a8578063eac449d9146102bb57600080fd5b806351cff8d9146102155780636374b11b146102355780637c5805701461025557600080fd5b80631e9a6950116100bb5780631e9a69501461015e57806333f5737c1461017e5780634579268a1461019e578063485cc955146101cc57600080fd5b80630553e156146100e25780630b9d58471461010457806314e7c9221461013b575b600080fd5b3480156100ee57600080fd5b506101026100fd3660046124b1565b6102db565b005b34801561011057600080fd5b5061012461011f3660046124db565b6106d3565b60405161013292919061250a565b60405180910390f35b34801561014757600080fd5b50610150610771565b604051908152602001610132565b34801561016a57600080fd5b506101026101793660046124b1565b610784565b34801561018a57600080fd5b5061015061019936600461258a565b610c30565b3480156101aa57600080fd5b506101be6101b93660046124db565b610c5c565b60405161013292919061265c565b3480156101d857600080fd5b506101026101e736600461267f565b600180546001600160a01b039384166001600160a01b03199182161790915560028054929093169116179055565b34801561022157600080fd5b5061010261023036600461258a565b610daa565b34801561024157600080fd5b5061015061025036600461258a565b610e7c565b34801561026157600080fd5b506101026102703660046124b1565b610ea5565b6101506102833660046124b1565b610feb565b34801561029457600080fd5b506101026102a33660046124b1565b611297565b6101506102b636600461278f565b611516565b3480156102c757600080fd5b506101026102d63660046124b1565b611651565b6001546001600160a01b0316331461030e5760405162461bcd60e51b815260040161030590612858565b60405180910390fd5b6103166119c4565b600061032182611a1d565b90506003600682015460ff16600581111561033e5761033e6124f4565b1461039c5760405162461bcd60e51b815260206004820152602860248201527f45786368616e67653a2057726f6e672073746174652e204578706563746564206044820152671c995919595b595960c21b6064820152608401610305565b6040805160e081018252825481526001830154602082015260028301546001600160a01b031691810191909152600382015460608201526004820154608082015260058083015460a083015260068301546104289286929091859160c084019160ff169081111561040f5761040f6124f4565b6005811115610420576104206124f4565b905250611a95565b61049a5760405162461bcd60e51b815260206004820152603b60248201527f45786368616e67653a206275796572206d757374206265207468652063616c6c60448201527f6572206f722064697370757465207068617365206578706972656400000000006064820152608401610305565b60006104a98260010154611ac5565b60408051610100810182528254815260018301546001600160a01b0390811660208301526002840154928201929092526003830154606082015260048301549091166080820152600582015460a082015260068201805491929160c084019190610512906128a2565b80601f016020809104026020016040519081016040528092919081815260200182805461053e906128a2565b801561058b5780601f106105605761010080835404028352916020019161058b565b820191906000526020600020905b81548152906001019060200180831161056e57829003601f168201915b50505091835250506007919091015460ff16151560209091015260068301805491925060049160ff1916600183021790555042600583015560808101516020820151600284015460a0808501516060860151604051637921219560e11b81526001600160a01b0395861660048201529385166024850152604484019190915260648301526084820152600060a482015291169063f242432a9060c401600060405180830381600087803b15801561064157600080fd5b505af1158015610655573d6000803e3d6000fd5b50508354602084015160028601546040860151600688015461068c965093945091926001600160a01b03909116919060ff16611b5d565b815481516040514281527f02ed327deaf2a2cf4fce11e9f7770dd4961b8fa2c6b9c4e894850e7b9980f1e99060200160405180910390a350506106cf6001600055565b5050565b60006106dd612444565b6106e683611efe565b6040805160e081018252825481526001830154602082015260028301546001600160a01b031691810191909152600382015460608201526004820154608082015260058083015460a08301526006830154839160c084019160ff1690811115610751576107516124f4565b6005811115610762576107626124f4565b90525091959194509092505050565b600061077b611f35565b60020154905090565b6001546001600160a01b031633146107ae5760405162461bcd60e51b815260040161030590612858565b60006107b982611a1d565b90506000600682015460ff1660058111156107d6576107d66124f4565b146107f35760405162461bcd60e51b8152600401610305906128d6565b60028101546001600160a01b0384811691161461085d5760405162461bcd60e51b815260206004820152602260248201527f45786368616e67653a206275796572206d757374206265207468652063616c6c60448201526132b960f11b6064820152608401610305565b600061086c8260010154611ac5565b60408051610100810182528254815260018301546001600160a01b0390811660208301526002840154928201929092526003830154606082015260048301549091166080820152600582015460a082015260068201805491929160c0840191906108d5906128a2565b80601f0160208091040260200160405190810160405280929190818152602001828054610901906128a2565b801561094e5780601f106109235761010080835404028352916020019161094e565b820191906000526020600020905b81548152906001019060200180831161093157829003601f168201915b50505091835250506007919091015460ff1615156020909101526002546040516370a0823160e01b81526001600160a01b038781166004830152929350600092909116906370a0823190602401602060405180830381865afa1580156109b8573d6000803e3d6000fd5b505050506040513d601f19601f820116820180604052508101906109dc919061291f565b905060008111610a4b5760405162461bcd60e51b815260206004820152603460248201527f45786368616e67653a204275796572206e6f206c6f6e676572206f776e732074604482015273686520766f756368657220746f2072656465656d60601b6064820152608401610305565b6040805160e081018252845481526001850154602082015260028501546001600160a01b031691810191909152600384015460608201526004840154608082015260058085015460a08301526006850154610ada9291869160c084019160ff90911690811115610abd57610abd6124f4565b6005811115610ace57610ace6124f4565b90525060600151421190565b15610b6a5760068301805460ff1916600290811790915542600585015583546020840151828601546040860151610b1c946001600160a01b0390921691611b5d565b600283015483548351604051600181526001600160a01b03909316927f8dec8b8dd1b2fe4f598080d5307d230fb514013cea4d7527d3a81b9ad2d29e449060200160405180910390a4610c29565b60068301805460ff19166003179055610b8662093a804261294e565b60048481019190915560025484546040516315cf966160e31b8152928301526001600160a01b03169063ae7cb30890602401600060405180830381600087803b158015610bd257600080fd5b505af1158015610be6573d6000803e3d6000fd5b505050506020820151835483516040516001600160a01b03909316927f6d85f98056eb1b1174809a6b1b86979d2dd943f82456b96e7516f3e29272614e90600090a45b5050505050565b6000610c3a611f35565b6001600160a01b03909216600090815260019290920160205250604090205490565b604080516101008101825260008082526020820181905291810182905260608082018390526080820183905260a0820183905260c082015260e08101829052610ca483611f59565b60408051610100810182528254815260018301546001600160a01b0390811660208301526002840154928201929092526003830154606082015260048301549091166080820152600582015460a0820152600682018054839160c0840191610d0b906128a2565b80601f0160208091040260200160405190810160405280929190818152602001828054610d37906128a2565b8015610d845780601f10610d5957610100808354040283529160200191610d84565b820191906000526020600020905b815481529060010190602001808311610d6757829003601f168201915b50505091835250506007919091015460ff16151560209091015291959194509092505050565b6001546001600160a01b03163314610dd45760405162461bcd60e51b815260040161030590612858565b6000610ddf82611f8c565b90508015610e4157610dfa6001600160a01b038316826120c2565b816001600160a01b03167f884edad9ce6fa2440d8a54cc123490eb96d2768479d49ff9c7366125a942436482604051610e3591815260200190565b60405180910390a25050565b816001600160a01b03167ffff46debacacf1d64553e407812b8d47e1d90e2ecbe7e977a7c21f7ba527341782604051610e3591815260200190565b6000610e86611f35565b6001600160a01b03909216600090815260209290925250604090205490565b6001546001600160a01b03163314610ecf5760405162461bcd60e51b815260040161030590612858565b6000610eda82611ac5565b60018101549091506001600160a01b03848116911614610f485760405162461bcd60e51b815260206004820152602360248201527f45786368616e67653a2063616c6c6572206d757374206265207468652073656c6044820152623632b960e91b6064820152608401610305565b60078101805460ff191660011790556002810154600090610f6a9060c86121e0565b905080610f75611f35565b6001016000866001600160a01b03166001600160a01b031681526020019081526020016000206000828254610faa919061294e565b90915550506040516001600160a01b0385169084907fcc53b068bf198ba9f8afa109fc3d2f26e276a0b62190ccf736742dc12766251990600090a350505050565b6001546000906001600160a01b031633146110185760405162461bcd60e51b815260040161030590612858565b600061102383611ac5565b60408051610100810182528254815260018301546001600160a01b0390811660208301526002840154928201929092526003830154606082015260048301549091166080820152600582015460a082015260068201805491929160c08401919061108c906128a2565b80601f01602080910402602001604051908101604052809291908181526020018280546110b8906128a2565b80156111055780601f106110da57610100808354040283529160200191611105565b820191906000526020600020905b8154815290600101906020018083116110e857829003601f168201915b50505091835250506007919091015460ff16151560209091015260408101519091503410156111845760405162461bcd60e51b815260206004820152602560248201527f45786368616e67653a2056616c75652073656e74206d757374206265203e3d20604482015264707269636560d81b6064820152608401610305565b600061118e6121f9565b9050600061119b82611efe565b838155600181018790556002810180546001600160a01b0319166001600160a01b038a1617905591506111d3905062093a804261294e565b600382015560068101805460ff191690556111ee863461222a565b600254604051638da75e5760e01b81526001600160a01b0388811660048301526024820185905290911690638da75e5790604401600060405180830381600087803b15801561123c57600080fd5b505af1158015611250573d6000803e3d6000fd5b50505050856001600160a01b031682867fdc5c806bd64d78299502a0f0fc0845464d3edb2591af0e47b7876ccdf187993f60405160405180910390a4509150505b92915050565b6001546001600160a01b031633146112c15760405162461bcd60e51b815260040161030590612858565b60006112cc82611a1d565b60028101549091506001600160a01b038481169116146113395760405162461bcd60e51b815260206004820152602260248201527f45786368616e67653a2043616c6c6572206d757374206265207468652062757960448201526132b960f11b6064820152608401610305565b6000600682015460ff166005811115611354576113546124f4565b146113715760405162461bcd60e51b8152600401610305906128d6565b60068101805460ff19166002179055426005820155600181015460009061139790611ac5565b60408051610100810182528254815260018301546001600160a01b0390811660208301526002840154928201929092526003830154606082015260048301549091166080820152600582015460a082015260068201805491929160c084019190611400906128a2565b80601f016020809104026020016040519081016040528092919081815260200182805461142c906128a2565b80156114795780601f1061144e57610100808354040283529160200191611479565b820191906000526020600020905b81548152906001019060200180831161145c57829003601f168201915b50505091835250506007919091015460ff90811615156020928301528454918301516002860154604085015160068801549596506114c79592936001600160a01b0390921692909116611b5d565b600282015482548251604051600081526001600160a01b03909316927f8dec8b8dd1b2fe4f598080d5307d230fb514013cea4d7527d3a81b9ad2d29e449060200160405180910390a450505050565b6001546000906001600160a01b031633146115435760405162461bcd60e51b815260040161030590612858565b600061154d612286565b80845290508261155b611f35565b6000838152602091825260409081902083518155918301516001830180546001600160a01b03199081166001600160a01b0393841617909155918401516002840155606084015160038401556080840151600484018054909316911617905560a0820151600582015560c082015160068201906115d890826129af565b5060e091909101516007909101805460ff19169115159190911790556020830151611603903461222a565b82602001516001600160a01b0316817f4166341f02fe3a22be876be670b58295229a42b375600de72372efced0541d03856040516116419190612a6f565b60405180910390a390505b919050565b6001546001600160a01b0316331461167b5760405162461bcd60e51b815260040161030590612858565b6116836119c4565b600061168e82611a1d565b90506000600682015460ff1660058111156116ab576116ab6124f4565b146116c85760405162461bcd60e51b8152600401610305906128d6565b60006116d78260010154611ac5565b60408051610100810182528254815260018301546001600160a01b0390811660208301526002840154928201929092526003830154606082015260048301549091166080820152600582015460a082015260068201805491929160c084019190611740906128a2565b80601f016020809104026020016040519081016040528092919081815260200182805461176c906128a2565b80156117b95780601f1061178e576101008083540402835291602001916117b9565b820191906000526020600020905b81548152906001019060200180831161179c57829003601f168201915b50505091835250506007919091015460ff1615156020918201528101519091506001600160a01b0385811691161461183f5760405162461bcd60e51b815260206004820152602360248201527f45786368616e67653a2053656c6c6572206d757374206265207468652063616c6044820152623632b960e91b6064820152608401610305565b6040805160e081018252835481526001840154602082015260028401546001600160a01b031691810191909152600383015460608201526004830154608082015260058084015460a083015260068401546118b19291859160c084019160ff90911690811115610abd57610abd6124f4565b156119415760068201805460ff19166002908117909155426005840155825460208301518285015460408501516118f3946001600160a01b0390921691611b5d565b600282015482548251604051600181526001600160a01b03909316927f8dec8b8dd1b2fe4f598080d5307d230fb514013cea4d7527d3a81b9ad2d29e449060200160405180910390a46119b8565b60068201805460ff19166001908117909155426005840155825460208301516002850154604085015161197f946001600160a01b0390921691611b5d565b80516040516001600160a01b0386169185917f1d07c9bd27f4d10b94a6f6b5bf93f8e2a369f48f90ea146909eefc0fa2a4289e90600090a45b50506106cf6001600055565b600260005403611a165760405162461bcd60e51b815260206004820152601f60248201527f5265656e7472616e637947756172643a207265656e7472616e742063616c6c006044820152606401610305565b6002600055565b600080611a28611f35565b6000848152600191909101602052604090209150611a4583611efe565b9250905080611a8f5760405162461bcd60e51b8152602060048201526016602482015275115e18da185b99d948191bd95cdb89dd08195e1a5cdd60521b6044820152606401610305565b50919050565b6000826001600160a01b031682604001516001600160a01b03161480611abe5750816080015142115b9392505050565b600080611ad183611f59565b9250905080611b185760405162461bcd60e51b815260206004820152601360248201527213d999995c88191bd95cdb89dd08195e1a5cdd606a1b6044820152606401610305565b600782015460ff1615611a8f5760405162461bcd60e51b815260206004820152600d60248201526c13d999995c881a5cc81d9bda59609a1b6044820152606401610305565b6002816005811115611b7157611b716124f4565b03611ce7576000611b838360c86121e0565b9050611b908486836122b1565b6000611b9c8285612a82565b905081611ba7611f35565b6001016000886001600160a01b03166001600160a01b031681526020019081526020016000206000828254611bdc919061294e565b90915550819050611beb611f35565b6001016000876001600160a01b03166001600160a01b031681526020019081526020016000206000828254611c20919061294e565b90915550506002546040516315cf966160e31b8152600481018990526001600160a01b039091169063ae7cb30890602401600060405180830381600087803b158015611c6b57600080fd5b505af1158015611c7f573d6000803e3d6000fd5b5050604080516001600160a01b038a16815260208101869052600080516020612af0833981519152935001905060405180910390a1604080516001600160a01b038716815260208101839052600080516020612af0833981519152910160405180910390a150505b6001816005811115611cfb57611cfb6124f4565b03611dfd576000611d0d8360c86121e0565b9050611d1a8585836122b1565b6000611d26828561294e565b905080611d31611f35565b6001016000876001600160a01b03166001600160a01b031681526020019081526020016000206000828254611d66919061294e565b90915550506002546040516315cf966160e31b8152600481018990526001600160a01b039091169063ae7cb30890602401600060405180830381600087803b158015611db157600080fd5b505af1158015611dc5573d6000803e3d6000fd5b5050604080516001600160a01b038916815260208101859052600080516020612af0833981519152935001905060405180910390a150505b6004816005811115611e1157611e116124f4565b03610c29576000611e248361012c6121e0565b9050611e318486856122b1565b611e3b858261238b565b6000611e478285612a82565b905080611e52611f35565b6001016000886001600160a01b03166001600160a01b031681526020019081526020016000206000828254611e87919061294e565b9091555050604080516001600160a01b038816815260208101839052600080516020612af0833981519152910160405180910390a160408051888152602081018490527faf7c505ee772ec188af7067e1f73db08ab028e3d564273442b907742b9c41fa0910160405180910390a150505050505050565b600080611f09611f35565b600084815260019190910160205260409020805490915015801590611f2e5750805483145b9150915091565b7fc06702e3e73f0bcfe4234b77daf9a9e45825ed672bfa96c4c8d7aaeb4e173ac990565b600080611f64611f35565b600084815260209190915260409020805490915015801590611f2e5750805483149150915091565b6000611f96611f35565b6001600160a01b038316600090815260019190910160205260408120549150611fbd611f35565b6001600160a01b0384166000908152602091909152604090205490508181101561201f5760405162461bcd60e51b8152602060048201526013602482015272496e73756666696369656e742066756e64732160681b6044820152606401610305565b81612028611f35565b6001600160a01b0385166000908152602091909152604081208054909190612051908490612a82565b90915550829050612060611f35565b6001016000856001600160a01b03166001600160a01b0316815260200190815260200160002060008282546120959190612a82565b909155508290506120a4611f35565b60030160008282546120b69190612a82565b90915550919392505050565b804710156121125760405162461bcd60e51b815260206004820152601d60248201527f416464726573733a20696e73756666696369656e742062616c616e63650000006044820152606401610305565b6000826001600160a01b03168260405160006040518083038185875af1925050503d806000811461215f576040519150601f19603f3d011682016040523d82523d6000602084013e612164565b606091505b50509050806121db5760405162461bcd60e51b815260206004820152603a60248201527f416464726573733a20756e61626c6520746f2073656e642076616c75652c207260448201527f6563697069656e74206d617920686176652072657665727465640000000000006064820152608401610305565b505050565b60006127106121ef8385612a95565b611abe9190612ab4565b6000612203611f35565b600101805490600061221483612ad6565b9190505550612221611f35565b60010154905090565b80612233611f35565b6001600160a01b038416600090815260209190915260408120805490919061225c90849061294e565b9091555081905061226b611f35565b600301600082825461227d919061294e565b90915550505050565b6000612290611f35565b805490600061229e83612ad6565b91905055506122ab611f35565b54919050565b806122ba611f35565b6001600160a01b0385166000908152602091909152604090205410156123175760405162461bcd60e51b8152602060048201526012602482015271496e73756666696369656e742066756e647360701b6044820152606401610305565b80612320611f35565b6001600160a01b0385166000908152602091909152604081208054909190612349908490612a82565b90915550819050612358611f35565b6001600160a01b038416600090815260209190915260408120805490919061238190849061294e565b9091555050505050565b80612394611f35565b6001600160a01b0384166000908152602091909152604090205410156123f15760405162461bcd60e51b8152602060048201526012602482015271496e73756666696369656e742066756e647360701b6044820152606401610305565b806123fa611f35565b6001600160a01b0384166000908152602091909152604081208054909190612423908490612a82565b90915550819050612432611f35565b600201600082825461227d919061294e565b6040518060e00160405280600081526020016000815260200160006001600160a01b0316815260200160008152602001600081526020016000815260200160006005811115612495576124956124f4565b905290565b80356001600160a01b038116811461164c57600080fd5b600080604083850312156124c457600080fd5b6124cd8361249a565b946020939093013593505050565b6000602082840312156124ed57600080fd5b5035919050565b634e487b7160e01b600052602160045260246000fd5b6000610100820190508315158252825160208301526020830151604083015260018060a01b03604084015116606083015260608301516080830152608083015160a083015260a083015160c083015260c08301516006811061257c57634e487b7160e01b600052602160045260246000fd5b8060e0840152509392505050565b60006020828403121561259c57600080fd5b611abe8261249a565b60006101008251845260208084015160018060a01b03808216838801526040860151604088015260608601516060880152806080870151166080880152505060a084015160a086015260c08401518260c087015280518084880152600093505b8084101561262457818401830151878501610120015292820192612605565b6101209350600084828901015260e0860151925061264660e088018415159052565b601f01601f191695909501909101949350505050565b821515815260406020820152600061267760408301846125a5565b949350505050565b6000806040838503121561269257600080fd5b61269b8361249a565b91506126a96020840161249a565b90509250929050565b634e487b7160e01b600052604160045260246000fd5b604051610100810167ffffffffffffffff811182821017156126ec576126ec6126b2565b60405290565b600082601f83011261270357600080fd5b813567ffffffffffffffff8082111561271e5761271e6126b2565b604051601f8301601f19908116603f01168101908282118183101715612746576127466126b2565b8160405283815286602085880101111561275f57600080fd5b836020870160208301376000602085830101528094505050505092915050565b8035801515811461164c57600080fd5b6000602082840312156127a157600080fd5b813567ffffffffffffffff808211156127b957600080fd5b9083019061010082860312156127ce57600080fd5b6127d66126c8565b823581526127e66020840161249a565b6020820152604083013560408201526060830135606082015261280b6080840161249a565b608082015260a083013560a082015260c08301358281111561282c57600080fd5b612838878286016126f2565b60c08301525061284a60e0840161277f565b60e082015295945050505050565b6020808252602a908201527f45786368616e67653a2063616e206f6e6c792062652063616c6c6564206279206040820152693a3432903937baba32b960b11b606082015260800190565b600181811c908216806128b657607f821691505b602082108103611a8f57634e487b7160e01b600052602260045260246000fd5b60208082526029908201527f45786368616e67653a2057726f6e672073746174652e2045787065637465642060408201526818dbdb5b5a5d1d195960ba1b606082015260800190565b60006020828403121561293157600080fd5b5051919050565b634e487b7160e01b600052601160045260246000fd5b8082018082111561129157611291612938565b601f8211156121db57600081815260208120601f850160051c810160208610156129885750805b601f850160051c820191505b818110156129a757828155600101612994565b505050505050565b815167ffffffffffffffff8111156129c9576129c96126b2565b6129dd816129d784546128a2565b84612961565b602080601f831160018114612a1257600084156129fa5750858301515b600019600386901b1c1916600185901b1785556129a7565b600085815260208120601f198616915b82811015612a4157888601518255948401946001909101908401612a22565b5085821015612a5f5787850151600019600388901b60f8161c191681555b5050505050600190811b01905550565b602081526000611abe60208301846125a5565b8181038181111561129157611291612938565b6000816000190483118215151615612aaf57612aaf612938565b500290565b600082612ad157634e487b7160e01b600052601260045260246000fd5b500490565b600060018201612ae857612ae8612938565b506001019056fe13469439acc025e28120c6571a43c956b725cf74227cecb3644c3d1a8cef5f3ea2646970667358221220636256b29fc2f176ae4338691d8131df4cc5352959ae7e8aeedf64386c42cc5664736f6c63430008100033",
    "linkReferences": {}
  },
  "methodIdentifiers": {
    "cancel(address,uint256)": "98590ef9",
    "commit(address,uint256)": "84bf1535",
    "createOffer((uint256,address,uint256,uint256,address,uint256,string,bool))": "c01fd3f7",
    "finalize(address,uint256)": "0553e156",
    "getAvailableToWithdrawEscrowBalance(address)": "33f5737c",
    "getEscrowBalance(address)": "6374b11b",
    "getExchange(uint256)": "0b9d5847",
    "getOffer(uint256)": "4579268a",
    "getProtocolBalance()": "14e7c922",
    "initialize(address,address)": "485cc955",
    "redeem(address,uint256)": "1e9a6950",
    "revoke(address,uint256)": "eac449d9",
    "voidOffer(address,uint256)": "7c580570",
    "withdraw(address)": "51cff8d9"
  },
  "id": 36
}