{
  "abi": [
    {
      "inputs": [],
      "stateMutability": "nonpayable",
      "type": "constructor"
    },
    {
      "anonymous": false,
      "inputs": [
        {
          "indexed": true,
          "internalType": "address",
          "name": "owner",
          "type": "address"
        },
        {
          "indexed": true,
          "internalType": "address",
          "name": "approved",
          "type": "address"
        },
        {
          "indexed": true,
          "internalType": "uint256",
          "name": "tokenId",
          "type": "uint256"
        }
      ],
      "name": "Approval",
      "type": "event"
    },
    {
      "anonymous": false,
      "inputs": [
        {
          "indexed": true,
          "internalType": "address",
          "name": "owner",
          "type": "address"
        },
        {
          "indexed": true,
          "internalType": "address",
          "name": "operator",
          "type": "address"
        },
        {
          "indexed": false,
          "internalType": "bool",
          "name": "approved",
          "type": "bool"
        }
      ],
      "name": "ApprovalForAll",
      "type": "event"
    },
    {
      "anonymous": false,
      "inputs": [
        {
          "indexed": true,
          "internalType": "address",
          "name": "from",
          "type": "address"
        },
        {
          "indexed": true,
          "internalType": "address",
          "name": "to",
          "type": "address"
        },
        {
          "indexed": true,
          "internalType": "uint256",
          "name": "tokenId",
          "type": "uint256"
        }
      ],
      "name": "Transfer",
      "type": "event"
    },
    {
      "inputs": [
        {
          "internalType": "address",
          "name": "to",
          "type": "address"
        },
        {
          "internalType": "uint256",
          "name": "tokenId",
          "type": "uint256"
        }
      ],
      "name": "approve",
      "outputs": [],
      "stateMutability": "nonpayable",
      "type": "function"
    },
    {
      "inputs": [
        {
          "internalType": "address",
          "name": "owner",
          "type": "address"
        }
      ],
      "name": "balanceOf",
      "outputs": [
        {
          "internalType": "uint256",
          "name": "",
          "type": "uint256"
        }
      ],
      "stateMutability": "view",
      "type": "function"
    },
    {
      "inputs": [
        {
          "internalType": "uint256",
          "name": "tokenId",
          "type": "uint256"
        }
      ],
      "name": "burn",
      "outputs": [],
      "stateMutability": "nonpayable",
      "type": "function"
    },
    {
      "inputs": [
        {
          "internalType": "uint256",
          "name": "_exchangeId",
          "type": "uint256"
        }
      ],
      "name": "burnVoucher",
      "outputs": [],
      "stateMutability": "nonpayable",
      "type": "function"
    },
    {
      "inputs": [
        {
          "internalType": "uint256",
          "name": "tokenId",
          "type": "uint256"
        }
      ],
      "name": "getApproved",
      "outputs": [
        {
          "internalType": "address",
          "name": "",
          "type": "address"
        }
      ],
      "stateMutability": "view",
      "type": "function"
    },
    {
      "inputs": [
        {
          "internalType": "address",
          "name": "_exchange",
          "type": "address"
        }
      ],
      "name": "initialize",
      "outputs": [],
      "stateMutability": "nonpayable",
      "type": "function"
    },
    {
      "inputs": [
        {
          "internalType": "address",
          "name": "owner",
          "type": "address"
        },
        {
          "internalType": "address",
          "name": "operator",
          "type": "address"
        }
      ],
      "name": "isApprovedForAll",
      "outputs": [
        {
          "internalType": "bool",
          "name": "",
          "type": "bool"
        }
      ],
      "stateMutability": "view",
      "type": "function"
    },
    {
      "inputs": [
        {
          "internalType": "address",
          "name": "_to",
          "type": "address"
        },
        {
          "internalType": "uint256",
          "name": "_exchangeId",
          "type": "uint256"
        }
      ],
      "name": "issueVoucher",
      "outputs": [],
      "stateMutability": "nonpayable",
      "type": "function"
    },
    {
      "inputs": [],
      "name": "name",
      "outputs": [
        {
          "internalType": "string",
          "name": "",
          "type": "string"
        }
      ],
      "stateMutability": "view",
      "type": "function"
    },
    {
      "inputs": [
        {
          "internalType": "uint256",
          "name": "tokenId",
          "type": "uint256"
        }
      ],
      "name": "ownerOf",
      "outputs": [
        {
          "internalType": "address",
          "name": "",
          "type": "address"
        }
      ],
      "stateMutability": "view",
      "type": "function"
    },
    {
      "inputs": [
        {
          "internalType": "address",
          "name": "from",
          "type": "address"
        },
        {
          "internalType": "address",
          "name": "to",
          "type": "address"
        },
        {
          "internalType": "uint256",
          "name": "tokenId",
          "type": "uint256"
        }
      ],
      "name": "safeTransferFrom",
      "outputs": [],
      "stateMutability": "nonpayable",
      "type": "function"
    },
    {
      "inputs": [
        {
          "internalType": "address",
          "name": "from",
          "type": "address"
        },
        {
          "internalType": "address",
          "name": "to",
          "type": "address"
        },
        {
          "internalType": "uint256",
          "name": "tokenId",
          "type": "uint256"
        },
        {
          "internalType": "bytes",
          "name": "data",
          "type": "bytes"
        }
      ],
      "name": "safeTransferFrom",
      "outputs": [],
      "stateMutability": "nonpayable",
      "type": "function"
    },
    {
      "inputs": [
        {
          "internalType": "address",
          "name": "operator",
          "type": "address"
        },
        {
          "internalType": "bool",
          "name": "approved",
          "type": "bool"
        }
      ],
      "name": "setApprovalForAll",
      "outputs": [],
      "stateMutability": "nonpayable",
      "type": "function"
    },
    {
      "inputs": [
        {
          "internalType": "bytes4",
          "name": "interfaceId",
          "type": "bytes4"
        }
      ],
      "name": "supportsInterface",
      "outputs": [
        {
          "internalType": "bool",
          "name": "",
          "type": "bool"
        }
      ],
      "stateMutability": "view",
      "type": "function"
    },
    {
      "inputs": [],
      "name": "symbol",
      "outputs": [
        {
          "internalType": "string",
          "name": "",
          "type": "string"
        }
      ],
      "stateMutability": "view",
      "type": "function"
    },
    {
      "inputs": [
        {
          "internalType": "uint256",
          "name": "tokenId",
          "type": "uint256"
        }
      ],
      "name": "tokenURI",
      "outputs": [
        {
          "internalType": "string",
          "name": "",
          "type": "string"
        }
      ],
      "stateMutability": "view",
      "type": "function"
    },
    {
      "inputs": [
        {
          "internalType": "address",
          "name": "from",
          "type": "address"
        },
        {
          "internalType": "address",
          "name": "to",
          "type": "address"
        },
        {
          "internalType": "uint256",
          "name": "tokenId",
          "type": "uint256"
        }
      ],
      "name": "transferFrom",
      "outputs": [],
      "stateMutability": "nonpayable",
      "type": "function"
    }
  ],
  "bytecode": {
    "object": "0x60806040523480156200001157600080fd5b506040518060400160405280600d81526020016c2134b7b732ba2b37bab1b432b960991b8152506040518060400160405280600481526020016321272a2b60e11b815250816000908162000066919062000123565b50600162000075828262000123565b505050620001ef565b634e487b7160e01b600052604160045260246000fd5b600181811c90821680620000a957607f821691505b602082108103620000ca57634e487b7160e01b600052602260045260246000fd5b50919050565b601f8211156200011e57600081815260208120601f850160051c81016020861015620000f95750805b601f850160051c820191505b818110156200011a5782815560010162000105565b5050505b505050565b81516001600160401b038111156200013f576200013f6200007e565b620001578162000150845462000094565b84620000d0565b602080601f8311600181146200018f5760008415620001765750858301515b600019600386901b1c1916600185901b1785556200011a565b600085815260208120601f198616915b82811015620001c0578886015182559484019460019091019084016200019f565b5085821015620001df5787850151600019600388901b60f8161c191681555b5050505050600190811b01905550565b61157680620001ff6000396000f3fe608060405234801561001057600080fd5b506004361061010b5760003560e01c806370a08231116100a2578063ae7cb30811610071578063ae7cb30814610228578063b88d4fde1461023b578063c4d66de81461024e578063c87b56dd1461027e578063e985e9c51461029157600080fd5b806370a08231146101d95780638da75e57146101fa57806395d89b411461020d578063a22cb4651461021557600080fd5b806323b872dd116100de57806323b872dd1461018d57806342842e0e146101a057806342966c68146101b35780636352211e146101c657600080fd5b806301ffc9a71461011057806306fdde0314610138578063081812fc1461014d578063095ea7b314610178575b600080fd5b61012361011e3660046110c6565b6102a4565b60405190151581526020015b60405180910390f35b6101406102f6565b60405161012f9190611133565b61016061015b366004611146565b610388565b6040516001600160a01b03909116815260200161012f565b61018b61018636600461117b565b6103af565b005b61018b61019b3660046111a5565b6104c9565b61018b6101ae3660046111a5565b6104fb565b61018b6101c1366004611146565b610516565b6101606101d4366004611146565b610547565b6101ec6101e73660046111e1565b6105a7565b60405190815260200161012f565b61018b61020836600461117b565b61062d565b610140610690565b61018b6102233660046111fc565b61069f565b61018b610236366004611146565b6106aa565b61018b61024936600461124e565b610708565b61018b61025c3660046111e1565b600680546001600160a01b0319166001600160a01b0392909216919091179055565b61014061028c366004611146565b610740565b61012361029f36600461132a565b6107b4565b60006001600160e01b031982166380ac58cd60e01b14806102d557506001600160e01b03198216635b5e139f60e01b145b806102f057506301ffc9a760e01b6001600160e01b03198316145b92915050565b6060600080546103059061135d565b80601f01602080910402602001604051908101604052809291908181526020018280546103319061135d565b801561037e5780601f106103535761010080835404028352916020019161037e565b820191906000526020600020905b81548152906001019060200180831161036157829003601f168201915b5050505050905090565b6000610393826107e2565b506000908152600460205260409020546001600160a01b031690565b60006103ba82610547565b9050806001600160a01b0316836001600160a01b03160361042c5760405162461bcd60e51b815260206004820152602160248201527f4552433732313a20617070726f76616c20746f2063757272656e74206f776e656044820152603960f91b60648201526084015b60405180910390fd5b336001600160a01b0382161480610448575061044881336107b4565b6104ba5760405162461bcd60e51b815260206004820152603d60248201527f4552433732313a20617070726f76652063616c6c6572206973206e6f7420746f60448201527f6b656e206f776e6572206f7220617070726f76656420666f7220616c6c0000006064820152608401610423565b6104c48383610841565b505050565b6104d4335b826108af565b6104f05760405162461bcd60e51b815260040161042390611397565b6104c483838361090e565b6104c483838360405180602001604052806000815250610708565b61051f336104ce565b61053b5760405162461bcd60e51b815260040161042390611397565b61054481610a7f565b50565b6000818152600260205260408120546001600160a01b0316806102f05760405162461bcd60e51b8152602060048201526018602482015277115490cdcc8c4e881a5b9d985b1a59081d1bdad95b88125160421b6044820152606401610423565b60006001600160a01b0382166106115760405162461bcd60e51b815260206004820152602960248201527f4552433732313a2061646472657373207a65726f206973206e6f7420612076616044820152683634b21037bbb732b960b91b6064820152608401610423565b506001600160a01b031660009081526003602052604090205490565b600654604080518082019091526011815270155b985d5d1a1bdc9a5e99590818d85b1b607a1b6020820152906001600160a01b031633146106815760405162461bcd60e51b81526004016104239190611133565b5061068c8282610b22565b5050565b6060600180546103059061135d565b61068c338383610cbb565b600654604080518082019091526011815270155b985d5d1a1bdc9a5e99590818d85b1b607a1b6020820152906001600160a01b031633146106fe5760405162461bcd60e51b81526004016104239190611133565b5061054481610a7f565b61071233836108af565b61072e5760405162461bcd60e51b815260040161042390611397565b61073a84848484610d89565b50505050565b606061074b826107e2565b600061076260408051602081019091526000815290565b9050600081511161078257604051806020016040528060008152506107ad565b8061078c84610dbc565b60405160200161079d9291906113e4565b6040516020818303038152906040525b9392505050565b6001600160a01b03918216600090815260056020908152604080832093909416825291909152205460ff1690565b6000818152600260205260409020546001600160a01b03166105445760405162461bcd60e51b8152602060048201526018602482015277115490cdcc8c4e881a5b9d985b1a59081d1bdad95b88125160421b6044820152606401610423565b600081815260046020526040902080546001600160a01b0319166001600160a01b038416908117909155819061087682610547565b6001600160a01b03167f8c5be1e5ebec7d5bd14f71427d1e84f3dd0314c0f7b2291e5b200ac8c7c3b92560405160405180910390a45050565b6000806108bb83610547565b9050806001600160a01b0316846001600160a01b031614806108e257506108e281856107b4565b806109065750836001600160a01b03166108fb84610388565b6001600160a01b0316145b949350505050565b826001600160a01b031661092182610547565b6001600160a01b0316146109475760405162461bcd60e51b815260040161042390611413565b6001600160a01b0382166109a95760405162461bcd60e51b8152602060048201526024808201527f4552433732313a207472616e7366657220746f20746865207a65726f206164646044820152637265737360e01b6064820152608401610423565b6109b68383836001610e4f565b826001600160a01b03166109c982610547565b6001600160a01b0316146109ef5760405162461bcd60e51b815260040161042390611413565b600081815260046020908152604080832080546001600160a01b03199081169091556001600160a01b0387811680865260038552838620805460001901905590871680865283862080546001019055868652600290945282852080549092168417909155905184937fddf252ad1be2c89b69c2b068fc378daa952ba7f163c4a11628f55a4df523b3ef91a4505050565b6000610a8a82610547565b9050610a9a816000846001610e4f565b610aa382610547565b600083815260046020908152604080832080546001600160a01b03199081169091556001600160a01b0385168085526003845282852080546000190190558785526002909352818420805490911690555192935084927fddf252ad1be2c89b69c2b068fc378daa952ba7f163c4a11628f55a4df523b3ef908390a45050565b6001600160a01b038216610b785760405162461bcd60e51b815260206004820181905260248201527f4552433732313a206d696e7420746f20746865207a65726f20616464726573736044820152606401610423565b6000818152600260205260409020546001600160a01b031615610bdd5760405162461bcd60e51b815260206004820152601c60248201527f4552433732313a20746f6b656e20616c7265616479206d696e746564000000006044820152606401610423565b610beb600083836001610e4f565b6000818152600260205260409020546001600160a01b031615610c505760405162461bcd60e51b815260206004820152601c60248201527f4552433732313a20746f6b656e20616c7265616479206d696e746564000000006044820152606401610423565b6001600160a01b038216600081815260036020908152604080832080546001019055848352600290915280822080546001600160a01b0319168417905551839291907fddf252ad1be2c89b69c2b068fc378daa952ba7f163c4a11628f55a4df523b3ef908290a45050565b816001600160a01b0316836001600160a01b031603610d1c5760405162461bcd60e51b815260206004820152601960248201527f4552433732313a20617070726f766520746f2063616c6c6572000000000000006044820152606401610423565b6001600160a01b03838116600081815260056020908152604080832094871680845294825291829020805460ff191686151590811790915591519182527f17307eab39ab6107e8899845ad3d59bd9653f200f220920489ca2b5937696c31910160405180910390a3505050565b610d9484848461090e565b610da084848484610ed7565b61073a5760405162461bcd60e51b815260040161042390611458565b60606000610dc983610fd8565b600101905060008167ffffffffffffffff811115610de957610de9611238565b6040519080825280601f01601f191660200182016040528015610e13576020820181803683370190505b5090508181016020015b600019016f181899199a1a9b1b9c1cb0b131b232b360811b600a86061a8153600a8504945084610e1d57509392505050565b600181111561073a576001600160a01b03841615610e95576001600160a01b03841660009081526003602052604081208054839290610e8f9084906114c0565b90915550505b6001600160a01b0383161561073a576001600160a01b03831660009081526003602052604081208054839290610ecc9084906114d3565b909155505050505050565b60006001600160a01b0384163b15610fcd57604051630a85bd0160e11b81526001600160a01b0385169063150b7a0290610f1b9033908990889088906004016114e6565b6020604051808303816000875af1925050508015610f56575060408051601f3d908101601f19168201909252610f5391810190611523565b60015b610fb3573d808015610f84576040519150601f19603f3d011682016040523d82523d6000602084013e610f89565b606091505b508051600003610fab5760405162461bcd60e51b815260040161042390611458565b805181602001fd5b6001600160e01b031916630a85bd0160e11b149050610906565b506001949350505050565b60008072184f03e93ff9f4daa797ed6e38ed64bf6a1f0160401b83106110175772184f03e93ff9f4daa797ed6e38ed64bf6a1f0160401b830492506040015b6d04ee2d6d415b85acef81000000008310611043576d04ee2d6d415b85acef8100000000830492506020015b662386f26fc10000831061106157662386f26fc10000830492506010015b6305f5e1008310611079576305f5e100830492506008015b612710831061108d57612710830492506004015b6064831061109f576064830492506002015b600a83106102f05760010192915050565b6001600160e01b03198116811461054457600080fd5b6000602082840312156110d857600080fd5b81356107ad816110b0565b60005b838110156110fe5781810151838201526020016110e6565b50506000910152565b6000815180845261111f8160208601602086016110e3565b601f01601f19169290920160200192915050565b6020815260006107ad6020830184611107565b60006020828403121561115857600080fd5b5035919050565b80356001600160a01b038116811461117657600080fd5b919050565b6000806040838503121561118e57600080fd5b6111978361115f565b946020939093013593505050565b6000806000606084860312156111ba57600080fd5b6111c38461115f565b92506111d16020850161115f565b9150604084013590509250925092565b6000602082840312156111f357600080fd5b6107ad8261115f565b6000806040838503121561120f57600080fd5b6112188361115f565b91506020830135801515811461122d57600080fd5b809150509250929050565b634e487b7160e01b600052604160045260246000fd5b6000806000806080858703121561126457600080fd5b61126d8561115f565b935061127b6020860161115f565b925060408501359150606085013567ffffffffffffffff8082111561129f57600080fd5b818701915087601f8301126112b357600080fd5b8135818111156112c5576112c5611238565b604051601f8201601f19908116603f011681019083821181831017156112ed576112ed611238565b816040528281528a602084870101111561130657600080fd5b82602086016020830137600060208483010152809550505050505092959194509250565b6000806040838503121561133d57600080fd5b6113468361115f565b91506113546020840161115f565b90509250929050565b600181811c9082168061137157607f821691505b60208210810361139157634e487b7160e01b600052602260045260246000fd5b50919050565b6020808252602d908201527f4552433732313a2063616c6c6572206973206e6f7420746f6b656e206f776e6560408201526c1c881bdc88185c1c1c9bdd9959609a1b606082015260800190565b600083516113f68184602088016110e3565b83519083019061140a8183602088016110e3565b01949350505050565b60208082526025908201527f4552433732313a207472616e736665722066726f6d20696e636f72726563742060408201526437bbb732b960d91b606082015260800190565b60208082526032908201527f4552433732313a207472616e7366657220746f206e6f6e20455243373231526560408201527131b2b4bb32b91034b6b83632b6b2b73a32b960711b606082015260800190565b634e487b7160e01b600052601160045260246000fd5b818103818111156102f0576102f06114aa565b808201808211156102f0576102f06114aa565b6001600160a01b038581168252841660208201526040810183905260806060820181905260009061151990830184611107565b9695505050505050565b60006020828403121561153557600080fd5b81516107ad816110b056fea26469706673582212207d9761dec3325d2baaf3551406441866910a231b944f15a3e3ede5b52cafb13364736f6c63430008100033",
    "linkReferences": {}
  },
  "methodIdentifiers": {
    "approve(address,uint256)": "095ea7b3",
    "balanceOf(address)": "70a08231",
    "burn(uint256)": "42966c68",
    "burnVoucher(uint256)": "ae7cb308",
    "getApproved(uint256)": "081812fc",
    "initialize(address)": "c4d66de8",
    "isApprovedForAll(address,address)": "e985e9c5",
    "issueVoucher(address,uint256)": "8da75e57",
    "name()": "06fdde03",
    "ownerOf(uint256)": "6352211e",
    "safeTransferFrom(address,address,uint256)": "42842e0e",
    "safeTransferFrom(address,address,uint256,bytes)": "b88d4fde",
    "setApprovalForAll(address,bool)": "a22cb465",
    "supportsInterface(bytes4)": "01ffc9a7",
    "symbol()": "95d89b41",
    "tokenURI(uint256)": "c87b56dd",
    "transferFrom(address,address,uint256)": "23b872dd"
  },
  "id": 41
}