{
  "abi": [
    {
      "anonymous": false,
      "inputs": [
        {
          "indexed": true,
          "internalType": "uint256",
          "name": "offerId",
          "type": "uint256"
        },
        {
          "indexed": true,
          "internalType": "uint256",
          "name": "exchangeId",
          "type": "uint256"
        },
        {
          "indexed": true,
          "internalType": "address",
          "name": "buyer",
          "type": "address"
        },
        {
          "indexed": false,
          "internalType": "bool",
          "name": "timerExpired",
          "type": "bool"
        }
      ],
      "name": "ExchangeCanceled",
      "type": "event"
    },
    {
      "anonymous": false,
      "inputs": [
        {
          "indexed": true,
          "internalType": "uint256",
          "name": "offerId",
          "type": "uint256"
        },
        {
          "indexed": true,
          "internalType": "uint256",
          "name": "exchangeId",
          "type": "uint256"
        },
        {
          "indexed": false,
          "internalType": "uint256",
          "name": "timestamp",
          "type": "uint256"
        }
      ],
      "name": "ExchangeCompleted",
      "type": "event"
    },
    {
      "anonymous": false,
      "inputs": [
        {
          "indexed": true,
          "internalType": "uint256",
          "name": "offerId",
          "type": "uint256"
        },
        {
          "indexed": true,
          "internalType": "uint256",
          "name": "exchangeId",
          "type": "uint256"
        },
        {
          "indexed": true,
          "internalType": "address",
          "name": "buyer",
          "type": "address"
        }
      ],
      "name": "ExchangeCreated",
      "type": "event"
    },
    {
      "anonymous": false,
      "inputs": [
        {
          "indexed": true,
          "internalType": "uint256",
          "name": "offerId",
          "type": "uint256"
        },
        {
          "indexed": true,
          "internalType": "uint256",
          "name": "exchangeId",
          "type": "uint256"
        },
        {
          "indexed": true,
          "internalType": "address",
          "name": "seller",
          "type": "address"
        },
        {
          "indexed": false,
          "internalType": "uint256",
          "name": "timestamp",
          "type": "uint256"
        }
      ],
      "name": "ExchangeRedeemed",
      "type": "event"
    },
    {
      "anonymous": false,
      "inputs": [
        {
          "indexed": true,
          "internalType": "uint256",
          "name": "offerId",
          "type": "uint256"
        },
        {
          "indexed": true,
          "internalType": "uint256",
          "name": "exchangeId",
          "type": "uint256"
        },
        {
          "indexed": true,
          "internalType": "address",
          "name": "seller",
          "type": "address"
        }
      ],
      "name": "ExchangeRevoked",
      "type": "event"
    },
    {
      "anonymous": false,
      "inputs": [
        {
          "indexed": true,
          "internalType": "uint256",
          "name": "offerId",
          "type": "uint256"
        },
        {
          "indexed": true,
          "internalType": "address",
          "name": "seller",
          "type": "address"
        },
        {
          "components": [
            {
              "internalType": "uint256",
              "name": "id",
              "type": "uint256"
            },
            {
              "internalType": "address",
              "name": "seller",
              "type": "address"
            },
            {
              "internalType": "uint256",
              "name": "price",
              "type": "uint256"
            },
            {
              "internalType": "uint256",
              "name": "quantityAvailable",
              "type": "uint256"
            },
            {
              "internalType": "address",
              "name": "assetToken",
              "type": "address"
            },
            {
              "internalType": "uint256",
              "name": "assetTokenId",
              "type": "uint256"
            },
            {
              "internalType": "string",
              "name": "metadataUri",
              "type": "string"
            },
            {
              "internalType": "bool",
              "name": "voided",
              "type": "bool"
            }
          ],
          "indexed": false,
          "internalType": "struct BionetTypes.Offer",
          "name": "offer",
          "type": "tuple"
        }
      ],
      "name": "OfferCreated",
      "type": "event"
    },
    {
      "anonymous": false,
      "inputs": [
        {
          "indexed": true,
          "internalType": "uint256",
          "name": "offerId",
          "type": "uint256"
        },
        {
          "indexed": true,
          "internalType": "address",
          "name": "seller",
          "type": "address"
        }
      ],
      "name": "OfferVoided",
      "type": "event"
    },
    {
      "inputs": [
        {
          "internalType": "address",
          "name": "_buyer",
          "type": "address"
        },
        {
          "internalType": "uint256",
          "name": "_exchangeId",
          "type": "uint256"
        }
      ],
      "name": "cancel",
      "outputs": [],
      "stateMutability": "nonpayable",
      "type": "function"
    },
    {
      "inputs": [
        {
          "internalType": "address",
          "name": "_buyer",
          "type": "address"
        },
        {
          "internalType": "uint256",
          "name": "_offerId",
          "type": "uint256"
        }
      ],
      "name": "commit",
      "outputs": [
        {
          "internalType": "uint256",
          "name": "",
          "type": "uint256"
        }
      ],
      "stateMutability": "payable",
      "type": "function"
    },
    {
      "inputs": [
        {
          "components": [
            {
              "internalType": "uint256",
              "name": "id",
              "type": "uint256"
            },
            {
              "internalType": "address",
              "name": "seller",
              "type": "address"
            },
            {
              "internalType": "uint256",
              "name": "price",
              "type": "uint256"
            },
            {
              "internalType": "uint256",
              "name": "quantityAvailable",
              "type": "uint256"
            },
            {
              "internalType": "address",
              "name": "assetToken",
              "type": "address"
            },
            {
              "internalType": "uint256",
              "name": "assetTokenId",
              "type": "uint256"
            },
            {
              "internalType": "string",
              "name": "metadataUri",
              "type": "string"
            },
            {
              "internalType": "bool",
              "name": "voided",
              "type": "bool"
            }
          ],
          "internalType": "struct BionetTypes.Offer",
          "name": "_offer",
          "type": "tuple"
        }
      ],
      "name": "createOffer",
      "outputs": [
        {
          "internalType": "uint256",
          "name": "",
          "type": "uint256"
        }
      ],
      "stateMutability": "nonpayable",
      "type": "function"
    },
    {
      "inputs": [
        {
          "internalType": "address",
          "name": "_buyer",
          "type": "address"
        },
        {
          "internalType": "uint256",
          "name": "_exchangeId",
          "type": "uint256"
        }
      ],
      "name": "finalize",
      "outputs": [],
      "stateMutability": "nonpayable",
      "type": "function"
    },
    {
      "inputs": [
        {
          "internalType": "uint256",
          "name": "_exchangeId",
          "type": "uint256"
        }
      ],
      "name": "getExchange",
      "outputs": [
        {
          "internalType": "bool",
          "name": "exists",
          "type": "bool"
        },
        {
          "components": [
            {
              "internalType": "uint256",
              "name": "id",
              "type": "uint256"
            },
            {
              "internalType": "uint256",
              "name": "offerId",
              "type": "uint256"
            },
            {
              "internalType": "address",
              "name": "buyer",
              "type": "address"
            },
            {
              "internalType": "uint256",
              "name": "redeemBy",
              "type": "uint256"
            },
            {
              "internalType": "uint256",
              "name": "disputeBy",
              "type": "uint256"
            },
            {
              "internalType": "uint256",
              "name": "finalizedDate",
              "type": "uint256"
            },
            {
              "internalType": "enum BionetTypes.ExchangeState",
              "name": "state",
              "type": "uint8"
            }
          ],
          "internalType": "struct BionetTypes.Exchange",
          "name": "exchange",
          "type": "tuple"
        }
      ],
      "stateMutability": "view",
      "type": "function"
    },
    {
      "inputs": [
        {
          "internalType": "uint256",
          "name": "_offerId",
          "type": "uint256"
        }
      ],
      "name": "getOffer",
      "outputs": [
        {
          "internalType": "bool",
          "name": "exists",
          "type": "bool"
        },
        {
          "components": [
            {
              "internalType": "uint256",
              "name": "id",
              "type": "uint256"
            },
            {
              "internalType": "address",
              "name": "seller",
              "type": "address"
            },
            {
              "internalType": "uint256",
              "name": "price",
              "type": "uint256"
            },
            {
              "internalType": "uint256",
              "name": "quantityAvailable",
              "type": "uint256"
            },
            {
              "internalType": "address",
              "name": "assetToken",
              "type": "address"
            },
            {
              "internalType": "uint256",
              "name": "assetTokenId",
              "type": "uint256"
            },
            {
              "internalType": "string",
              "name": "metadataUri",
              "type": "string"
            },
            {
              "internalType": "bool",
              "name": "voided",
              "type": "bool"
            }
          ],
          "internalType": "struct BionetTypes.Offer",
          "name": "offer",
          "type": "tuple"
        }
      ],
      "stateMutability": "view",
      "type": "function"
    },
    {
      "inputs": [
        {
          "internalType": "address",
          "name": "_router",
          "type": "address"
        },
        {
          "internalType": "address",
          "name": "_funds",
          "type": "address"
        },
        {
          "internalType": "address",
          "name": "_voucher",
          "type": "address"
        }
      ],
      "name": "initialize",
      "outputs": [],
      "stateMutability": "nonpayable",
      "type": "function"
    },
    {
      "inputs": [
        {
          "internalType": "address",
          "name": "_buyer",
          "type": "address"
        },
        {
          "internalType": "uint256",
          "name": "_exchangeId",
          "type": "uint256"
        }
      ],
      "name": "redeem",
      "outputs": [],
      "stateMutability": "nonpayable",
      "type": "function"
    },
    {
      "inputs": [
        {
          "internalType": "address",
          "name": "_caller",
          "type": "address"
        },
        {
          "internalType": "uint256",
          "name": "_exchangeId",
          "type": "uint256"
        }
      ],
      "name": "revoke",
      "outputs": [],
      "stateMutability": "payable",
      "type": "function"
    },
    {
      "inputs": [
        {
          "internalType": "address",
          "name": "_caller",
          "type": "address"
        },
        {
          "internalType": "uint256",
          "name": "_offerId",
          "type": "uint256"
        }
      ],
      "name": "voidOffer",
      "outputs": [],
      "stateMutability": "nonpayable",
      "type": "function"
    }
  ],
  "bytecode": {
    "object": "0x608060405234801561001057600080fd5b5060016000556121f1806100256000396000f3fe6080604052600436106100915760003560e01c806384bf15351161005957806384bf15351461015d57806398590ef91461017e578063c01fd3f71461019e578063c0c53b8b146101be578063eac449d91461021857600080fd5b80630553e156146100965780630b9d5847146100b85780631e9a6950146100ef5780634579268a1461010f5780637c5805701461013d575b600080fd5b3480156100a257600080fd5b506100b66100b1366004611c05565b61022b565b005b3480156100c457600080fd5b506100d86100d3366004611c2f565b61059c565b6040516100e6929190611c80565b60405180910390f35b3480156100fb57600080fd5b506100b661010a366004611c05565b61063a565b34801561011b57600080fd5b5061012f61012a366004611c2f565b610982565b6040516100e6929190611da8565b34801561014957600080fd5b506100b6610158366004611c05565b610ad0565b61017061016b366004611c05565b610bde565b6040519081526020016100e6565b34801561018a57600080fd5b506100b6610199366004611c05565b610efb565b3480156101aa57600080fd5b506101706101b9366004611ea8565b611167565b3480156101ca57600080fd5b506100b66101d9366004611f71565b600480546001600160a01b039485166001600160a01b031991821617909155600380549385169382169390931790925560058054919093169116179055565b6100b6610226366004611c05565b6112ca565b600454604080518082019091526011815270155b985d5d1a1bdc9a5e99590818d85b1b607a1b6020820152906001600160a01b031633146102885760405162461bcd60e51b815260040161027f9190611fb4565b60405180910390fd5b50600061029482611647565b600481015460028201549192504211906001600160a01b03858116911614806102bf57506001811515145b1561053e57600180830154600090815260066020818152604080842081516101008101835281548152958101546001600160a01b03908116938701939093526002810154918601919091526003810154606086015260048101549091166080850152600581015460a0850152908101805492939260c08401919061034290611fc7565b80601f016020809104026020016040519081016040528092919081815260200182805461036e90611fc7565b80156103bb5780601f10610390576101008083540402835291602001916103bb565b820191906000526020600020905b81548152906001019060200180831161039e57829003601f168201915b50505091835250506007919091015460ff16151560209091015260068401805491925060049160ff1916600183021790555042600584015560808101516020820151600285015460a0808501516060860151604051637921219560e11b81526001600160a01b0395861660048201529385166024850152604484019190915260648301526084820152600060a482015291169063f242432a9060c401600060405180830381600087803b15801561047157600080fd5b505af1158015610485573d6000803e3d6000fd5b50506003546020840151600287015460408087015190516312ff045960e11b81526001600160a01b0394851696506325fe08b295506104cc94909216916004908101611ffb565b600060405180830381600087803b1580156104e657600080fd5b505af11580156104fa573d6000803e3d6000fd5b50508454835160405142815291935091507f02ed327deaf2a2cf4fce11e9f7770dd4961b8fa2c6b9c4e894850e7b9980f1e99060200160405180910390a350610596565b60405162461bcd60e51b815260206004820152602760248201527f4e6f7420617574686f72697a656420746f2066696e616c697a65207468652065604482015266786368616e676560c81b606482015260840161027f565b50505050565b60006105a6611b98565b6105af8361172c565b6040805160e081018252825481526001830154602082015260028301546001600160a01b031691810191909152600382015460608201526004820154608082015260058083015460a08301526006830154839160c084019160ff169081111561061a5761061a611c48565b600581111561062b5761062b611c48565b90525091959194509092505050565b600454604080518082019091526011815270155b985d5d1a1bdc9a5e99590818d85b1b607a1b6020820152906001600160a01b0316331461068e5760405162461bcd60e51b815260040161027f9190611fb4565b50600061069a82611751565b6002810154604080518082019091526018815277213abcb2b91036bab9ba103132903a34329031b0b63632b960411b60208201529192506001600160a01b038581169116146106fc5760405162461bcd60e51b815260040161027f9190611fb4565b50600180820154600090815260066020818152604080842081516101008101835281548152958101546001600160a01b03908116938701939093526002810154918601919091526003810154606086015260048101549091166080850152600581015460a0850152908101805492939260c08401919061077b90611fc7565b80601f01602080910402602001604051908101604052809291908181526020018280546107a790611fc7565b80156107f45780601f106107c9576101008083540402835291602001916107f4565b820191906000526020600020905b8154815290600101906020018083116107d757829003601f168201915b50505091835250506007919091015460ff1615156020909101526003830154909150421180156108a95760068301805460ff191660029081179091554260058501558354602084015182860154604086015161085b946001600160a01b039092169161182f565b600283015483548351604051600181526001600160a01b03909316927f8dec8b8dd1b2fe4f598080d5307d230fb514013cea4d7527d3a81b9ad2d29e449060200160405180910390a461097b565b60068301805460ff191660031790556108c562093a8042612046565b60048481019190915560055484546040516315cf966160e31b8152928301526001600160a01b03169063ae7cb30890602401600060405180830381600087803b15801561091157600080fd5b505af1158015610925573d6000803e3d6000fd5b5050505081602001516001600160a01b0316836000015483600001517fc835f58a4a1b6afa981828160def81370e1d2b1599aa7571f8ab40931ffbe5234260405161097291815260200190565b60405180910390a45b5050505050565b604080516101008101825260008082526020820181905291810182905260608082018390526080820183905260a0820183905260c082015260e081018290526109ca836118fc565b60408051610100810182528254815260018301546001600160a01b0390811660208301526002840154928201929092526003830154606082015260048301549091166080820152600582015460a0820152600682018054839160c0840191610a3190611fc7565b80601f0160208091040260200160405190810160405280929190818152602001828054610a5d90611fc7565b8015610aaa5780601f10610a7f57610100808354040283529160200191610aaa565b820191906000526020600020905b815481529060010190602001808311610a8d57829003601f168201915b50505091835250506007919091015460ff16151560209091015291959194509092505050565b600454604080518082019091526011815270155b985d5d1a1bdc9a5e99590818d85b1b607a1b6020820152906001600160a01b03163314610b245760405162461bcd60e51b815260040161027f9190611fb4565b506000610b3082611920565b600181015460408051808201909152601981527829b2b63632b91036bab9ba103132903a34329031b0b63632b960391b60208201529192506001600160a01b03858116911614610b935760405162461bcd60e51b815260040161027f9190611fb4565b5060078101805460ff191660011790556040516001600160a01b0384169083907fcc53b068bf198ba9f8afa109fc3d2f26e276a0b62190ccf736742dc12766251990600090a3505050565b600454604080518082019091526011815270155b985d5d1a1bdc9a5e99590818d85b1b607a1b60208201526000916001600160a01b03163314610c345760405162461bcd60e51b815260040161027f9190611fb4565b506000610c4083611920565b60408051610100810182528254815260018301546001600160a01b0390811660208301526002840154928201929092526003830154606082015260048301549091166080820152600582015460a082015260068201805491929160c084019190610ca990611fc7565b80601f0160208091040260200160405190810160405280929190818152602001828054610cd590611fc7565b8015610d225780601f10610cf757610100808354040283529160200191610d22565b820191906000526020600020905b815481529060010190602001808311610d0557829003601f168201915b50505091835250506007919091015460ff16151560209182015260408083015181518083019092526012825271496e73756666696369656e742066756e647360701b92820192909252919250341015610d8e5760405162461bcd60e51b815260040161027f9190611fb4565b5060028054600101908190556000610da58261172c565b838155600181018790556002810180546001600160a01b0319166001600160a01b038a161790559150610ddd905062093a8042612046565b60038281019190915560068201805460ff191690555460405163f340fa0160e01b81526001600160a01b0388811660048301529091169063f340fa019034906024016000604051808303818588803b158015610e3857600080fd5b505af1158015610e4c573d6000803e3d6000fd5b5050600554604051638da75e5760e01b81526001600160a01b038b81166004830152602482018890529091169350638da75e5792506044019050600060405180830381600087803b158015610ea057600080fd5b505af1158015610eb4573d6000803e3d6000fd5b50505050856001600160a01b031682867fdc5c806bd64d78299502a0f0fc0845464d3edb2591af0e47b7876ccdf187993f60405160405180910390a4509150505b92915050565b600454604080518082019091526011815270155b985d5d1a1bdc9a5e99590818d85b1b607a1b6020820152906001600160a01b03163314610f4f5760405162461bcd60e51b815260040161027f9190611fb4565b506000610f5b82611751565b6002810154604080518082019091526018815277213abcb2b91036bab9ba103132903a34329031b0b63632b960411b60208201529192506001600160a01b03858116911614610fbd5760405162461bcd60e51b815260040161027f9190611fb4565b506006818101805460ff191660029081179091554260058085019190915560018085015460009081526020858152604080832081516101008101835281548152948101546001600160a01b039081169386019390935295860154908401526003850154606084015260048501541660808301529183015460a082015292820180549193929160c08401919061105190611fc7565b80601f016020809104026020016040519081016040528092919081815260200182805461107d90611fc7565b80156110ca5780601f1061109f576101008083540402835291602001916110ca565b820191906000526020600020905b8154815290600101906020018083116110ad57829003601f168201915b50505091835250506007919091015460ff90811615156020928301528454918301516002860154604085015160068801549596506111189592936001600160a01b039092169290911661182f565b600282015482548251604051600081526001600160a01b03909316927f8dec8b8dd1b2fe4f598080d5307d230fb514013cea4d7527d3a81b9ad2d29e449060200160405180910390a450505050565b600454604080518082019091526011815270155b985d5d1a1bdc9a5e99590818d85b1b607a1b60208201526000916001600160a01b031633146111bd5760405162461bcd60e51b815260040161027f9190611fb4565b5060006111d1600180546001019081905590565b80845260008181526006602081815260409283902087518155908701516001820180546001600160a01b03199081166001600160a01b039384161790915593880151600283015560608801516003830155608088015160048301805490951691161790925560a0860151600583015560c086015192935085929082019061125890826120a7565b5060e08201518160070160006101000a81548160ff02191690831515021790555090505082602001516001600160a01b0316817f4166341f02fe3a22be876be670b58295229a42b375600de72372efced0541d03856040516112ba9190612167565b60405180910390a390505b919050565b600454604080518082019091526011815270155b985d5d1a1bdc9a5e99590818d85b1b607a1b6020820152906001600160a01b0316331461131e5760405162461bcd60e51b815260040161027f9190611fb4565b506113276119be565b600061133282611751565b600180820154600090815260066020818152604080842081516101008101835281548152958101546001600160a01b03908116938701939093526002810154918601919091526003810154606086015260048101549091166080850152600581015460a085015290810180549495509193909160c08401916113b390611fc7565b80601f01602080910402602001604051908101604052809291908181526020018280546113df90611fc7565b801561142c5780601f106114015761010080835404028352916020019161142c565b820191906000526020600020905b81548152906001019060200180831161140f57829003601f168201915b50505091835250506007919091015460ff1615156020918201528181015160408051808201909152601981527829b2b63632b91036bab9ba103132903a34329031b0b63632b960391b92810192909252919250906001600160a01b038681169116146114ab5760405162461bcd60e51b815260040161027f9190611fb4565b5060038201544211801561155d5760068301805460ff19166002908117909155426005850155835460208401518286015460408601516114f6946001600160a01b039092169161182f565b341561150f5761150f6001600160a01b03861634611a17565b600283015483548351604051600181526001600160a01b03909316927f8dec8b8dd1b2fe4f598080d5307d230fb514013cea4d7527d3a81b9ad2d29e449060200160405180910390a4611636565b600061156e83604001516001611b35565b90508034101560405180604001604052806012815260200171496e73756666696369656e742066756e647360701b815250906115bd5760405162461bcd60e51b815260040161027f9190611fb4565b5060068401805460ff1916600190811790915542600586015584546020850151600287015460408701516115fc946001600160a01b039092169161182f565b82516040516001600160a01b0388169187917f1d07c9bd27f4d10b94a6f6b5bf93f8e2a369f48f90ea146909eefc0fa2a4289e90600090a4505b5050506116436001600055565b5050565b60008181526007602052604081208054909190158015906116685750815483145b90508060405180604001604052806012815260200171115e18da185b99d9481b9bdd08199bdd5b9960721b815250906116b45760405162461bcd60e51b815260040161027f9190611fb4565b506003600683015460ff1660058111156116d0576116d0611c48565b146040518060400160405280601981526020017f4d75737420626520696e2052454445454d454420737461746500000000000000815250906117255760405162461bcd60e51b815260040161027f9190611fb4565b5050919050565b600081815260076020526040812080541580159061174a5750805483145b9150915091565b60008181526007602052604081208054909190158015906117725750815483145b90508060405180604001604052806012815260200171115e18da185b99d9481b9bdd08199bdd5b9960721b815250906117be5760405162461bcd60e51b815260040161027f9190611fb4565b506000600683015460ff1660058111156117da576117da611c48565b146040518060400160405280601a81526020017f4d75737420626520696e20434f4d4d4954544544207374617465000000000000815250906117255760405162461bcd60e51b815260040161027f9190611fb4565b6005546040516315cf966160e31b8152600481018790526001600160a01b039091169063ae7cb30890602401600060405180830381600087803b15801561187557600080fd5b505af1158015611889573d6000803e3d6000fd5b50506003546040516312ff045960e11b81526001600160a01b0390911692506325fe08b291506118c3908790879087908790600401611ffb565b600060405180830381600087803b1580156118dd57600080fd5b505af11580156118f1573d6000803e3d6000fd5b505050505050505050565b600081815260066020526040812080541580159061174a5750805483149150915091565b60008061192c836118fc565b92509050806119735760405162461bcd60e51b815260206004820152601360248201527213d999995c88191bd95cdb89dd08195e1a5cdd606a1b604482015260640161027f565b600782015460ff16156119b85760405162461bcd60e51b815260206004820152600d60248201526c13d999995c881a5cc81d9bda59609a1b604482015260640161027f565b50919050565b600260005403611a105760405162461bcd60e51b815260206004820152601f60248201527f5265656e7472616e637947756172643a207265656e7472616e742063616c6c00604482015260640161027f565b6002600055565b80471015611a675760405162461bcd60e51b815260206004820152601d60248201527f416464726573733a20696e73756666696369656e742062616c616e6365000000604482015260640161027f565b6000826001600160a01b03168260405160006040518083038185875af1925050503d8060008114611ab4576040519150601f19603f3d011682016040523d82523d6000602084013e611ab9565b606091505b5050905080611b305760405162461bcd60e51b815260206004820152603a60248201527f416464726573733a20756e61626c6520746f2073656e642076616c75652c207260448201527f6563697069656e74206d61792068617665207265766572746564000000000000606482015260840161027f565b505050565b60006002826005811115611b4b57611b4b611c48565b1480611b6857506001826005811115611b6657611b66611c48565b145b15610ef557611b788360c8611b7f565b9392505050565b6000612710611b8e838561217a565b611b789190612199565b6040518060e00160405280600081526020016000815260200160006001600160a01b0316815260200160008152602001600081526020016000815260200160006005811115611be957611be9611c48565b905290565b80356001600160a01b03811681146112c557600080fd5b60008060408385031215611c1857600080fd5b611c2183611bee565b946020939093013593505050565b600060208284031215611c4157600080fd5b5035919050565b634e487b7160e01b600052602160045260246000fd5b60068110611c7c57634e487b7160e01b600052602160045260246000fd5b9052565b6000610100820190508315158252825160208301526020830151604083015260018060a01b03604084015116606083015260608301516080830152608083015160a083015260a083015160c083015260c0830151611ce160e0840182611c5e565b509392505050565b6000815180845260005b81811015611d0f57602081850181015186830182015201611cf3565b506000602082860101526020601f19601f83011685010191505092915050565b600061010082518452602083015160018060a01b0380821660208701526040850151604087015260608501516060870152806080860151166080870152505060a083015160a085015260c08301518160c0860152611d8f82860182611ce9565b91505060e0830151151560e08501528091505092915050565b8215158152604060208201526000611dc36040830184611d2f565b949350505050565b634e487b7160e01b600052604160045260246000fd5b604051610100810167ffffffffffffffff81118282101715611e0557611e05611dcb565b60405290565b600082601f830112611e1c57600080fd5b813567ffffffffffffffff80821115611e3757611e37611dcb565b604051601f8301601f19908116603f01168101908282118183101715611e5f57611e5f611dcb565b81604052838152866020858801011115611e7857600080fd5b836020870160208301376000602085830101528094505050505092915050565b803580151581146112c557600080fd5b600060208284031215611eba57600080fd5b813567ffffffffffffffff80821115611ed257600080fd5b908301906101008286031215611ee757600080fd5b611eef611de1565b82358152611eff60208401611bee565b60208201526040830135604082015260608301356060820152611f2460808401611bee565b608082015260a083013560a082015260c083013582811115611f4557600080fd5b611f5187828601611e0b565b60c083015250611f6360e08401611e98565b60e082015295945050505050565b600080600060608486031215611f8657600080fd5b611f8f84611bee565b9250611f9d60208501611bee565b9150611fab60408501611bee565b90509250925092565b602081526000611b786020830184611ce9565b600181811c90821680611fdb57607f821691505b6020821081036119b857634e487b7160e01b600052602260045260246000fd5b6001600160a01b0385811682528416602082015260408101839052608081016120276060830184611c5e565b95945050505050565b634e487b7160e01b600052601160045260246000fd5b80820180821115610ef557610ef5612030565b601f821115611b3057600081815260208120601f850160051c810160208610156120805750805b601f850160051c820191505b8181101561209f5782815560010161208c565b505050505050565b815167ffffffffffffffff8111156120c1576120c1611dcb565b6120d5816120cf8454611fc7565b84612059565b602080601f83116001811461210a57600084156120f25750858301515b600019600386901b1c1916600185901b17855561209f565b600085815260208120601f198616915b828110156121395788860151825594840194600190910190840161211a565b50858210156121575787850151600019600388901b60f8161c191681555b5050505050600190811b01905550565b602081526000611b786020830184611d2f565b600081600019048311821515161561219457612194612030565b500290565b6000826121b657634e487b7160e01b600052601260045260246000fd5b50049056fea2646970667358221220696bc55ffc9182d7c0fb1650f8f1a9b6bc4355c4ba95ec33f32d36c3fc9b90a264736f6c63430008100033",
    "linkReferences": {}
  },
  "methodIdentifiers": {
    "cancel(address,uint256)": "98590ef9",
    "commit(address,uint256)": "84bf1535",
    "createOffer((uint256,address,uint256,uint256,address,uint256,string,bool))": "c01fd3f7",
    "finalize(address,uint256)": "0553e156",
    "getExchange(uint256)": "0b9d5847",
    "getOffer(uint256)": "4579268a",
    "initialize(address,address,address)": "c0c53b8b",
    "redeem(address,uint256)": "1e9a6950",
    "revoke(address,uint256)": "eac449d9",
    "voidOffer(address,uint256)": "7c580570"
  },
  "id": 37
}