{
  "abi": [
    {
      "inputs": [],
      "name": "CantDisputeFreeStuff",
      "type": "error"
    },
    {
      "inputs": [],
      "name": "InValidState",
      "type": "error"
    },
    {
      "inputs": [],
      "name": "InsufficientFunds",
      "type": "error"
    },
    {
      "inputs": [],
      "name": "InvalidBasisPoint",
      "type": "error"
    },
    {
      "inputs": [],
      "name": "MissingDisputeExpiration",
      "type": "error"
    },
    {
      "inputs": [],
      "name": "MissingOrInvalidService",
      "type": "error"
    },
    {
      "inputs": [],
      "name": "NoModeratorSelected",
      "type": "error"
    },
    {
      "inputs": [],
      "name": "NoZeroAddress",
      "type": "error"
    },
    {
      "inputs": [],
      "name": "TimerExpired",
      "type": "error"
    },
    {
      "inputs": [],
      "name": "UnAuthorizedCaller",
      "type": "error"
    },
    {
      "anonymous": false,
      "inputs": [
        {
          "indexed": true,
          "internalType": "uint256",
          "name": "exchangeId",
          "type": "uint256"
        },
        {
          "indexed": false,
          "internalType": "uint256",
          "name": "when",
          "type": "uint256"
        }
      ],
      "name": "Completed",
      "type": "event"
    },
    {
      "anonymous": false,
      "inputs": [
        {
          "indexed": true,
          "internalType": "uint256",
          "name": "exchangeId",
          "type": "uint256"
        },
        {
          "indexed": false,
          "internalType": "uint256",
          "name": "when",
          "type": "uint256"
        }
      ],
      "name": "Disputed",
      "type": "event"
    },
    {
      "anonymous": false,
      "inputs": [
        {
          "indexed": true,
          "internalType": "uint256",
          "name": "exchangeId",
          "type": "uint256"
        },
        {
          "indexed": false,
          "internalType": "uint256",
          "name": "price",
          "type": "uint256"
        },
        {
          "indexed": false,
          "internalType": "uint256",
          "name": "when",
          "type": "uint256"
        }
      ],
      "name": "Funded",
      "type": "event"
    },
    {
      "anonymous": false,
      "inputs": [
        {
          "indexed": true,
          "internalType": "uint256",
          "name": "exchangeId",
          "type": "uint256"
        },
        {
          "indexed": true,
          "internalType": "uint256",
          "name": "serviceId",
          "type": "uint256"
        },
        {
          "indexed": false,
          "internalType": "address",
          "name": "buyer",
          "type": "address"
        },
        {
          "indexed": false,
          "internalType": "address",
          "name": "seller",
          "type": "address"
        },
        {
          "indexed": false,
          "internalType": "address",
          "name": "moderator",
          "type": "address"
        },
        {
          "indexed": false,
          "internalType": "uint256",
          "name": "when",
          "type": "uint256"
        },
        {
          "indexed": false,
          "internalType": "string",
          "name": "uri",
          "type": "string"
        }
      ],
      "name": "Offered",
      "type": "event"
    },
    {
      "anonymous": false,
      "inputs": [
        {
          "indexed": true,
          "internalType": "uint256",
          "name": "exchangeId",
          "type": "uint256"
        },
        {
          "indexed": false,
          "internalType": "address",
          "name": "signer",
          "type": "address"
        },
        {
          "indexed": false,
          "internalType": "uint256",
          "name": "when",
          "type": "uint256"
        }
      ],
      "name": "Refunded",
      "type": "event"
    },
    {
      "anonymous": false,
      "inputs": [
        {
          "indexed": true,
          "internalType": "uint256",
          "name": "exchangeId",
          "type": "uint256"
        },
        {
          "indexed": false,
          "internalType": "uint8",
          "name": "refundType",
          "type": "uint8"
        },
        {
          "indexed": false,
          "internalType": "uint256",
          "name": "when",
          "type": "uint256"
        }
      ],
      "name": "Resolved",
      "type": "event"
    },
    {
      "anonymous": false,
      "inputs": [
        {
          "indexed": true,
          "internalType": "uint256",
          "name": "exchangeId",
          "type": "uint256"
        },
        {
          "indexed": false,
          "internalType": "uint256",
          "name": "when",
          "type": "uint256"
        }
      ],
      "name": "Voided",
      "type": "event"
    },
    {
      "inputs": [
        {
          "internalType": "uint256",
          "name": "_exchangeId",
          "type": "uint256"
        }
      ],
      "name": "agreeToRefund",
      "outputs": [],
      "stateMutability": "nonpayable",
      "type": "function"
    },
    {
      "inputs": [
        {
          "internalType": "uint256",
          "name": "_exchangeId",
          "type": "uint256"
        }
      ],
      "name": "complete",
      "outputs": [],
      "stateMutability": "nonpayable",
      "type": "function"
    },
    {
      "inputs": [
        {
          "components": [
            {
              "internalType": "uint256",
              "name": "serviceId",
              "type": "uint256"
            },
            {
              "internalType": "address",
              "name": "buyer",
              "type": "address"
            },
            {
              "internalType": "address",
              "name": "moderator",
              "type": "address"
            },
            {
              "internalType": "uint16",
              "name": "moderatorPercentage",
              "type": "uint16"
            },
            {
              "internalType": "uint128",
              "name": "price",
              "type": "uint128"
            },
            {
              "internalType": "uint256",
              "name": "disputeTimerValue",
              "type": "uint256"
            },
            {
              "internalType": "string",
              "name": "uri",
              "type": "string"
            }
          ],
          "internalType": "struct ExchangeArgs",
          "name": "_args",
          "type": "tuple"
        }
      ],
      "name": "createOffer",
      "outputs": [
        {
          "internalType": "uint256",
          "name": "eid",
          "type": "uint256"
        }
      ],
      "stateMutability": "nonpayable",
      "type": "function"
    },
    {
      "inputs": [
        {
          "internalType": "uint256",
          "name": "_exchangeId",
          "type": "uint256"
        }
      ],
      "name": "dispute",
      "outputs": [],
      "stateMutability": "nonpayable",
      "type": "function"
    },
    {
      "inputs": [
        {
          "internalType": "uint256",
          "name": "_exchangeId",
          "type": "uint256"
        },
        {
          "components": [
            {
              "internalType": "uint8",
              "name": "v",
              "type": "uint8"
            },
            {
              "internalType": "bytes32",
              "name": "r",
              "type": "bytes32"
            },
            {
              "internalType": "bytes32",
              "name": "s",
              "type": "bytes32"
            },
            {
              "internalType": "uint256",
              "name": "validFor",
              "type": "uint256"
            }
          ],
          "internalType": "struct ExchangePermitArgs",
          "name": "_permit",
          "type": "tuple"
        }
      ],
      "name": "fundOffer",
      "outputs": [],
      "stateMutability": "nonpayable",
      "type": "function"
    },
    {
      "inputs": [
        {
          "internalType": "uint256",
          "name": "_exchangeId",
          "type": "uint256"
        }
      ],
      "name": "getEscrowBalance",
      "outputs": [
        {
          "internalType": "uint256",
          "name": "bal",
          "type": "uint256"
        }
      ],
      "stateMutability": "view",
      "type": "function"
    },
    {
      "inputs": [
        {
          "internalType": "uint256",
          "name": "_exchangeId",
          "type": "uint256"
        }
      ],
      "name": "getExchange",
      "outputs": [
        {
          "internalType": "bool",
          "name": "exists",
          "type": "bool"
        },
        {
          "components": [
            {
              "internalType": "uint256",
              "name": "id",
              "type": "uint256"
            },
            {
              "internalType": "uint256",
              "name": "serviceId",
              "type": "uint256"
            },
            {
              "internalType": "enum ExchangeState",
              "name": "state",
              "type": "uint8"
            },
            {
              "internalType": "address",
              "name": "buyer",
              "type": "address"
            },
            {
              "internalType": "address",
              "name": "seller",
              "type": "address"
            },
            {
              "internalType": "address",
              "name": "moderator",
              "type": "address"
            },
            {
              "internalType": "uint256",
              "name": "price",
              "type": "uint256"
            },
            {
              "internalType": "uint16",
              "name": "moderatorPercentage",
              "type": "uint16"
            },
            {
              "internalType": "enum RefundType",
              "name": "refundType",
              "type": "uint8"
            },
            {
              "internalType": "uint256",
              "name": "disputeTimerValue",
              "type": "uint256"
            },
            {
              "internalType": "uint256",
              "name": "offerExpires",
              "type": "uint256"
            },
            {
              "internalType": "uint256",
              "name": "disputeExpires",
              "type": "uint256"
            },
            {
              "internalType": "uint256",
              "name": "resolveExpires",
              "type": "uint256"
            },
            {
              "internalType": "string",
              "name": "uri",
              "type": "string"
            }
          ],
          "internalType": "struct Exchange",
          "name": "info",
          "type": "tuple"
        }
      ],
      "stateMutability": "view",
      "type": "function"
    },
    {
      "inputs": [
        {
          "internalType": "uint256",
          "name": "_exchangeId",
          "type": "uint256"
        }
      ],
      "name": "isClosed",
      "outputs": [
        {
          "internalType": "bool",
          "name": "closed",
          "type": "bool"
        }
      ],
      "stateMutability": "view",
      "type": "function"
    },
    {
      "inputs": [
        {
          "internalType": "uint256",
          "name": "_exchangeId",
          "type": "uint256"
        },
        {
          "internalType": "enum RefundType",
          "name": "_rType",
          "type": "uint8"
        }
      ],
      "name": "resolve",
      "outputs": [],
      "stateMutability": "nonpayable",
      "type": "function"
    },
    {
      "inputs": [
        {
          "internalType": "uint256",
          "name": "_exchangeId",
          "type": "uint256"
        }
      ],
      "name": "triggerTimer",
      "outputs": [
        {
          "internalType": "bool",
          "name": "",
          "type": "bool"
        }
      ],
      "stateMutability": "nonpayable",
      "type": "function"
    }
  ],
  "bytecode": {
    "object": "0x608060405234801561001057600080fd5b50611f1b806100206000396000f3fe608060405234801561001057600080fd5b506004361061009e5760003560e01c8063971d852f11610066578063971d852f146101395780639c0e16081461014c578063c3e2fb021461015f578063d5c78a2814610172578063fce609031461018557600080fd5b806303ac9649146100a35780630b9d5847146100b85780632b27a6cd146100e257806386d6282c146101055780638c2a953414610118575b600080fd5b6100b66100b136600461194c565b610198565b005b6100cb6100c6366004611984565b6104ae565b6040516100d9929190611a1d565b60405180910390f35b6100f56100f0366004611984565b610685565b60405190151581526020016100d9565b6100b6610113366004611984565b610854565b61012b610126366004611b27565b610983565b6040519081526020016100d9565b6100b6610147366004611984565b610f32565b6100b661015a366004611b69565b610fc9565b6100b661016d366004611984565b6110fe565b6100f5610180366004611984565b61124e565b61012b610193366004611984565b6112bb565b60006101a26114e9565b600084815260049190910160205260409020600281015490915061010090046001600160a01b031633146101e95760405163e3272bbb60e01b815260040160405180910390fd5b6000600282015460ff1660058111156102045761020461199d565b1461022257604051636705732d60e11b815260040160405180910390fd5b60088101544211156102785760028101805460ff1916600517905560405142815283907fb863ee9d4a4c2ec156f99f86e134cd00a253769227440d781246a30af0bea7a6906020015b60405180910390a2505050565b80600501546000036102e35760028101805460ff1916600117905560078101546102a29042611bb3565b600982015560058101546040805191825242602083015284917f77360216dafe21aa8d455333608207082f74e837ba9b3ef15d0a73cd22693738910161026b565b60006102ed6114e9565b5460058301546040516370a0823160e01b81523360048201526001600160a01b0390921692509082906370a0823190602401602060405180830381865afa15801561033c573d6000803e3d6000fd5b505050506040513d601f19601f820116820180604052508101906103609190611bc6565b101561037f5760405163356680b760e01b815260040160405180910390fd5b60028201805460ff19166001179055600782015461039d9042611bb3565b600983015560058201546001600160a01b0382169063d505accf903390309060608801356103ce60208a018a611bdf565b604080516001600160e01b031960e089901b1681526001600160a01b0396871660048201529590941660248601526044850192909252606484015260ff166084830152602087013560a483015286013560c482015260e401600060405180830381600087803b15801561044057600080fd5b505af1158015610454573d6000803e3d6000fd5b50505050610468813330856005015461150d565b60058201546040805191825242602083015285917f77360216dafe21aa8d455333608207082f74e837ba9b3ef15d0a73cd22693738910160405180910390a2505b505050565b60006104b86118c9565b6104c06114e9565b6004016000848152602001908152602001600020604051806101c001604052908160008201548152602001600182015481526020016002820160009054906101000a900460ff1660058111156105185761051861199d565b60058111156105295761052961199d565b815260028281015461010090046001600160a01b039081166020840152600384015481166040840152600484015416606083015260058301546080830152600683015461ffff811660a084015260c09092019162010000900460ff16908111156105955761059561199d565b60028111156105a6576105a661199d565b8152602001600782015481526020016008820154815260200160098201548152602001600a8201548152602001600b820180546105e290611c02565b80601f016020809104026020016040519081016040528092919081815260200182805461060e90611c02565b801561065b5780601f106106305761010080835404028352916020019161065b565b820191906000526020600020905b81548152906001019060200180831161063e57829003601f168201915b5050509190925250505060808101519091506001600160a01b03161561068057600191505b915091565b6000806106906114e9565b600084815260049190910160205260408120600281015490925061010090046001600160a01b0316331415806106d3575060038201546001600160a01b03163314155b9050806106f35760405163e3272bbb60e01b815260040160405180910390fd5b6004600283015460ff16600581111561070e5761070e61199d565b148061073257506005600283015460ff1660058111156107305761073061199d565b145b15610741575060009392505050565b6000600283015460ff16600581111561075c5761075c61199d565b036107c55760088201544211156107bb5760028201805460ff1916600517905581546040514281527fb863ee9d4a4c2ec156f99f86e134cd00a253769227440d781246a30af0bea7a69060200160405180910390a25060019392505050565b5060009392505050565b6001600283015460ff1660058111156107e0576107e061199d565b0361080557600982015442115b156107bb576107fb8261159c565b5060019392505050565b60028083015460ff16600581111561081f5761081f61199d565b148061084357506003600283015460ff1660058111156108415761084161199d565b145b156107bb57600a82015442116107ed565b600061085e6114e9565b600083815260049190910160205260409020600281015490915061010090046001600160a01b031633146108a55760405163e3272bbb60e01b815260040160405180910390fd5b6001600282015460ff1660058111156108c0576108c061199d565b146108de57604051636705732d60e11b815260040160405180910390fd5b6009810154421115610903576040516326b6ec8160e21b815260040160405180910390fd5b806005015460000361092857604051631618e63d60e01b815260040160405180910390fd5b6002818101805460ff1916909117905561094562278d0042611bb3565b600a82015560405142815282907f7a5b7de3bc82f24e3a2ec84fdd3d22a2611adff3df42e2917470dc204f0eb0a49060200160405180910390a25050565b600033816109976040850160208601611c36565b6001600160a01b031614806109b357506001600160a01b038116155b156109d15760405163ddbadd5f60e01b815260040160405180910390fd5b8260a001356000036109f65760405163128c02fd60e31b815260040160405180910390fd5b6000610a006114e9565b843560009081526003919091016020908152604091829020825160a0810184528154815260018201546001600160a01b03811693820193909352600160a01b90920460ff16151592820192909252600282018054919291606084019190610a6690611c02565b80601f0160208091040260200160405190810160405280929190818152602001828054610a9290611c02565b8015610adf5780601f10610ab457610100808354040283529160200191610adf565b820191906000526020600020905b815481529060010190602001808311610ac257829003601f168201915b50505050508152602001600382018054610af890611c02565b80601f0160208091040260200160405190810160405280929190818152602001828054610b2490611c02565b8015610b715780601f10610b4657610100808354040283529160200191610b71565b820191906000526020600020905b815481529060010190602001808311610b5457829003601f168201915b5050505050815250509050816001600160a01b031681602001516001600160a01b0316141580610ba357508060400151155b15610bc15760405163311361ed60e21b815260040160405180910390fd5b7f597ec45b5dee7a6650727972f9d2dbc40d80ce7c4f31ac1a2a5f1408711befb78054906000610bf083611c5f565b9091555092508335610c006114e9565b6000858152600491909101602052604090206001015581610c1f6114e9565b600401600085815260200190815260200160002060030160006101000a8154816001600160a01b0302191690836001600160a01b03160217905550836020016020810190610c6d9190611c36565b610c756114e9565b60008581526004919091016020526040902060020180546001600160a01b039290921661010002610100600160a81b0319909216919091179055610cbf60a0850160808601611c78565b6001600160801b0316610cd06114e9565b60008581526004919091016020526040812060050191909155610cf16114e9565b600085815260049190910160205260409020600201805460ff19166001836005811115610d2057610d2061199d565b02179055508360a00135610d326114e9565b60008581526004919091016020526040902060070155610d5560c0850185611ca1565b610d5d6114e9565b600086815260049190910160205260409020600b0191610d7e919083611d53565b50610d8c6213c68042611bb3565b610d946114e9565b60008581526004919091016020526040902060080155610db762278d0042611bb3565b610dbf6114e9565b600085815260049190910160205260409020600a0155610de560a0850160808601611c78565b6001600160801b0316600003610e34576000610dff6114e9565b60008581526004918201602052604090200180546001600160a01b0319166001600160a01b0392909216919091179055610ebe565b610e446060850160408601611c36565b610e4c6114e9565b60008581526004918201602052604090200180546001600160a01b0319166001600160a01b0392909216919091179055610e8c6080850160608601611e13565b610e946114e9565b600085815260049190910160205260409020600601805461ffff191661ffff929092169190911790555b8335837f408b313a68c6879ce1410ece2c38d3bc5b9ff02c0fdc045825dd4e0a1c34597b610ef26040880160208901611c36565b85610f0360608a0160408b01611c36565b42610f1160c08c018c611ca1565b604051610f2396959493929190611e37565b60405180910390a35050919050565b6000610f3c6114e9565b600083815260049190910160205260409020600281015490915061010090046001600160a01b03163314610f835760405163e3272bbb60e01b815260040160405180910390fd5b6001600282015460ff166005811115610f9e57610f9e61199d565b14610fbc57604051636705732d60e11b815260040160405180910390fd5b610fc58161159c565b5050565b6000610fd36114e9565b6000848152600491820160205260409020908101549091506001600160a01b031633146110135760405163e3272bbb60e01b815260040160405180910390fd5b60028082015460ff16600581111561102d5761102d61199d565b1461104b57604051636705732d60e11b815260040160405180910390fd5b600a810154421115611070576040516326b6ec8160e21b815260040160405180910390fd5b60068101805483919062ff00001916620100008360028111156110955761109561199d565b02179055506002818101805460ff1916600317905583907f9e8270be22c213149f278b5bf643fc5f79654f93c3751cae4912cf8c445552ac9084908111156110df576110df61199d565b6040805160ff90921682524260208301520160405180910390a2505050565b60006111086114e9565b600083815260049190910160205260408120600281015490925061010090046001600160a01b03163314158061114b575060038201546001600160a01b03163314155b90508061116b5760405163e3272bbb60e01b815260040160405180910390fd5b6003600283015460ff1660058111156111865761118661199d565b146111a457604051636705732d60e11b815260040160405180910390fd5b600a8201544211156111c9576040516326b6ec8160e21b815260040160405180910390fd5b600682015460058301546000918291829182916111f69160ff620100008204169161ffff9091169061160f565b935093509350935061120b8685858585611693565b6040805133815242602082015288917f7ca5472b7ea78c2c0141c5a12ee6d170cf4ce8ed06be3d22c8252ddfc7a6a2c4910160405180910390a250505050505050565b6000806112596114e9565b60008481526004918201602052604090206002015460ff1691508160058111156112855761128561199d565b14806112a2575060058160058111156112a0576112a061199d565b145b156112b057600191506112b5565b600091505b50919050565b6000806112c66114e9565b6004016000848152602001908152602001600020604051806101c001604052908160008201548152602001600182015481526020016002820160009054906101000a900460ff16600581111561131e5761131e61199d565b600581111561132f5761132f61199d565b815260028281015461010090046001600160a01b039081166020840152600384015481166040840152600484015416606083015260058301546080830152600683015461ffff811660a084015260c09092019162010000900460ff169081111561139b5761139b61199d565b60028111156113ac576113ac61199d565b8152602001600782015481526020016008820154815260200160098201548152602001600a8201548152602001600b820180546113e890611c02565b80601f016020809104026020016040519081016040528092919081815260200182805461141490611c02565b80156114615780601f1061143657610100808354040283529160200191611461565b820191906000526020600020905b81548152906001019060200180831161144457829003601f168201915b505050505081525050905060058081111561147e5761147e61199d565b816040015160058111156114945761149461199d565b14806114b557506000816040015160058111156114b3576114b361199d565b145b806114d557506004816040015160058111156114d3576114d361199d565b145b156114df57600091505b60c0015192915050565b7fe7be30a96703909048a253b0b69ca3a7f05875afb6fea1bbe7561d457b1d95c890565b60006040516323b872dd60e01b81528460048201528360248201528260448201526020600060648360008a5af13d15601f3d11600160005114161716915050806115955760405162461bcd60e51b81526020600482015260146024820152731514905394d1915497d19493d357d1905253115160621b60448201526064015b60405180910390fd5b5050505050565b6005810154156115c8576000806115b6836005015461177f565b915091506104a9838360008085611693565b60028101805460ff1916600417905580546040514281527f12a1c1987aa73679916aba446c3dc908aba127ae71d422c51cece3350d680f089060200160405180910390a250565b60008060008061161f85876117a0565b9150600061162d8387611e94565b905060008860028111156116435761164361199d565b0361165057809450611689565b60018860028111156116645761166461199d565b0361168557600080611675836117ff565b9097508796509350611689915050565b8093505b5093509350935093565b600061169d6114e9565b5460028701805460ff191660041790556001600160a01b0316905084156116d85760038601546116d89082906001600160a01b03168761182d565b83156116fd5760028601546116fd90829061010090046001600160a01b03168661182d565b821561171d57600486015461171d9082906001600160a01b03168561182d565b8115611742576117428161172f6114e9565b600101546001600160a01b03168461182d565b85546040514281527f12a1c1987aa73679916aba446c3dc908aba127ae71d422c51cece3350d680f089060200160405180910390a2505050505050565b60008061178d8360c86117a0565b90506117998184611e94565b9150915091565b60008215806117b1575061ffff8216155b156117be575060006117f9565b6127108261ffff1611156117e557604051631e33f25560e01b815260040160405180910390fd5b6117f6838361ffff166127106118ab565b90505b92915050565b6000808260000361181557506000928392509050565b611820600284611ebd565b9050611799600284611ed1565b600060405163a9059cbb60e01b8152836004820152826024820152602060006044836000895af13d15601f3d11600160005114161716915050806118a55760405162461bcd60e51b815260206004820152600f60248201526e1514905394d1915497d19052531151608a1b604482015260640161158c565b50505050565b60008260001904841183021582026118c257600080fd5b5091020490565b604051806101c001604052806000815260200160008152602001600060058111156118f6576118f661199d565b815260006020820181905260408201819052606082018190526080820181905260a0820181905260c090910190815260200160008152602001600081526020016000815260200160008152602001606081525090565b60008082840360a081121561196057600080fd5b833592506080601f198201121561197657600080fd5b506020830190509250929050565b60006020828403121561199657600080fd5b5035919050565b634e487b7160e01b600052602160045260246000fd5b600681106119c3576119c361199d565b9052565b600381106119c3576119c361199d565b6000815180845260005b818110156119fd576020818501810151868301820152016119e1565b506000602082860101526020601f19601f83011685010191505092915050565b821515815260406020820152815160408201526020820151606082015260006040830151611a4e60808401826119b3565b5060608301516001600160a01b03811660a08401525060808301516001600160a01b03811660c08401525060a08301516001600160a01b03811660e08401525060c0830151610100818185015260e08501519150610120611ab48186018461ffff169052565b90850151915061014090611aca858301846119c7565b850151610160858101919091529085015161018080860191909152908501516101a080860191909152908501516101c080860191909152908501516101e08501919091529050611b1e6102008401826119d7565b95945050505050565b600060208284031215611b3957600080fd5b813567ffffffffffffffff811115611b5057600080fd5b820160e08185031215611b6257600080fd5b9392505050565b60008060408385031215611b7c57600080fd5b82359150602083013560038110611b9257600080fd5b809150509250929050565b634e487b7160e01b600052601160045260246000fd5b808201808211156117f9576117f9611b9d565b600060208284031215611bd857600080fd5b5051919050565b600060208284031215611bf157600080fd5b813560ff81168114611b6257600080fd5b600181811c90821680611c1657607f821691505b6020821081036112b557634e487b7160e01b600052602260045260246000fd5b600060208284031215611c4857600080fd5b81356001600160a01b0381168114611b6257600080fd5b600060018201611c7157611c71611b9d565b5060010190565b600060208284031215611c8a57600080fd5b81356001600160801b0381168114611b6257600080fd5b6000808335601e19843603018112611cb857600080fd5b83018035915067ffffffffffffffff821115611cd357600080fd5b602001915036819003821315611ce857600080fd5b9250929050565b634e487b7160e01b600052604160045260246000fd5b601f8211156104a957600081815260208120601f850160051c81016020861015611d2c5750805b601f850160051c820191505b81811015611d4b57828155600101611d38565b505050505050565b67ffffffffffffffff831115611d6b57611d6b611cef565b611d7f83611d798354611c02565b83611d05565b6000601f841160018114611db35760008515611d9b5750838201355b600019600387901b1c1916600186901b178355611595565b600083815260209020601f19861690835b82811015611de45786850135825560209485019460019092019101611dc4565b5086821015611e015760001960f88860031b161c19848701351681555b505060018560011b0183555050505050565b600060208284031215611e2557600080fd5b813561ffff81168114611b6257600080fd5b6001600160a01b0387811682528681166020830152851660408201526060810184905260a06080820181905281018290526000828460c0840137600060c0848401015260c0601f19601f8501168301019050979650505050505050565b818103818111156117f9576117f9611b9d565b634e487b7160e01b600052601260045260246000fd5b600082611ecc57611ecc611ea7565b500690565b600082611ee057611ee0611ea7565b50049056fea2646970667358221220c7ae32c1bac5c10df0710fba004b03fc14068c8680bc52dac4f976850c88fb5264736f6c63430008100033",
    "linkReferences": {}
  },
  "methodIdentifiers": {
    "agreeToRefund(uint256)": "c3e2fb02",
    "complete(uint256)": "971d852f",
    "createOffer((uint256,address,address,uint16,uint128,uint256,string))": "8c2a9534",
    "dispute(uint256)": "86d6282c",
    "fundOffer(uint256,(uint8,bytes32,bytes32,uint256))": "03ac9649",
    "getEscrowBalance(uint256)": "fce60903",
    "getExchange(uint256)": "0b9d5847",
    "isClosed(uint256)": "d5c78a28",
    "resolve(uint256,uint8)": "9c0e1608",
    "triggerTimer(uint256)": "2b27a6cd"
  },
  "id": 36
}