{
  "abi": [
    {
      "inputs": [],
      "name": "CantDisputeFreeStuff",
      "type": "error"
    },
    {
      "inputs": [],
      "name": "InValidState",
      "type": "error"
    },
    {
      "inputs": [],
      "name": "InsufficientFunds",
      "type": "error"
    },
    {
      "inputs": [],
      "name": "InvalidBasisPoint",
      "type": "error"
    },
    {
      "inputs": [],
      "name": "MissingDisputeExpiration",
      "type": "error"
    },
    {
      "inputs": [],
      "name": "MissingOrInvalidService",
      "type": "error"
    },
    {
      "inputs": [],
      "name": "NoModeratorSelected",
      "type": "error"
    },
    {
      "inputs": [],
      "name": "NoZeroAddress",
      "type": "error"
    },
    {
      "inputs": [],
      "name": "TimerExpired",
      "type": "error"
    },
    {
      "inputs": [],
      "name": "UnAuthorizedCaller",
      "type": "error"
    },
    {
      "anonymous": false,
      "inputs": [
        {
          "indexed": true,
          "internalType": "uint256",
          "name": "exchangeId",
          "type": "uint256"
        },
        {
          "indexed": false,
          "internalType": "uint256",
          "name": "when",
          "type": "uint256"
        }
      ],
      "name": "Completed",
      "type": "event"
    },
    {
      "anonymous": false,
      "inputs": [
        {
          "indexed": true,
          "internalType": "uint256",
          "name": "exchangeId",
          "type": "uint256"
        },
        {
          "indexed": false,
          "internalType": "uint256",
          "name": "when",
          "type": "uint256"
        }
      ],
      "name": "Disputed",
      "type": "event"
    },
    {
      "anonymous": false,
      "inputs": [
        {
          "indexed": true,
          "internalType": "uint256",
          "name": "exchangeId",
          "type": "uint256"
        },
        {
          "indexed": false,
          "internalType": "uint256",
          "name": "price",
          "type": "uint256"
        },
        {
          "indexed": false,
          "internalType": "uint256",
          "name": "when",
          "type": "uint256"
        }
      ],
      "name": "Funded",
      "type": "event"
    },
    {
      "anonymous": false,
      "inputs": [
        {
          "indexed": true,
          "internalType": "uint256",
          "name": "exchangeId",
          "type": "uint256"
        },
        {
          "indexed": true,
          "internalType": "uint256",
          "name": "serviceId",
          "type": "uint256"
        },
        {
          "indexed": false,
          "internalType": "address",
          "name": "buyer",
          "type": "address"
        },
        {
          "indexed": false,
          "internalType": "address",
          "name": "seller",
          "type": "address"
        },
        {
          "indexed": false,
          "internalType": "address",
          "name": "moderator",
          "type": "address"
        },
        {
          "indexed": false,
          "internalType": "uint256",
          "name": "price",
          "type": "uint256"
        },
        {
          "indexed": false,
          "internalType": "uint256",
          "name": "when",
          "type": "uint256"
        },
        {
          "indexed": false,
          "internalType": "string",
          "name": "uri",
          "type": "string"
        }
      ],
      "name": "Offered",
      "type": "event"
    },
    {
      "anonymous": false,
      "inputs": [
        {
          "indexed": true,
          "internalType": "uint256",
          "name": "exchangeId",
          "type": "uint256"
        },
        {
          "indexed": false,
          "internalType": "address",
          "name": "signer",
          "type": "address"
        },
        {
          "indexed": false,
          "internalType": "uint256",
          "name": "when",
          "type": "uint256"
        }
      ],
      "name": "Refunded",
      "type": "event"
    },
    {
      "anonymous": false,
      "inputs": [
        {
          "indexed": true,
          "internalType": "uint256",
          "name": "exchangeId",
          "type": "uint256"
        },
        {
          "indexed": false,
          "internalType": "uint8",
          "name": "refundType",
          "type": "uint8"
        },
        {
          "indexed": false,
          "internalType": "uint256",
          "name": "when",
          "type": "uint256"
        }
      ],
      "name": "Resolved",
      "type": "event"
    },
    {
      "anonymous": false,
      "inputs": [
        {
          "indexed": true,
          "internalType": "uint256",
          "name": "exchangeId",
          "type": "uint256"
        },
        {
          "indexed": false,
          "internalType": "uint256",
          "name": "when",
          "type": "uint256"
        }
      ],
      "name": "Voided",
      "type": "event"
    },
    {
      "inputs": [
        {
          "internalType": "uint256",
          "name": "_exchangeId",
          "type": "uint256"
        }
      ],
      "name": "agreeToRefund",
      "outputs": [],
      "stateMutability": "nonpayable",
      "type": "function"
    },
    {
      "inputs": [
        {
          "internalType": "uint256",
          "name": "_exchangeId",
          "type": "uint256"
        }
      ],
      "name": "complete",
      "outputs": [],
      "stateMutability": "nonpayable",
      "type": "function"
    },
    {
      "inputs": [
        {
          "components": [
            {
              "internalType": "uint256",
              "name": "serviceId",
              "type": "uint256"
            },
            {
              "internalType": "address",
              "name": "buyer",
              "type": "address"
            },
            {
              "internalType": "address",
              "name": "moderator",
              "type": "address"
            },
            {
              "internalType": "uint16",
              "name": "moderatorPercentage",
              "type": "uint16"
            },
            {
              "internalType": "uint128",
              "name": "price",
              "type": "uint128"
            },
            {
              "internalType": "uint256",
              "name": "disputeTimerValue",
              "type": "uint256"
            },
            {
              "internalType": "string",
              "name": "uri",
              "type": "string"
            }
          ],
          "internalType": "struct ExchangeArgs",
          "name": "_args",
          "type": "tuple"
        }
      ],
      "name": "createOffer",
      "outputs": [
        {
          "internalType": "uint256",
          "name": "eid",
          "type": "uint256"
        }
      ],
      "stateMutability": "nonpayable",
      "type": "function"
    },
    {
      "inputs": [
        {
          "internalType": "uint256",
          "name": "_exchangeId",
          "type": "uint256"
        }
      ],
      "name": "dispute",
      "outputs": [],
      "stateMutability": "nonpayable",
      "type": "function"
    },
    {
      "inputs": [
        {
          "internalType": "uint256",
          "name": "_exchangeId",
          "type": "uint256"
        },
        {
          "components": [
            {
              "internalType": "uint8",
              "name": "v",
              "type": "uint8"
            },
            {
              "internalType": "bytes32",
              "name": "r",
              "type": "bytes32"
            },
            {
              "internalType": "bytes32",
              "name": "s",
              "type": "bytes32"
            },
            {
              "internalType": "uint256",
              "name": "validFor",
              "type": "uint256"
            }
          ],
          "internalType": "struct ExchangePermitArgs",
          "name": "_permit",
          "type": "tuple"
        }
      ],
      "name": "fundOffer",
      "outputs": [],
      "stateMutability": "nonpayable",
      "type": "function"
    },
    {
      "inputs": [
        {
          "internalType": "uint256",
          "name": "_exchangeId",
          "type": "uint256"
        }
      ],
      "name": "getEscrowBalance",
      "outputs": [
        {
          "internalType": "uint256",
          "name": "bal",
          "type": "uint256"
        }
      ],
      "stateMutability": "view",
      "type": "function"
    },
    {
      "inputs": [
        {
          "internalType": "uint256",
          "name": "_exchangeId",
          "type": "uint256"
        }
      ],
      "name": "getExchange",
      "outputs": [
        {
          "internalType": "bool",
          "name": "exists",
          "type": "bool"
        },
        {
          "components": [
            {
              "internalType": "uint256",
              "name": "id",
              "type": "uint256"
            },
            {
              "internalType": "uint256",
              "name": "serviceId",
              "type": "uint256"
            },
            {
              "internalType": "enum ExchangeState",
              "name": "state",
              "type": "uint8"
            },
            {
              "internalType": "address",
              "name": "buyer",
              "type": "address"
            },
            {
              "internalType": "address",
              "name": "seller",
              "type": "address"
            },
            {
              "internalType": "address",
              "name": "moderator",
              "type": "address"
            },
            {
              "internalType": "uint256",
              "name": "price",
              "type": "uint256"
            },
            {
              "internalType": "uint16",
              "name": "moderatorPercentage",
              "type": "uint16"
            },
            {
              "internalType": "enum RefundType",
              "name": "refundType",
              "type": "uint8"
            },
            {
              "internalType": "uint256",
              "name": "disputeTimerValue",
              "type": "uint256"
            },
            {
              "internalType": "uint256",
              "name": "offerExpires",
              "type": "uint256"
            },
            {
              "internalType": "uint256",
              "name": "disputeExpires",
              "type": "uint256"
            },
            {
              "internalType": "uint256",
              "name": "resolveExpires",
              "type": "uint256"
            },
            {
              "internalType": "string",
              "name": "uri",
              "type": "string"
            }
          ],
          "internalType": "struct Exchange",
          "name": "info",
          "type": "tuple"
        }
      ],
      "stateMutability": "view",
      "type": "function"
    },
    {
      "inputs": [
        {
          "internalType": "uint256",
          "name": "_exchangeId",
          "type": "uint256"
        }
      ],
      "name": "isClosed",
      "outputs": [
        {
          "internalType": "bool",
          "name": "closed",
          "type": "bool"
        }
      ],
      "stateMutability": "view",
      "type": "function"
    },
    {
      "inputs": [
        {
          "internalType": "uint256",
          "name": "_exchangeId",
          "type": "uint256"
        },
        {
          "internalType": "enum RefundType",
          "name": "_rType",
          "type": "uint8"
        }
      ],
      "name": "resolve",
      "outputs": [],
      "stateMutability": "nonpayable",
      "type": "function"
    },
    {
      "inputs": [
        {
          "internalType": "uint256",
          "name": "_exchangeId",
          "type": "uint256"
        }
      ],
      "name": "triggerTimer",
      "outputs": [
        {
          "internalType": "bool",
          "name": "",
          "type": "bool"
        }
      ],
      "stateMutability": "nonpayable",
      "type": "function"
    }
  ],
  "bytecode": {
    "object": "0x608060405234801561001057600080fd5b50611f68806100206000396000f3fe608060405234801561001057600080fd5b506004361061009e5760003560e01c8063971d852f11610066578063971d852f146101395780639c0e16081461014c578063c3e2fb021461015f578063d5c78a2814610172578063fce609031461018557600080fd5b806303ac9649146100a35780630b9d5847146100b85780632b27a6cd146100e257806386d6282c146101055780638c2a953414610118575b600080fd5b6100b66100b1366004611989565b610198565b005b6100cb6100c63660046119c1565b6104ae565b6040516100d9929190611a5a565b60405180910390f35b6100f56100f03660046119c1565b610685565b60405190151581526020016100d9565b6100b66101133660046119c1565b610854565b61012b610126366004611b64565b610984565b6040519081526020016100d9565b6100b66101473660046119c1565b610f44565b6100b661015a366004611ba6565b610fdb565b6100b661016d3660046119c1565b611110565b6100f56101803660046119c1565b611261565b61012b6101933660046119c1565b6112ce565b60006101a26114fc565b600084815260049190910160205260409020600281015490915061010090046001600160a01b031633146101e95760405163e3272bbb60e01b815260040160405180910390fd5b6000600282015460ff166005811115610204576102046119da565b1461022257604051636705732d60e11b815260040160405180910390fd5b60088101544211156102785760028101805460ff1916600517905560405142815283907fb863ee9d4a4c2ec156f99f86e134cd00a253769227440d781246a30af0bea7a6906020015b60405180910390a2505050565b80600501546000036102e35760028101805460ff1916600117905560078101546102a29042611bf0565b600982015560058101546040805191825242602083015284917f77360216dafe21aa8d455333608207082f74e837ba9b3ef15d0a73cd22693738910161026b565b60006102ed6114fc565b5460058301546040516370a0823160e01b81523360048201526001600160a01b0390921692509082906370a0823190602401602060405180830381865afa15801561033c573d6000803e3d6000fd5b505050506040513d601f19601f820116820180604052508101906103609190611c03565b101561037f5760405163356680b760e01b815260040160405180910390fd5b60028201805460ff19166001179055600782015461039d9042611bf0565b600983015560058201546001600160a01b0382169063d505accf903390309060608801356103ce60208a018a611c1c565b604080516001600160e01b031960e089901b1681526001600160a01b0396871660048201529590941660248601526044850192909252606484015260ff166084830152602087013560a483015286013560c482015260e401600060405180830381600087803b15801561044057600080fd5b505af1158015610454573d6000803e3d6000fd5b505050506104688133308560050154611520565b60058201546040805191825242602083015285917f77360216dafe21aa8d455333608207082f74e837ba9b3ef15d0a73cd22693738910160405180910390a2505b505050565b60006104b8611906565b6104c06114fc565b6004016000848152602001908152602001600020604051806101c001604052908160008201548152602001600182015481526020016002820160009054906101000a900460ff166005811115610518576105186119da565b6005811115610529576105296119da565b815260028281015461010090046001600160a01b039081166020840152600384015481166040840152600484015416606083015260058301546080830152600683015461ffff811660a084015260c09092019162010000900460ff1690811115610595576105956119da565b60028111156105a6576105a66119da565b8152602001600782015481526020016008820154815260200160098201548152602001600a8201548152602001600b820180546105e290611c3f565b80601f016020809104026020016040519081016040528092919081815260200182805461060e90611c3f565b801561065b5780601f106106305761010080835404028352916020019161065b565b820191906000526020600020905b81548152906001019060200180831161063e57829003601f168201915b5050509190925250505060808101519091506001600160a01b03161561068057600191505b915091565b6000806106906114fc565b600084815260049190910160205260408120600281015490925061010090046001600160a01b0316331415806106d3575060038201546001600160a01b03163314155b9050806106f35760405163e3272bbb60e01b815260040160405180910390fd5b6004600283015460ff16600581111561070e5761070e6119da565b148061073257506005600283015460ff166005811115610730576107306119da565b145b15610741575060009392505050565b6000600283015460ff16600581111561075c5761075c6119da565b036107c55760088201544211156107bb5760028201805460ff1916600517905560405142815284907fb863ee9d4a4c2ec156f99f86e134cd00a253769227440d781246a30af0bea7a69060200160405180910390a25060019392505050565b5060009392505050565b6001600283015460ff1660058111156107e0576107e06119da565b0361080557600982015442115b156107bb576107fb846115af565b5060019392505050565b60028083015460ff16600581111561081f5761081f6119da565b148061084357506003600283015460ff166005811115610841576108416119da565b145b156107bb57600a82015442116107ed565b600061085e6114fc565b600083815260049190910160205260409020600281015490915061010090046001600160a01b031633146108a55760405163e3272bbb60e01b815260040160405180910390fd5b6001600282015460ff1660058111156108c0576108c06119da565b146108de57604051636705732d60e11b815260040160405180910390fd5b6009810154421115610903576040516326b6ec8160e21b815260040160405180910390fd5b806005015460000361092857604051631618e63d60e01b815260040160405180910390fd5b6002818101805460ff1916909117905561094562278d0042611bf0565b600a82015560405142815282907f7a5b7de3bc82f24e3a2ec84fdd3d22a2611adff3df42e2917470dc204f0eb0a4906020015b60405180910390a25050565b600033816109986040850160208601611c73565b6001600160a01b031614806109b457506001600160a01b038116155b156109d25760405163ddbadd5f60e01b815260040160405180910390fd5b8260a001356000036109f75760405163128c02fd60e31b815260040160405180910390fd5b6000610a016114fc565b843560009081526003919091016020908152604091829020825160a0810184528154815260018201546001600160a01b03811693820193909352600160a01b90920460ff16151592820192909252600282018054919291606084019190610a6790611c3f565b80601f0160208091040260200160405190810160405280929190818152602001828054610a9390611c3f565b8015610ae05780601f10610ab557610100808354040283529160200191610ae0565b820191906000526020600020905b815481529060010190602001808311610ac357829003601f168201915b50505050508152602001600382018054610af990611c3f565b80601f0160208091040260200160405190810160405280929190818152602001828054610b2590611c3f565b8015610b725780601f10610b4757610100808354040283529160200191610b72565b820191906000526020600020905b815481529060010190602001808311610b5557829003601f168201915b5050505050815250509050816001600160a01b031681602001516001600160a01b0316141580610ba457508060400151155b15610bc25760405163311361ed60e21b815260040160405180910390fd5b7f597ec45b5dee7a6650727972f9d2dbc40d80ce7c4f31ac1a2a5f1408711befb78054906000610bf183611c9c565b9091555092508335610c016114fc565b6000858152600491909101602052604090206001015581610c206114fc565b600401600085815260200190815260200160002060030160006101000a8154816001600160a01b0302191690836001600160a01b03160217905550836020016020810190610c6e9190611c73565b610c766114fc565b60008581526004919091016020526040902060020180546001600160a01b039290921661010002610100600160a81b0319909216919091179055610cc060a0850160808601611cb5565b6001600160801b0316610cd16114fc565b60008581526004919091016020526040812060050191909155610cf26114fc565b600085815260049190910160205260409020600201805460ff19166001836005811115610d2157610d216119da565b02179055508360a00135610d336114fc565b60008581526004919091016020526040902060070155610d5660c0850185611cde565b610d5e6114fc565b600086815260049190910160205260409020600b0191610d7f919083611d90565b50610d8d6213c68042611bf0565b610d956114fc565b60008581526004919091016020526040902060080155610db862278d0042611bf0565b610dc06114fc565b600085815260049190910160205260409020600a0155610de660a0850160808601611cb5565b6001600160801b0316600003610e35576000610e006114fc565b60008581526004918201602052604090200180546001600160a01b0319166001600160a01b0392909216919091179055610ebf565b610e456060850160408601611c73565b610e4d6114fc565b60008581526004918201602052604090200180546001600160a01b0319166001600160a01b0392909216919091179055610e8d6080850160608601611e50565b610e956114fc565b600085815260049190910160205260409020600601805461ffff191661ffff929092169190911790555b8335837f97ec97e17d5cc9e49451ee6a032bd6b79a1a28271d825d71c38c5948ec918828610ef36040880160208901611c73565b85610f0460608a0160408b01611c73565b610f1460a08b0160808c01611cb5565b42610f2260c08d018d611cde565b604051610f359796959493929190611e74565b60405180910390a35050919050565b6000610f4e6114fc565b600083815260049190910160205260409020600281015490915061010090046001600160a01b03163314610f955760405163e3272bbb60e01b815260040160405180910390fd5b6001600282015460ff166005811115610fb057610fb06119da565b14610fce57604051636705732d60e11b815260040160405180910390fd5b610fd7826115af565b5050565b6000610fe56114fc565b6000848152600491820160205260409020908101549091506001600160a01b031633146110255760405163e3272bbb60e01b815260040160405180910390fd5b60028082015460ff16600581111561103f5761103f6119da565b1461105d57604051636705732d60e11b815260040160405180910390fd5b600a810154421115611082576040516326b6ec8160e21b815260040160405180910390fd5b60068101805483919062ff00001916620100008360028111156110a7576110a76119da565b02179055506002818101805460ff1916600317905583907f9e8270be22c213149f278b5bf643fc5f79654f93c3751cae4912cf8c445552ac9084908111156110f1576110f16119da565b6040805160ff90921682524260208301520160405180910390a2505050565b600061111a6114fc565b600083815260049190910160205260408120600281015490925061010090046001600160a01b03163314158061115d575060038201546001600160a01b03163314155b90508061117d5760405163e3272bbb60e01b815260040160405180910390fd5b6003600283015460ff166005811115611198576111986119da565b146111b657604051636705732d60e11b815260040160405180910390fd5b600a8201544211156111db576040516326b6ec8160e21b815260040160405180910390fd5b600682015460058301546000918291829182916112089160ff620100008204169161ffff90911690611641565b935093509350935061121d87858585856116c5565b6040805133815242602082015288917f7ca5472b7ea78c2c0141c5a12ee6d170cf4ce8ed06be3d22c8252ddfc7a6a2c491015b60405180910390a250505050505050565b60008061126c6114fc565b60008481526004918201602052604090206002015460ff169150816005811115611298576112986119da565b14806112b5575060058160058111156112b3576112b36119da565b145b156112c357600191506112c8565b600091505b50919050565b6000806112d96114fc565b6004016000848152602001908152602001600020604051806101c001604052908160008201548152602001600182015481526020016002820160009054906101000a900460ff166005811115611331576113316119da565b6005811115611342576113426119da565b815260028281015461010090046001600160a01b039081166020840152600384015481166040840152600484015416606083015260058301546080830152600683015461ffff811660a084015260c09092019162010000900460ff16908111156113ae576113ae6119da565b60028111156113bf576113bf6119da565b8152602001600782015481526020016008820154815260200160098201548152602001600a8201548152602001600b820180546113fb90611c3f565b80601f016020809104026020016040519081016040528092919081815260200182805461142790611c3f565b80156114745780601f1061144957610100808354040283529160200191611474565b820191906000526020600020905b81548152906001019060200180831161145757829003601f168201915b5050505050815250509050600580811115611491576114916119da565b816040015160058111156114a7576114a76119da565b14806114c857506000816040015160058111156114c6576114c66119da565b145b806114e857506004816040015160058111156114e6576114e66119da565b145b156114f257600091505b60c0015192915050565b7fe7be30a96703909048a253b0b69ca3a7f05875afb6fea1bbe7561d457b1d95c890565b60006040516323b872dd60e01b81528460048201528360248201528260448201526020600060648360008a5af13d15601f3d11600160005114161716915050806115a85760405162461bcd60e51b81526020600482015260146024820152731514905394d1915497d19493d357d1905253115160621b60448201526064015b60405180910390fd5b5050505050565b60006115b96114fc565b600083815260049190910160205260409020600581015490915015611600576000806115e883600501546117c2565b915091506115fa8483600080856116c5565b50505050565b60028101805460ff1916600417905560405142815282907f12a1c1987aa73679916aba446c3dc908aba127ae71d422c51cece3350d680f0890602001610978565b60008060008061165185876117e3565b9150600061165f8387611ee1565b90506000886002811115611675576116756119da565b03611682578094506116bb565b6001886002811115611696576116966119da565b036116b7576000806116a783611842565b90975087965093506116bb915050565b8093505b5093509350935093565b60006116cf6114fc565b60008781526004919091016020526040812091506116eb6114fc565b5460028301805460ff191660041790556001600160a01b0316905085156117265760038201546117269082906001600160a01b031688611870565b841561174b57600282015461174b90829061010090046001600160a01b031687611870565b831561176b57600482015461176b9082906001600160a01b031686611870565b8215611790576117908161177d6114fc565b600101546001600160a01b031685611870565b867f12a1c1987aa73679916aba446c3dc908aba127ae71d422c51cece3350d680f084260405161125091815260200190565b6000806117d08360c86117e3565b90506117dc8184611ee1565b9150915091565b60008215806117f4575061ffff8216155b156118015750600061183c565b6127108261ffff16111561182857604051631e33f25560e01b815260040160405180910390fd5b611839838361ffff166127106118e8565b90505b92915050565b6000808260000361185857506000928392509050565b611863600284611f0a565b90506117dc600284611f1e565b600060405163a9059cbb60e01b8152836004820152826024820152602060006044836000895af13d15601f3d11600160005114161716915050806115fa5760405162461bcd60e51b815260206004820152600f60248201526e1514905394d1915497d19052531151608a1b604482015260640161159f565b60008260001904841183021582026118ff57600080fd5b5091020490565b604051806101c00160405280600081526020016000815260200160006005811115611933576119336119da565b815260006020820181905260408201819052606082018190526080820181905260a0820181905260c090910190815260200160008152602001600081526020016000815260200160008152602001606081525090565b60008082840360a081121561199d57600080fd5b833592506080601f19820112156119b357600080fd5b506020830190509250929050565b6000602082840312156119d357600080fd5b5035919050565b634e487b7160e01b600052602160045260246000fd5b60068110611a0057611a006119da565b9052565b60038110611a0057611a006119da565b6000815180845260005b81811015611a3a57602081850181015186830182015201611a1e565b506000602082860101526020601f19601f83011685010191505092915050565b821515815260406020820152815160408201526020820151606082015260006040830151611a8b60808401826119f0565b5060608301516001600160a01b03811660a08401525060808301516001600160a01b03811660c08401525060a08301516001600160a01b03811660e08401525060c0830151610100818185015260e08501519150610120611af18186018461ffff169052565b90850151915061014090611b0785830184611a04565b850151610160858101919091529085015161018080860191909152908501516101a080860191909152908501516101c080860191909152908501516101e08501919091529050611b5b610200840182611a14565b95945050505050565b600060208284031215611b7657600080fd5b813567ffffffffffffffff811115611b8d57600080fd5b820160e08185031215611b9f57600080fd5b9392505050565b60008060408385031215611bb957600080fd5b82359150602083013560038110611bcf57600080fd5b809150509250929050565b634e487b7160e01b600052601160045260246000fd5b8082018082111561183c5761183c611bda565b600060208284031215611c1557600080fd5b5051919050565b600060208284031215611c2e57600080fd5b813560ff81168114611b9f57600080fd5b600181811c90821680611c5357607f821691505b6020821081036112c857634e487b7160e01b600052602260045260246000fd5b600060208284031215611c8557600080fd5b81356001600160a01b0381168114611b9f57600080fd5b600060018201611cae57611cae611bda565b5060010190565b600060208284031215611cc757600080fd5b81356001600160801b0381168114611b9f57600080fd5b6000808335601e19843603018112611cf557600080fd5b83018035915067ffffffffffffffff821115611d1057600080fd5b602001915036819003821315611d2557600080fd5b9250929050565b634e487b7160e01b600052604160045260246000fd5b601f8211156104a957600081815260208120601f850160051c81016020861015611d695750805b601f850160051c820191505b81811015611d8857828155600101611d75565b505050505050565b67ffffffffffffffff831115611da857611da8611d2c565b611dbc83611db68354611c3f565b83611d42565b6000601f841160018114611df05760008515611dd85750838201355b600019600387901b1c1916600186901b1783556115a8565b600083815260209020601f19861690835b82811015611e215786850135825560209485019460019092019101611e01565b5086821015611e3e5760001960f88860031b161c19848701351681555b505060018560011b0183555050505050565b600060208284031215611e6257600080fd5b813561ffff81168114611b9f57600080fd5b6001600160a01b0388811682528781166020830152861660408201526001600160801b03851660608201526080810184905260c060a0820181905281018290526000828460e0840137600060e0848401015260e0601f19601f850116830101905098975050505050505050565b8181038181111561183c5761183c611bda565b634e487b7160e01b600052601260045260246000fd5b600082611f1957611f19611ef4565b500690565b600082611f2d57611f2d611ef4565b50049056fea2646970667358221220ec161bce407bda8feca699c52257192f5492068362a9c2d1f4aeca985ab398c964736f6c63430008100033",
    "linkReferences": {}
  },
  "methodIdentifiers": {
    "agreeToRefund(uint256)": "c3e2fb02",
    "complete(uint256)": "971d852f",
    "createOffer((uint256,address,address,uint16,uint128,uint256,string))": "8c2a9534",
    "dispute(uint256)": "86d6282c",
    "fundOffer(uint256,(uint8,bytes32,bytes32,uint256))": "03ac9649",
    "getEscrowBalance(uint256)": "fce60903",
    "getExchange(uint256)": "0b9d5847",
    "isClosed(uint256)": "d5c78a28",
    "resolve(uint256,uint8)": "9c0e1608",
    "triggerTimer(uint256)": "2b27a6cd"
  },
  "id": 38
}