{
  "abi": [
    {
      "inputs": [],
      "name": "protocolFee",
      "outputs": [
        {
          "internalType": "uint256",
          "name": "t",
          "type": "uint256"
        }
      ],
      "stateMutability": "view",
      "type": "function"
    },
    {
      "inputs": [],
      "name": "treasury",
      "outputs": [
        {
          "internalType": "address",
          "name": "t",
          "type": "address"
        }
      ],
      "stateMutability": "view",
      "type": "function"
    },
    {
      "inputs": [],
      "name": "usdc",
      "outputs": [
        {
          "internalType": "address",
          "name": "t",
          "type": "address"
        }
      ],
      "stateMutability": "view",
      "type": "function"
    }
  ],
  "bytecode": {
    "object": "0x608060405234801561001057600080fd5b5061011e806100206000396000f3fe6080604052348015600f57600080fd5b5060043610603c5760003560e01c80633e413bee14604157806361d027b314608a578063b0e21e8a1460b9575b600080fd5b7fe7be30a96703909048a253b0b69ca3a7f05875afb6fea1bbe7561d457b1d95c8546001600160a01b03165b6040516001600160a01b0390911681526020015b60405180910390f35b7fe7be30a96703909048a253b0b69ca3a7f05875afb6fea1bbe7561d457b1d95c9546001600160a01b0316606d565b7fe7be30a96703909048a253b0b69ca3a7f05875afb6fea1bbe7561d457b1d95ca54604051908152602001608156fea264697066735822122047b5394103cfa4e970887283aa1d70932744edb54d5b3be2166066508a8fcfdf64736f6c63430008100033",
    "linkReferences": {}
  },
  "methodIdentifiers": {
    "protocolFee()": "b0e21e8a",
    "treasury()": "61d027b3",
    "usdc()": "3e413bee"
  },
  "id": 39
}