{
  "abi": [
    {
      "inputs": [],
      "name": "NoZeroAddress",
      "type": "error"
    },
    {
      "inputs": [],
      "name": "ServiceDoesNotExist",
      "type": "error"
    },
    {
      "inputs": [],
      "name": "UnAuthorizedCaller",
      "type": "error"
    },
    {
      "anonymous": false,
      "inputs": [
        {
          "indexed": true,
          "internalType": "uint256",
          "name": "id",
          "type": "uint256"
        },
        {
          "indexed": true,
          "internalType": "address",
          "name": "owner",
          "type": "address"
        },
        {
          "indexed": false,
          "internalType": "string",
          "name": "name",
          "type": "string"
        },
        {
          "indexed": false,
          "internalType": "string",
          "name": "uri",
          "type": "string"
        },
        {
          "indexed": false,
          "internalType": "uint256",
          "name": "when",
          "type": "uint256"
        }
      ],
      "name": "ServiceCreated",
      "type": "event"
    },
    {
      "anonymous": false,
      "inputs": [
        {
          "indexed": true,
          "internalType": "uint256",
          "name": "id",
          "type": "uint256"
        },
        {
          "indexed": false,
          "internalType": "uint256",
          "name": "when",
          "type": "uint256"
        }
      ],
      "name": "ServiceDeactivated",
      "type": "event"
    },
    {
      "anonymous": false,
      "inputs": [
        {
          "indexed": true,
          "internalType": "uint256",
          "name": "id",
          "type": "uint256"
        },
        {
          "indexed": false,
          "internalType": "string",
          "name": "uri",
          "type": "string"
        },
        {
          "indexed": false,
          "internalType": "uint256",
          "name": "when",
          "type": "uint256"
        }
      ],
      "name": "ServiceUpdatedMetaUri",
      "type": "event"
    },
    {
      "inputs": [
        {
          "internalType": "string",
          "name": "_name",
          "type": "string"
        },
        {
          "internalType": "string",
          "name": "_uri",
          "type": "string"
        }
      ],
      "name": "createService",
      "outputs": [
        {
          "internalType": "uint256",
          "name": "sid",
          "type": "uint256"
        }
      ],
      "stateMutability": "nonpayable",
      "type": "function"
    },
    {
      "inputs": [
        {
          "internalType": "uint256",
          "name": "_serviceId",
          "type": "uint256"
        }
      ],
      "name": "deactivateService",
      "outputs": [
        {
          "internalType": "bool",
          "name": "ok",
          "type": "bool"
        }
      ],
      "stateMutability": "nonpayable",
      "type": "function"
    },
    {
      "inputs": [
        {
          "internalType": "uint256",
          "name": "_serviceId",
          "type": "uint256"
        }
      ],
      "name": "getService",
      "outputs": [
        {
          "internalType": "bool",
          "name": "exists",
          "type": "bool"
        },
        {
          "components": [
            {
              "internalType": "uint256",
              "name": "id",
              "type": "uint256"
            },
            {
              "internalType": "address",
              "name": "owner",
              "type": "address"
            },
            {
              "internalType": "bool",
              "name": "active",
              "type": "bool"
            },
            {
              "internalType": "string",
              "name": "name",
              "type": "string"
            },
            {
              "internalType": "string",
              "name": "metaUri",
              "type": "string"
            }
          ],
          "internalType": "struct Service",
          "name": "serv",
          "type": "tuple"
        }
      ],
      "stateMutability": "view",
      "type": "function"
    },
    {
      "inputs": [
        {
          "internalType": "uint256",
          "name": "_serviceId",
          "type": "uint256"
        }
      ],
      "name": "isActiveService",
      "outputs": [
        {
          "internalType": "bool",
          "name": "isactive",
          "type": "bool"
        }
      ],
      "stateMutability": "view",
      "type": "function"
    },
    {
      "inputs": [
        {
          "internalType": "uint256",
          "name": "_serviceId",
          "type": "uint256"
        },
        {
          "internalType": "string",
          "name": "_metaUri",
          "type": "string"
        }
      ],
      "name": "updateServiceMeta",
      "outputs": [
        {
          "internalType": "bool",
          "name": "ok",
          "type": "bool"
        }
      ],
      "stateMutability": "nonpayable",
      "type": "function"
    }
  ],
  "bytecode": {
    "object": "0x608060405234801561001057600080fd5b50610c97806100206000396000f3fe608060405234801561001057600080fd5b50600436106100575760003560e01c80636a5e1f921461005c578063e2e2837114610082578063ec9c3212146100a5578063ef0e239b146100b8578063f0577392146100d9575b600080fd5b61006f61006a3660046107ea565b6100ec565b6040519081526020015b60405180910390f35b610095610090366004610856565b6102b8565b6040519015158152602001610079565b6100956100b33660046108a2565b610342565b6100cb6100c63660046108a2565b6103c2565b604051610079929190610901565b6100956100e73660046108a2565b610587565b60003361010c5760405163ddbadd5f60e01b815260040160405180910390fd5b7f597ec45b5dee7a6650727972f9d2dbc40d80ce7c4f31ac1a2a5f1408711befb6805490600061013b83610973565b9190505590506040518060a00160405280828152602001336001600160a01b0316815260200160011515815260200186868080601f016020809104026020016040519081016040528093929190818152602001838380828437600092019190915250505090825250604080516020601f8701819004810282018101909252858152918101919086908690819084018382808284376000920182905250939094525050838152600080516020610c4283398151915260209081526040918290208451815590840151600182018054938601511515600160a01b026001600160a81b03199094166001600160a01b0390921691909117929092179091556060830151909150600282019061024d9082610a39565b50608082015160038201906102629082610a39565b50905050336001600160a01b0316817f35089d54fc22c912a146267160f6531d9a2ec17f664691355abaa341ac78ee2b87878787426040516102a8959493929190610b22565b60405180910390a3949350505050565b6000838152600080516020610c428339815191526020526040812060018101546102ea906001600160a01b0316610730565b600381016102f9848683610b5c565b5060019150847fccc556b6f762494b8c659ec5d76ffcccb3956ce41a03c7689d9e6cbe89dd766285854260405161033293929190610c1d565b60405180910390a2509392505050565b6000818152600080516020610c42833981519152602052604081206001810154610374906001600160a01b0316610730565b6001818101805460ff60a01b1916905560405142815290925083907ff02c25bf49e39ca26998cb8aaad7116f8182c9768c43585e0d1e7b54386c023d9060200160405180910390a250919050565b6040805160a0808201835260008083526020808401829052838501829052606080850181905260808501819052868352600080516020610c428339815191528252858320865194850187528054855260018101546001600160a01b03811693860193909352600160a01b90920460ff161515958401959095526002810180549295919291840191610452906109b0565b80601f016020809104026020016040519081016040528092919081815260200182805461047e906109b0565b80156104cb5780601f106104a0576101008083540402835291602001916104cb565b820191906000526020600020905b8154815290600101906020018083116104ae57829003601f168201915b505050505081526020016003820180546104e4906109b0565b80601f0160208091040260200160405190810160405280929190818152602001828054610510906109b0565b801561055d5780601f106105325761010080835404028352916020019161055d565b820191906000526020600020905b81548152906001019060200180831161054057829003601f168201915b5050509190925250505060208101519091506001600160a01b03161561058257600191505b915091565b6000818152600080516020610c4283398151915260209081526040808320815160a0810183528154815260018201546001600160a01b03811694820194909452600160a01b90930460ff161515918301919091526002810180548493929160608401916105f3906109b0565b80601f016020809104026020016040519081016040528092919081815260200182805461061f906109b0565b801561066c5780601f106106415761010080835404028352916020019161066c565b820191906000526020600020905b81548152906001019060200180831161064f57829003601f168201915b50505050508152602001600382018054610685906109b0565b80601f01602080910402602001604051908101604052809291908181526020018280546106b1906109b0565b80156106fe5780601f106106d3576101008083540402835291602001916106fe565b820191906000526020600020905b8154815290600101906020018083116106e157829003601f168201915b5050509190925250505060208101519091506001600160a01b03166107265750600092915050565b6040015192915050565b6001600160a01b0381166107575760405163377ba1c360e11b815260040160405180910390fd5b336107755760405163ddbadd5f60e01b815260040160405180910390fd5b336001600160a01b0382161461079e5760405163e3272bbb60e01b815260040160405180910390fd5b50565b60008083601f8401126107b357600080fd5b50813567ffffffffffffffff8111156107cb57600080fd5b6020830191508360208285010111156107e357600080fd5b9250929050565b6000806000806040858703121561080057600080fd5b843567ffffffffffffffff8082111561081857600080fd5b610824888389016107a1565b9096509450602087013591508082111561083d57600080fd5b5061084a878288016107a1565b95989497509550505050565b60008060006040848603121561086b57600080fd5b83359250602084013567ffffffffffffffff81111561088957600080fd5b610895868287016107a1565b9497909650939450505050565b6000602082840312156108b457600080fd5b5035919050565b6000815180845260005b818110156108e1576020818501810151868301820152016108c5565b506000602082860101526020601f19601f83011685010191505092915050565b8215158152604060208201528151604082015260018060a01b0360208301511660608201526040820151151560808201526000606083015160a08084015261094c60e08401826108bb565b90506080840151603f198483030160c085015261096982826108bb565b9695505050505050565b60006001820161099357634e487b7160e01b600052601160045260246000fd5b5060010190565b634e487b7160e01b600052604160045260246000fd5b600181811c908216806109c457607f821691505b6020821081036109e457634e487b7160e01b600052602260045260246000fd5b50919050565b601f821115610a3457600081815260208120601f850160051c81016020861015610a115750805b601f850160051c820191505b81811015610a3057828155600101610a1d565b5050505b505050565b815167ffffffffffffffff811115610a5357610a5361099a565b610a6781610a6184546109b0565b846109ea565b602080601f831160018114610a9c5760008415610a845750858301515b600019600386901b1c1916600185901b178555610a30565b600085815260208120601f198616915b82811015610acb57888601518255948401946001909101908401610aac565b5085821015610ae95787850151600019600388901b60f8161c191681555b5050505050600190811b01905550565b81835281816020850137506000828201602090810191909152601f909101601f19169091010190565b606081526000610b36606083018789610af9565b8281036020840152610b49818688610af9565b9150508260408301529695505050505050565b67ffffffffffffffff831115610b7457610b7461099a565b610b8883610b8283546109b0565b836109ea565b6000601f841160018114610bbc5760008515610ba45750838201355b600019600387901b1c1916600186901b178355610c16565b600083815260209020601f19861690835b82811015610bed5786850135825560209485019460019092019101610bcd565b5086821015610c0a5760001960f88860031b161c19848701351681555b505060018560011b0183555b5050505050565b604081526000610c31604083018587610af9565b905082602083015294935050505056fee7be30a96703909048a253b0b69ca3a7f05875afb6fea1bbe7561d457b1d95cba2646970667358221220ac2b8e0fa9858544d317c4318144d2ee83455c03d08a7142164f030343a3236464736f6c63430008100033",
    "linkReferences": {}
  },
  "methodIdentifiers": {
    "createService(string,string)": "6a5e1f92",
    "deactivateService(uint256)": "ec9c3212",
    "getService(uint256)": "ef0e239b",
    "isActiveService(uint256)": "f0577392",
    "updateServiceMeta(uint256,string)": "e2e28371"
  },
  "id": 40
}