{
  "abi": [
    {
      "inputs": [],
      "name": "NoZeroAddress",
      "type": "error"
    },
    {
      "inputs": [],
      "name": "ServiceDoesNotExist",
      "type": "error"
    },
    {
      "inputs": [],
      "name": "UnAuthorizedCaller",
      "type": "error"
    },
    {
      "anonymous": false,
      "inputs": [
        {
          "indexed": true,
          "internalType": "uint256",
          "name": "id",
          "type": "uint256"
        },
        {
          "indexed": false,
          "internalType": "string",
          "name": "name",
          "type": "string"
        },
        {
          "indexed": false,
          "internalType": "string",
          "name": "uri",
          "type": "string"
        },
        {
          "indexed": false,
          "internalType": "uint256",
          "name": "when",
          "type": "uint256"
        }
      ],
      "name": "ServiceCreated",
      "type": "event"
    },
    {
      "anonymous": false,
      "inputs": [
        {
          "indexed": true,
          "internalType": "uint256",
          "name": "id",
          "type": "uint256"
        },
        {
          "indexed": false,
          "internalType": "uint256",
          "name": "when",
          "type": "uint256"
        }
      ],
      "name": "ServiceDeactivated",
      "type": "event"
    },
    {
      "anonymous": false,
      "inputs": [
        {
          "indexed": true,
          "internalType": "uint256",
          "name": "id",
          "type": "uint256"
        },
        {
          "indexed": false,
          "internalType": "string",
          "name": "uri",
          "type": "string"
        },
        {
          "indexed": false,
          "internalType": "uint256",
          "name": "when",
          "type": "uint256"
        }
      ],
      "name": "ServiceUpdatedMetaUri",
      "type": "event"
    },
    {
      "inputs": [
        {
          "internalType": "string",
          "name": "_name",
          "type": "string"
        },
        {
          "internalType": "string",
          "name": "_uri",
          "type": "string"
        }
      ],
      "name": "createService",
      "outputs": [
        {
          "internalType": "uint256",
          "name": "sid",
          "type": "uint256"
        }
      ],
      "stateMutability": "nonpayable",
      "type": "function"
    },
    {
      "inputs": [
        {
          "internalType": "uint256",
          "name": "_serviceId",
          "type": "uint256"
        }
      ],
      "name": "deactivateService",
      "outputs": [
        {
          "internalType": "bool",
          "name": "ok",
          "type": "bool"
        }
      ],
      "stateMutability": "nonpayable",
      "type": "function"
    },
    {
      "inputs": [
        {
          "internalType": "uint256",
          "name": "_serviceId",
          "type": "uint256"
        }
      ],
      "name": "getService",
      "outputs": [
        {
          "internalType": "bool",
          "name": "exists",
          "type": "bool"
        },
        {
          "components": [
            {
              "internalType": "uint256",
              "name": "id",
              "type": "uint256"
            },
            {
              "internalType": "address",
              "name": "owner",
              "type": "address"
            },
            {
              "internalType": "bool",
              "name": "active",
              "type": "bool"
            },
            {
              "internalType": "string",
              "name": "name",
              "type": "string"
            },
            {
              "internalType": "string",
              "name": "metaUri",
              "type": "string"
            }
          ],
          "internalType": "struct Service",
          "name": "serv",
          "type": "tuple"
        }
      ],
      "stateMutability": "view",
      "type": "function"
    },
    {
      "inputs": [
        {
          "internalType": "uint256",
          "name": "_serviceId",
          "type": "uint256"
        }
      ],
      "name": "isActiveService",
      "outputs": [
        {
          "internalType": "bool",
          "name": "isactive",
          "type": "bool"
        }
      ],
      "stateMutability": "view",
      "type": "function"
    },
    {
      "inputs": [
        {
          "internalType": "uint256",
          "name": "_serviceId",
          "type": "uint256"
        },
        {
          "internalType": "string",
          "name": "_metaUri",
          "type": "string"
        }
      ],
      "name": "updateServiceMeta",
      "outputs": [
        {
          "internalType": "bool",
          "name": "ok",
          "type": "bool"
        }
      ],
      "stateMutability": "nonpayable",
      "type": "function"
    }
  ],
  "bytecode": {
    "object": "0x608060405234801561001057600080fd5b50610c8d806100206000396000f3fe608060405234801561001057600080fd5b50600436106100575760003560e01c80636a5e1f921461005c578063e2e2837114610082578063ec9c3212146100a5578063ef0e239b146100b8578063f0577392146100d9575b600080fd5b61006f61006a3660046107e0565b6100ec565b6040519081526020015b60405180910390f35b61009561009036600461084c565b6102ae565b6040519015158152602001610079565b6100956100b3366004610898565b610338565b6100cb6100c6366004610898565b6103b8565b6040516100799291906108f7565b6100956100e7366004610898565b61057d565b60003361010c5760405163ddbadd5f60e01b815260040160405180910390fd5b7f597ec45b5dee7a6650727972f9d2dbc40d80ce7c4f31ac1a2a5f1408711befb6805490600061013b83610969565b9190505590506040518060a00160405280828152602001336001600160a01b0316815260200160011515815260200186868080601f016020809104026020016040519081016040528093929190818152602001838380828437600092019190915250505090825250604080516020601f8701819004810282018101909252858152918101919086908690819084018382808284376000920182905250939094525050838152600080516020610c3883398151915260209081526040918290208451815590840151600182018054938601511515600160a01b026001600160a81b03199094166001600160a01b0390921691909117929092179091556060830151909150600282019061024d9082610a2f565b50608082015160038201906102629082610a2f565b50905050807ffd2063f0659f491224ea920563cb171b0aebcf360a0961c7cfd86ec2ba1d8338868686864260405161029e959493929190610b18565b60405180910390a2949350505050565b6000838152600080516020610c388339815191526020526040812060018101546102e0906001600160a01b0316610726565b600381016102ef848683610b52565b5060019150847fccc556b6f762494b8c659ec5d76ffcccb3956ce41a03c7689d9e6cbe89dd766285854260405161032893929190610c13565b60405180910390a2509392505050565b6000818152600080516020610c3883398151915260205260408120600181015461036a906001600160a01b0316610726565b6001818101805460ff60a01b1916905560405142815290925083907ff02c25bf49e39ca26998cb8aaad7116f8182c9768c43585e0d1e7b54386c023d9060200160405180910390a250919050565b6040805160a0808201835260008083526020808401829052838501829052606080850181905260808501819052868352600080516020610c388339815191528252858320865194850187528054855260018101546001600160a01b03811693860193909352600160a01b90920460ff161515958401959095526002810180549295919291840191610448906109a6565b80601f0160208091040260200160405190810160405280929190818152602001828054610474906109a6565b80156104c15780601f10610496576101008083540402835291602001916104c1565b820191906000526020600020905b8154815290600101906020018083116104a457829003601f168201915b505050505081526020016003820180546104da906109a6565b80601f0160208091040260200160405190810160405280929190818152602001828054610506906109a6565b80156105535780601f1061052857610100808354040283529160200191610553565b820191906000526020600020905b81548152906001019060200180831161053657829003601f168201915b5050509190925250505060208101519091506001600160a01b03161561057857600191505b915091565b6000818152600080516020610c3883398151915260209081526040808320815160a0810183528154815260018201546001600160a01b03811694820194909452600160a01b90930460ff161515918301919091526002810180548493929160608401916105e9906109a6565b80601f0160208091040260200160405190810160405280929190818152602001828054610615906109a6565b80156106625780601f1061063757610100808354040283529160200191610662565b820191906000526020600020905b81548152906001019060200180831161064557829003601f168201915b5050505050815260200160038201805461067b906109a6565b80601f01602080910402602001604051908101604052809291908181526020018280546106a7906109a6565b80156106f45780601f106106c9576101008083540402835291602001916106f4565b820191906000526020600020905b8154815290600101906020018083116106d757829003601f168201915b5050509190925250505060208101519091506001600160a01b031661071c5750600092915050565b6040015192915050565b6001600160a01b03811661074d5760405163377ba1c360e11b815260040160405180910390fd5b3361076b5760405163ddbadd5f60e01b815260040160405180910390fd5b336001600160a01b038216146107945760405163e3272bbb60e01b815260040160405180910390fd5b50565b60008083601f8401126107a957600080fd5b50813567ffffffffffffffff8111156107c157600080fd5b6020830191508360208285010111156107d957600080fd5b9250929050565b600080600080604085870312156107f657600080fd5b843567ffffffffffffffff8082111561080e57600080fd5b61081a88838901610797565b9096509450602087013591508082111561083357600080fd5b5061084087828801610797565b95989497509550505050565b60008060006040848603121561086157600080fd5b83359250602084013567ffffffffffffffff81111561087f57600080fd5b61088b86828701610797565b9497909650939450505050565b6000602082840312156108aa57600080fd5b5035919050565b6000815180845260005b818110156108d7576020818501810151868301820152016108bb565b506000602082860101526020601f19601f83011685010191505092915050565b8215158152604060208201528151604082015260018060a01b0360208301511660608201526040820151151560808201526000606083015160a08084015261094260e08401826108b1565b90506080840151603f198483030160c085015261095f82826108b1565b9695505050505050565b60006001820161098957634e487b7160e01b600052601160045260246000fd5b5060010190565b634e487b7160e01b600052604160045260246000fd5b600181811c908216806109ba57607f821691505b6020821081036109da57634e487b7160e01b600052602260045260246000fd5b50919050565b601f821115610a2a57600081815260208120601f850160051c81016020861015610a075750805b601f850160051c820191505b81811015610a2657828155600101610a13565b5050505b505050565b815167ffffffffffffffff811115610a4957610a49610990565b610a5d81610a5784546109a6565b846109e0565b602080601f831160018114610a925760008415610a7a5750858301515b600019600386901b1c1916600185901b178555610a26565b600085815260208120601f198616915b82811015610ac157888601518255948401946001909101908401610aa2565b5085821015610adf5787850151600019600388901b60f8161c191681555b5050505050600190811b01905550565b81835281816020850137506000828201602090810191909152601f909101601f19169091010190565b606081526000610b2c606083018789610aef565b8281036020840152610b3f818688610aef565b9150508260408301529695505050505050565b67ffffffffffffffff831115610b6a57610b6a610990565b610b7e83610b7883546109a6565b836109e0565b6000601f841160018114610bb25760008515610b9a5750838201355b600019600387901b1c1916600186901b178355610c0c565b600083815260209020601f19861690835b82811015610be35786850135825560209485019460019092019101610bc3565b5086821015610c005760001960f88860031b161c19848701351681555b505060018560011b0183555b5050505050565b604081526000610c27604083018587610aef565b905082602083015294935050505056fee7be30a96703909048a253b0b69ca3a7f05875afb6fea1bbe7561d457b1d95cba2646970667358221220f4e0596087d9906582ebb63a8fd589766618daf0cd6d988ae4798050e1da385664736f6c63430008100033",
    "linkReferences": {}
  },
  "methodIdentifiers": {
    "createService(string,string)": "6a5e1f92",
    "deactivateService(uint256)": "ec9c3212",
    "getService(uint256)": "ef0e239b",
    "isActiveService(uint256)": "f0577392",
    "updateServiceMeta(uint256,string)": "e2e28371"
  },
  "id": 38
}