{
  "abi": [
    {
      "inputs": [
        {
          "internalType": "address",
          "name": "_usdc",
          "type": "address"
        }
      ],
      "stateMutability": "nonpayable",
      "type": "constructor"
    },
    {
      "inputs": [],
      "name": "balance",
      "outputs": [
        {
          "internalType": "uint256",
          "name": "value",
          "type": "uint256"
        }
      ],
      "stateMutability": "view",
      "type": "function"
    },
    {
      "inputs": [],
      "name": "owner",
      "outputs": [
        {
          "internalType": "address",
          "name": "",
          "type": "address"
        }
      ],
      "stateMutability": "view",
      "type": "function"
    },
    {
      "inputs": [],
      "name": "usdcAddress",
      "outputs": [
        {
          "internalType": "address",
          "name": "",
          "type": "address"
        }
      ],
      "stateMutability": "view",
      "type": "function"
    }
  ],
  "bytecode": {
    "object": "0x60c060405234801561001057600080fd5b5060405161024338038061024383398101604081905261002f91610044565b336080526001600160a01b031660a052610074565b60006020828403121561005657600080fd5b81516001600160a01b038116811461006d57600080fd5b9392505050565b60805160a0516101a661009d60003960008181604b015260df01526000608f01526101a66000f3fe608060405234801561001057600080fd5b50600436106100415760003560e01c806302d45457146100465780638da5cb5b1461008a578063b69ef8a8146100b1575b600080fd5b61006d7f000000000000000000000000000000000000000000000000000000000000000081565b6040516001600160a01b0390911681526020015b60405180910390f35b61006d7f000000000000000000000000000000000000000000000000000000000000000081565b6100b96100c7565b604051908152602001610081565b6040516370a0823160e01b81523060048201526000907f00000000000000000000000000000000000000000000000000000000000000006001600160a01b0316906370a0823190602401602060405180830381865afa15801561012e573d6000803e3d6000fd5b505050506040513d601f19601f820116820180604052508101906101529190610157565b905090565b60006020828403121561016957600080fd5b505191905056fea26469706673582212200311dc7b51331bc44ff133a517d271623737a206da7ef2816c13265dda6007a064736f6c63430008100033",
    "linkReferences": {}
  },
  "methodIdentifiers": {
    "balance()": "b69ef8a8",
    "owner()": "8da5cb5b",
    "usdcAddress()": "02d45457"
  },
  "id": 37
}